{
	"data": {
		"bytecode": {
			"linkReferences": {},
			"object": "608060405234801561001057600080fd5b50610375806100206000396000f3fe608060405234801561001057600080fd5b506004361061004c5760003560e01c80631e3d73a1146100515780634bce34031461006d5780637cf7a4dd1461008957806392196dab146100b9575b600080fd5b61006b600480360381019061006691906101ec565b6100e9565b005b61008760048036038101906100829190610262565b610125565b005b6100a3600480360381019061009e919061028f565b610151565b6040516100b091906102cb565b60405180910390f35b6100d360048036038101906100ce9190610262565b610186565b6040516100e091906102f5565b60405180910390f35b8060008360ff166023811061010157610100610310565b5b602091828204019190066101000a81548160ff021916908360ff1602179055505050565b600281908060018154018082558091505060019003906000526020600020016000909190919091505550565b6000808260ff166023811061016957610168610310565b5b602091828204019190069054906101000a900460ff169050919050565b60006002828154811061019c5761019b610310565b5b90600052602060002001549050919050565b600080fd5b600060ff82169050919050565b6101c9816101b3565b81146101d457600080fd5b50565b6000813590506101e6816101c0565b92915050565b60008060408385031215610203576102026101ae565b5b6000610211858286016101d7565b9250506020610222858286016101d7565b9150509250929050565b6000819050919050565b61023f8161022c565b811461024a57600080fd5b50565b60008135905061025c81610236565b92915050565b600060208284031215610278576102776101ae565b5b60006102868482850161024d565b91505092915050565b6000602082840312156102a5576102a46101ae565b5b60006102b3848285016101d7565b91505092915050565b6102c5816101b3565b82525050565b60006020820190506102e060008301846102bc565b92915050565b6102ef8161022c565b82525050565b600060208201905061030a60008301846102e6565b92915050565b7f4e487b7100000000000000000000000000000000000000000000000000000000600052603260045260246000fdfea264697066735822122071f6b99f8118edbbfbf0d766d29314815812b8ff46e11bff21a12d6ee63ba99a64736f6c63430008090033",
			"opcodes": "PUSH1 0x80 PUSH1 0x40 MSTORE CALLVALUE DUP1 ISZERO PUSH2 0x10 JUMPI PUSH1 0x0 DUP1 REVERT JUMPDEST POP PUSH2 0x375 DUP1 PUSH2 0x20 PUSH1 0x0 CODECOPY PUSH1 0x0 RETURN INVALID PUSH1 0x80 PUSH1 0x40 MSTORE CALLVALUE DUP1 ISZERO PUSH2 0x10 JUMPI PUSH1 0x0 DUP1 REVERT JUMPDEST POP PUSH1 0x4 CALLDATASIZE LT PUSH2 0x4C JUMPI PUSH1 0x0 CALLDATALOAD PUSH1 0xE0 SHR DUP1 PUSH4 0x1E3D73A1 EQ PUSH2 0x51 JUMPI DUP1 PUSH4 0x4BCE3403 EQ PUSH2 0x6D JUMPI DUP1 PUSH4 0x7CF7A4DD EQ PUSH2 0x89 JUMPI DUP1 PUSH4 0x92196DAB EQ PUSH2 0xB9 JUMPI JUMPDEST PUSH1 0x0 DUP1 REVERT JUMPDEST PUSH2 0x6B PUSH1 0x4 DUP1 CALLDATASIZE SUB DUP2 ADD SWAP1 PUSH2 0x66 SWAP2 SWAP1 PUSH2 0x1EC JUMP JUMPDEST PUSH2 0xE9 JUMP JUMPDEST STOP JUMPDEST PUSH2 0x87 PUSH1 0x4 DUP1 CALLDATASIZE SUB DUP2 ADD SWAP1 PUSH2 0x82 SWAP2 SWAP1 PUSH2 0x262 JUMP JUMPDEST PUSH2 0x125 JUMP JUMPDEST STOP JUMPDEST PUSH2 0xA3 PUSH1 0x4 DUP1 CALLDATASIZE SUB DUP2 ADD SWAP1 PUSH2 0x9E SWAP2 SWAP1 PUSH2 0x28F JUMP JUMPDEST PUSH2 0x151 JUMP JUMPDEST PUSH1 0x40 MLOAD PUSH2 0xB0 SWAP2 SWAP1 PUSH2 0x2CB JUMP JUMPDEST PUSH1 0x40 MLOAD DUP1 SWAP2 SUB SWAP1 RETURN JUMPDEST PUSH2 0xD3 PUSH1 0x4 DUP1 CALLDATASIZE SUB DUP2 ADD SWAP1 PUSH2 0xCE SWAP2 SWAP1 PUSH2 0x262 JUMP JUMPDEST PUSH2 0x186 JUMP JUMPDEST PUSH1 0x40 MLOAD PUSH2 0xE0 SWAP2 SWAP1 PUSH2 0x2F5 JUMP JUMPDEST PUSH1 0x40 MLOAD DUP1 SWAP2 SUB SWAP1 RETURN JUMPDEST DUP1 PUSH1 0x0 DUP4 PUSH1 0xFF AND PUSH1 0x23 DUP2 LT PUSH2 0x101 JUMPI PUSH2 0x100 PUSH2 0x310 JUMP JUMPDEST JUMPDEST PUSH1 0x20 SWAP2 DUP3 DUP3 DIV ADD SWAP2 SWAP1 MOD PUSH2 0x100 EXP DUP2 SLOAD DUP2 PUSH1 0xFF MUL NOT AND SWAP1 DUP4 PUSH1 0xFF AND MUL OR SWAP1 SSTORE POP POP POP JUMP JUMPDEST PUSH1 0x2 DUP2 SWAP1 DUP1 PUSH1 0x1 DUP2 SLOAD ADD DUP1 DUP3 SSTORE DUP1 SWAP2 POP POP PUSH1 0x1 SWAP1 SUB SWAP1 PUSH1 0x0 MSTORE PUSH1 0x20 PUSH1 0x0 KECCAK256 ADD PUSH1 0x0 SWAP1 SWAP2 SWAP1 SWAP2 SWAP1 SWAP2 POP SSTORE POP JUMP JUMPDEST PUSH1 0x0 DUP1 DUP3 PUSH1 0xFF AND PUSH1 0x23 DUP2 LT PUSH2 0x169 JUMPI PUSH2 0x168 PUSH2 0x310 JUMP JUMPDEST JUMPDEST PUSH1 0x20 SWAP2 DUP3 DUP3 DIV ADD SWAP2 SWAP1 MOD SWAP1 SLOAD SWAP1 PUSH2 0x100 EXP SWAP1 DIV PUSH1 0xFF AND SWAP1 POP SWAP2 SWAP1 POP JUMP JUMPDEST PUSH1 0x0 PUSH1 0x2 DUP3 DUP2 SLOAD DUP2 LT PUSH2 0x19C JUMPI PUSH2 0x19B PUSH2 0x310 JUMP JUMPDEST JUMPDEST SWAP1 PUSH1 0x0 MSTORE PUSH1 0x20 PUSH1 0x0 KECCAK256 ADD SLOAD SWAP1 POP SWAP2 SWAP1 POP JUMP JUMPDEST PUSH1 0x0 DUP1 REVERT JUMPDEST PUSH1 0x0 PUSH1 0xFF DUP3 AND SWAP1 POP SWAP2 SWAP1 POP JUMP JUMPDEST PUSH2 0x1C9 DUP2 PUSH2 0x1B3 JUMP JUMPDEST DUP2 EQ PUSH2 0x1D4 JUMPI PUSH1 0x0 DUP1 REVERT JUMPDEST POP JUMP JUMPDEST PUSH1 0x0 DUP2 CALLDATALOAD SWAP1 POP PUSH2 0x1E6 DUP2 PUSH2 0x1C0 JUMP JUMPDEST SWAP3 SWAP2 POP POP JUMP JUMPDEST PUSH1 0x0 DUP1 PUSH1 0x40 DUP4 DUP6 SUB SLT ISZERO PUSH2 0x203 JUMPI PUSH2 0x202 PUSH2 0x1AE JUMP JUMPDEST JUMPDEST PUSH1 0x0 PUSH2 0x211 DUP6 DUP3 DUP7 ADD PUSH2 0x1D7 JUMP JUMPDEST SWAP3 POP POP PUSH1 0x20 PUSH2 0x222 DUP6 DUP3 DUP7 ADD PUSH2 0x1D7 JUMP JUMPDEST SWAP2 POP POP SWAP3 POP SWAP3 SWAP1 POP JUMP JUMPDEST PUSH1 0x0 DUP2 SWAP1 POP SWAP2 SWAP1 POP JUMP JUMPDEST PUSH2 0x23F DUP2 PUSH2 0x22C JUMP JUMPDEST DUP2 EQ PUSH2 0x24A JUMPI PUSH1 0x0 DUP1 REVERT JUMPDEST POP JUMP JUMPDEST PUSH1 0x0 DUP2 CALLDATALOAD SWAP1 POP PUSH2 0x25C DUP2 PUSH2 0x236 JUMP JUMPDEST SWAP3 SWAP2 POP POP JUMP JUMPDEST PUSH1 0x0 PUSH1 0x20 DUP3 DUP5 SUB SLT ISZERO PUSH2 0x278 JUMPI PUSH2 0x277 PUSH2 0x1AE JUMP JUMPDEST JUMPDEST PUSH1 0x0 PUSH2 0x286 DUP5 DUP3 DUP6 ADD PUSH2 0x24D JUMP JUMPDEST SWAP2 POP POP SWAP3 SWAP2 POP POP JUMP JUMPDEST PUSH1 0x0 PUSH1 0x20 DUP3 DUP5 SUB SLT ISZERO PUSH2 0x2A5 JUMPI PUSH2 0x2A4 PUSH2 0x1AE JUMP JUMPDEST JUMPDEST PUSH1 0x0 PUSH2 0x2B3 DUP5 DUP3 DUP6 ADD PUSH2 0x1D7 JUMP JUMPDEST SWAP2 POP POP SWAP3 SWAP2 POP POP JUMP JUMPDEST PUSH2 0x2C5 DUP2 PUSH2 0x1B3 JUMP JUMPDEST DUP3 MSTORE POP POP JUMP JUMPDEST PUSH1 0x0 PUSH1 0x20 DUP3 ADD SWAP1 POP PUSH2 0x2E0 PUSH1 0x0 DUP4 ADD DUP5 PUSH2 0x2BC JUMP JUMPDEST SWAP3 SWAP2 POP POP JUMP JUMPDEST PUSH2 0x2EF DUP2 PUSH2 0x22C JUMP JUMPDEST DUP3 MSTORE POP POP JUMP JUMPDEST PUSH1 0x0 PUSH1 0x20 DUP3 ADD SWAP1 POP PUSH2 0x30A PUSH1 0x0 DUP4 ADD DUP5 PUSH2 0x2E6 JUMP JUMPDEST SWAP3 SWAP2 POP POP JUMP JUMPDEST PUSH32 0x4E487B7100000000000000000000000000000000000000000000000000000000 PUSH1 0x0 MSTORE PUSH1 0x32 PUSH1 0x4 MSTORE PUSH1 0x24 PUSH1 0x0 REVERT INVALID LOG2 PUSH5 0x6970667358 0x22 SLT KECCAK256 PUSH18 0xF6B99F8118EDBBFBF0D766D29314815812B8 SELFDESTRUCT CHAINID 0xE1 SHL SELFDESTRUCT 0x21 LOG1 0x2D PUSH15 0xE63BA99A64736F6C63430008090033 "
		},
		"gasEstimates": {
			"creation": {
				"codeDepositCost": "177000",
				"executionCost": "220",
				"totalCost": "177220"
			},
			"external": {
				"readData(uint8)": "infinite",
				"readDynamicArray(uint256)": "infinite",
				"setData(uint8,uint8)": "infinite",
				"setDataForDynamicArray(uint256)": "46829"
			}
		},
		"methodIdentifiers": {
			"readData(uint8)": "7cf7a4dd",
			"readDynamicArray(uint256)": "92196dab",
			"setData(uint8,uint8)": "1e3d73a1",
			"setDataForDynamicArray(uint256)": "4bce3403"
		}
	},
	"abi": [
		{
			"inputs": [
				{
					"internalType": "uint8",
					"name": "_index",
					"type": "uint8"
				}
			],
			"name": "readData",
			"outputs": [
				{
					"internalType": "uint8",
					"name": "",
					"type": "uint8"
				}
			],
			"stateMutability": "view",
			"type": "function"
		},
		{
			"inputs": [
				{
					"internalType": "uint256",
					"name": "_index",
					"type": "uint256"
				}
			],
			"name": "readDynamicArray",
			"outputs": [
				{
					"internalType": "uint256",
					"name": "",
					"type": "uint256"
				}
			],
			"stateMutability": "view",
			"type": "function"
		},
		{
			"inputs": [
				{
					"internalType": "uint8",
					"name": "_index",
					"type": "uint8"
				},
				{
					"internalType": "uint8",
					"name": "_value",
					"type": "uint8"
				}
			],
			"name": "setData",
			"outputs": [],
			"stateMutability": "nonpayable",
			"type": "function"
		},
		{
			"inputs": [
				{
					"internalType": "uint256",
					"name": "_phoneno",
					"type": "uint256"
				}
			],
			"name": "setDataForDynamicArray",
			"outputs": [],
			"stateMutability": "nonpayable",
			"type": "function"
		}
	]
}