{
	"data": {
		"bytecode": {
			"linkReferences": {},
			"object": "6080604052348015600f57600080fd5b50608e8061001e6000396000f3fe6080604052348015600f57600080fd5b506004361060285760003560e01c8063c033662914602d575b600080fd5b60336035565b005b60008060006101000a81548160ff02191690836003811115605257fe5b021790555056fea265627a7a723158201c79e14a2d93597b6db9dabc1aebbe0ddecb6793a6457605a36a77b9b966db5864736f6c63430005110032",
			"opcodes": "PUSH1 0x80 PUSH1 0x40 MSTORE CALLVALUE DUP1 ISZERO PUSH1 0xF JUMPI PUSH1 0x0 DUP1 REVERT JUMPDEST POP PUSH1 0x8E DUP1 PUSH2 0x1E PUSH1 0x0 CODECOPY PUSH1 0x0 RETURN INVALID PUSH1 0x80 PUSH1 0x40 MSTORE CALLVALUE DUP1 ISZERO PUSH1 0xF JUMPI PUSH1 0x0 DUP1 REVERT JUMPDEST POP PUSH1 0x4 CALLDATASIZE LT PUSH1 0x28 JUMPI PUSH1 0x0 CALLDATALOAD PUSH1 0xE0 SHR DUP1 PUSH4 0xC0336629 EQ PUSH1 0x2D JUMPI JUMPDEST PUSH1 0x0 DUP1 REVERT JUMPDEST PUSH1 0x33 PUSH1 0x35 JUMP JUMPDEST STOP JUMPDEST PUSH1 0x0 DUP1 PUSH1 0x0 PUSH2 0x100 EXP DUP2 SLOAD DUP2 PUSH1 0xFF MUL NOT AND SWAP1 DUP4 PUSH1 0x3 DUP2 GT ISZERO PUSH1 0x52 JUMPI INVALID JUMPDEST MUL OR SWAP1 SSTORE POP JUMP INVALID LOG2 PUSH6 0x627A7A723158 KECCAK256 SHR PUSH26 0xE14A2D93597B6DB9DABC1AEBBE0DDECB6793A6457605A36A77B9 0xB9 PUSH7 0xDB5864736F6C63 NUMBER STOP SDIV GT STOP ORIGIN "
		},
		"gasEstimates": {
			"creation": {
				"codeDepositCost": "28400",
				"executionCost": "81",
				"totalCost": "28481"
			},
			"external": {
				"setStatus()": "21009"
			}
		},
		"methodIdentifiers": {
			"setStatus()": "c0336629"
		}
	},
	"abi": [
		{
			"constant": false,
			"inputs": [],
			"name": "setStatus",
			"outputs": [],
			"payable": false,
			"stateMutability": "nonpayable",
			"type": "function"
		}
	]
}