{
	"data": {
		"bytecode": {
			"linkReferences": {},
			"object": "610145610026600b82828239805160001a60731461001957fe5b30600052607381538281f3fe73000000000000000000000000000000000000000030146080604052600436106100355760003560e01c8063e6319a661461003a575b600080fd5b6100706004803603604081101561005057600080fd5b810190808035906020019092919080359060200190929190505050610086565b6040518082815260200191505060405180910390f35b6000808214156100fe576040517f08c379a00000000000000000000000000000000000000000000000000000000081526004018080602001828103825260168152602001807f44656e6f6d696e61746f722063616e277420626520300000000000000000000081525060200191505060405180910390fd5b81838161010757fe5b0590509291505056fea265627a7a723158201d760794308fb2d99e8288bcdda2871f8ce0d53dd7bd3182d8ac9a16af238d1f64736f6c63430005110032",
			"opcodes": "PUSH2 0x145 PUSH2 0x26 PUSH1 0xB DUP3 DUP3 DUP3 CODECOPY DUP1 MLOAD PUSH1 0x0 BYTE PUSH1 0x73 EQ PUSH2 0x19 JUMPI INVALID JUMPDEST ADDRESS PUSH1 0x0 MSTORE PUSH1 0x73 DUP2 MSTORE8 DUP3 DUP2 RETURN INVALID PUSH20 0x0 ADDRESS EQ PUSH1 0x80 PUSH1 0x40 MSTORE PUSH1 0x4 CALLDATASIZE LT PUSH2 0x35 JUMPI PUSH1 0x0 CALLDATALOAD PUSH1 0xE0 SHR DUP1 PUSH4 0xE6319A66 EQ PUSH2 0x3A JUMPI JUMPDEST PUSH1 0x0 DUP1 REVERT JUMPDEST PUSH2 0x70 PUSH1 0x4 DUP1 CALLDATASIZE SUB PUSH1 0x40 DUP2 LT ISZERO PUSH2 0x50 JUMPI PUSH1 0x0 DUP1 REVERT JUMPDEST DUP2 ADD SWAP1 DUP1 DUP1 CALLDATALOAD SWAP1 PUSH1 0x20 ADD SWAP1 SWAP3 SWAP2 SWAP1 DUP1 CALLDATALOAD SWAP1 PUSH1 0x20 ADD SWAP1 SWAP3 SWAP2 SWAP1 POP POP POP PUSH2 0x86 JUMP JUMPDEST PUSH1 0x40 MLOAD DUP1 DUP3 DUP2 MSTORE PUSH1 0x20 ADD SWAP2 POP POP PUSH1 0x40 MLOAD DUP1 SWAP2 SUB SWAP1 RETURN JUMPDEST PUSH1 0x0 DUP1 DUP3 EQ ISZERO PUSH2 0xFE JUMPI PUSH1 0x40 MLOAD PUSH32 0x8C379A000000000000000000000000000000000000000000000000000000000 DUP2 MSTORE PUSH1 0x4 ADD DUP1 DUP1 PUSH1 0x20 ADD DUP3 DUP2 SUB DUP3 MSTORE PUSH1 0x16 DUP2 MSTORE PUSH1 0x20 ADD DUP1 PUSH32 0x44656E6F6D696E61746F722063616E2774206265203000000000000000000000 DUP2 MSTORE POP PUSH1 0x20 ADD SWAP2 POP POP PUSH1 0x40 MLOAD DUP1 SWAP2 SUB SWAP1 REVERT JUMPDEST DUP2 DUP4 DUP2 PUSH2 0x107 JUMPI INVALID JUMPDEST SDIV SWAP1 POP SWAP3 SWAP2 POP POP JUMP INVALID LOG2 PUSH6 0x627A7A723158 KECCAK256 SAR PUSH23 0x794308FB2D99E8288BCDDA2871F8CE0D53DD7BD3182D8 0xAC SWAP11 AND 0xAF 0x23 DUP14 0x1F PUSH5 0x736F6C6343 STOP SDIV GT STOP ORIGIN "
		},
		"gasEstimates": {
			"creation": {
				"codeDepositCost": "65000",
				"executionCost": "142",
				"totalCost": "65142"
			},
			"external": {
				"myName(int256,int256)": "357"
			}
		},
		"methodIdentifiers": {
			"myName(int256,int256)": "e6319a66"
		}
	},
	"abi": [
		{
			"constant": true,
			"inputs": [
				{
					"internalType": "int256",
					"name": "a",
					"type": "int256"
				},
				{
					"internalType": "int256",
					"name": "b",
					"type": "int256"
				}
			],
			"name": "myName",
			"outputs": [
				{
					"internalType": "int256",
					"name": "",
					"type": "int256"
				}
			],
			"payable": false,
			"stateMutability": "view",
			"type": "function"
		}
	]
}