{
	"class-work/Mathfunc.sol": {
		"Mathfunc": {
			"abi": [
				{
					"constant": true,
					"inputs": [
						{
							"internalType": "int256",
							"name": "a",
							"type": "int256"
						},
						{
							"internalType": "int256",
							"name": "b",
							"type": "int256"
						}
					],
					"name": "myName",
					"outputs": [
						{
							"internalType": "int256",
							"name": "",
							"type": "int256"
						}
					],
					"payable": false,
					"stateMutability": "view",
					"type": "function"
				}
			],
			"devdoc": {
				"methods": {}
			},
			"evm": {
				"assembly": "    /* \"class-work/Mathfunc.sol\":74:231  library Mathfunc{... */\n  dataSize(sub_0)\n  dataOffset(sub_0)\n    /* \"--CODEGEN--\":132:134   */\n  0x0b\n    /* \"--CODEGEN--\":166:173   */\n  dup3\n    /* \"--CODEGEN--\":155:164   */\n  dup3\n    /* \"--CODEGEN--\":146:153   */\n  dup3\n    /* \"--CODEGEN--\":137:174   */\n  codecopy\n    /* \"--CODEGEN--\":255:262   */\n  dup1\n    /* \"--CODEGEN--\":249:263   */\n  mload\n    /* \"--CODEGEN--\":246:247   */\n  0x00\n    /* \"--CODEGEN--\":241:264   */\n  byte\n    /* \"--CODEGEN--\":235:239   */\n  0x73\n    /* \"--CODEGEN--\":232:265   */\n  eq\n    /* \"--CODEGEN--\":222:224   */\n  tag_1\n  jumpi\n    /* \"--CODEGEN--\":269:278   */\n  invalid\n    /* \"--CODEGEN--\":222:224   */\ntag_1:\n    /* \"--CODEGEN--\":293:302   */\n  address\n    /* \"--CODEGEN--\":290:291   */\n  0x00\n    /* \"--CODEGEN--\":283:303   */\n  mstore\n    /* \"--CODEGEN--\":323:327   */\n  0x73\n    /* \"--CODEGEN--\":314:321   */\n  dup2\n    /* \"--CODEGEN--\":306:328   */\n  mstore8\n    /* \"--CODEGEN--\":347:354   */\n  dup3\n    /* \"--CODEGEN--\":338:345   */\n  dup2\n    /* \"--CODEGEN--\":331:355   */\n  return\nstop\n\nsub_0: assembly {\n        /* \"class-work/Mathfunc.sol\":74:231  library Mathfunc{... */\n      eq(address, deployTimeAddress())\n      mstore(0x40, 0x80)\n      jumpi(tag_1, lt(calldatasize, 0x04))\n      shr(0xe0, calldataload(0x00))\n      dup1\n      0xe6319a66\n      eq\n      tag_2\n      jumpi\n    tag_1:\n      0x00\n      dup1\n      revert\n        /* \"class-work/Mathfunc.sol\":98:229  function myName (int a, int b) public pure returns(int){... */\n    tag_2:\n      tag_3\n      0x04\n      dup1\n      calldatasize\n      sub\n        /* \"--CODEGEN--\":13:15   */\n      0x40\n        /* \"--CODEGEN--\":8:11   */\n      dup2\n        /* \"--CODEGEN--\":5:16   */\n      lt\n        /* \"--CODEGEN--\":2:4   */\n      iszero\n      tag_4\n      jumpi\n        /* \"--CODEGEN--\":29:30   */\n      0x00\n        /* \"--CODEGEN--\":26:27   */\n      dup1\n        /* \"--CODEGEN--\":19:31   */\n      revert\n        /* \"--CODEGEN--\":2:4   */\n    tag_4:\n        /* \"class-work/Mathfunc.sol\":98:229  function myName (int a, int b) public pure returns(int){... */\n      dup2\n      add\n      swap1\n      dup1\n      dup1\n      calldataload\n      swap1\n      0x20\n      add\n      swap1\n      swap3\n      swap2\n      swap1\n      dup1\n      calldataload\n      swap1\n      0x20\n      add\n      swap1\n      swap3\n      swap2\n      swap1\n      pop\n      pop\n      pop\n      tag_5\n      jump\t// in\n    tag_3:\n      mload(0x40)\n      dup1\n      dup3\n      dup2\n      mstore\n      0x20\n      add\n      swap2\n      pop\n      pop\n      mload(0x40)\n      dup1\n      swap2\n      sub\n      swap1\n      return\n    tag_5:\n        /* \"class-work/Mathfunc.sol\":149:152  int */\n      0x00\n        /* \"class-work/Mathfunc.sol\":174:175  0 */\n      dup1\n        /* \"class-work/Mathfunc.sol\":171:172  b */\n      dup3\n        /* \"class-work/Mathfunc.sol\":171:175  b!=0 */\n      eq\n      iszero\n        /* \"class-work/Mathfunc.sol\":163:202  require(b!=0, \"Denominator can't be 0\") */\n      tag_7\n      jumpi\n      mload(0x40)\n      0x08c379a000000000000000000000000000000000000000000000000000000000\n      dup2\n      mstore\n      0x04\n      add\n      dup1\n      dup1\n      0x20\n      add\n      dup3\n      dup2\n      sub\n      dup3\n      mstore\n      0x16\n      dup2\n      mstore\n      0x20\n      add\n      dup1\n      0x44656e6f6d696e61746f722063616e2774206265203000000000000000000000\n      dup2\n      mstore\n      pop\n      0x20\n      add\n      swap2\n      pop\n      pop\n      mload(0x40)\n      dup1\n      swap2\n      sub\n      swap1\n      revert\n    tag_7:\n        /* \"class-work/Mathfunc.sol\":221:222  b */\n      dup2\n        /* \"class-work/Mathfunc.sol\":219:220  a */\n      dup4\n        /* \"class-work/Mathfunc.sol\":219:222  a/b */\n      dup2\n      tag_8\n      jumpi\n      invalid\n    tag_8:\n      sdiv\n        /* \"class-work/Mathfunc.sol\":212:222  return a/b */\n      swap1\n      pop\n        /* \"class-work/Mathfunc.sol\":98:229  function myName (int a, int b) public pure returns(int){... */\n      swap3\n      swap2\n      pop\n      pop\n      jump\t// out\n\n    auxdata: 0xa265627a7a72315820f650d17124c3813b48c8551cc983d206f720d35bd197858df9ad748bd90b300464736f6c63430005110032\n}\n",
				"bytecode": {
					"linkReferences": {},
					"object": "610145610026600b82828239805160001a60731461001957fe5b30600052607381538281f3fe73000000000000000000000000000000000000000030146080604052600436106100355760003560e01c8063e6319a661461003a575b600080fd5b6100706004803603604081101561005057600080fd5b810190808035906020019092919080359060200190929190505050610086565b6040518082815260200191505060405180910390f35b6000808214156100fe576040517f08c379a00000000000000000000000000000000000000000000000000000000081526004018080602001828103825260168152602001807f44656e6f6d696e61746f722063616e277420626520300000000000000000000081525060200191505060405180910390fd5b81838161010757fe5b0590509291505056fea265627a7a72315820f650d17124c3813b48c8551cc983d206f720d35bd197858df9ad748bd90b300464736f6c63430005110032",
					"opcodes": "PUSH2 0x145 PUSH2 0x26 PUSH1 0xB DUP3 DUP3 DUP3 CODECOPY DUP1 MLOAD PUSH1 0x0 BYTE PUSH1 0x73 EQ PUSH2 0x19 JUMPI INVALID JUMPDEST ADDRESS PUSH1 0x0 MSTORE PUSH1 0x73 DUP2 MSTORE8 DUP3 DUP2 RETURN INVALID PUSH20 0x0 ADDRESS EQ PUSH1 0x80 PUSH1 0x40 MSTORE PUSH1 0x4 CALLDATASIZE LT PUSH2 0x35 JUMPI PUSH1 0x0 CALLDATALOAD PUSH1 0xE0 SHR DUP1 PUSH4 0xE6319A66 EQ PUSH2 0x3A JUMPI JUMPDEST PUSH1 0x0 DUP1 REVERT JUMPDEST PUSH2 0x70 PUSH1 0x4 DUP1 CALLDATASIZE SUB PUSH1 0x40 DUP2 LT ISZERO PUSH2 0x50 JUMPI PUSH1 0x0 DUP1 REVERT JUMPDEST DUP2 ADD SWAP1 DUP1 DUP1 CALLDATALOAD SWAP1 PUSH1 0x20 ADD SWAP1 SWAP3 SWAP2 SWAP1 DUP1 CALLDATALOAD SWAP1 PUSH1 0x20 ADD SWAP1 SWAP3 SWAP2 SWAP1 POP POP POP PUSH2 0x86 JUMP JUMPDEST PUSH1 0x40 MLOAD DUP1 DUP3 DUP2 MSTORE PUSH1 0x20 ADD SWAP2 POP POP PUSH1 0x40 MLOAD DUP1 SWAP2 SUB SWAP1 RETURN JUMPDEST PUSH1 0x0 DUP1 DUP3 EQ ISZERO PUSH2 0xFE JUMPI PUSH1 0x40 MLOAD PUSH32 0x8C379A000000000000000000000000000000000000000000000000000000000 DUP2 MSTORE PUSH1 0x4 ADD DUP1 DUP1 PUSH1 0x20 ADD DUP3 DUP2 SUB DUP3 MSTORE PUSH1 0x16 DUP2 MSTORE PUSH1 0x20 ADD DUP1 PUSH32 0x44656E6F6D696E61746F722063616E2774206265203000000000000000000000 DUP2 MSTORE POP PUSH1 0x20 ADD SWAP2 POP POP PUSH1 0x40 MLOAD DUP1 SWAP2 SUB SWAP1 REVERT JUMPDEST DUP2 DUP4 DUP2 PUSH2 0x107 JUMPI INVALID JUMPDEST SDIV SWAP1 POP SWAP3 SWAP2 POP POP JUMP INVALID LOG2 PUSH6 0x627A7A723158 KECCAK256 0xF6 POP 0xD1 PUSH18 0x24C3813B48C8551CC983D206F720D35BD197 DUP6 DUP14 0xF9 0xAD PUSH21 0x8BD90B300464736F6C634300051100320000000000 "
				},
				"gasEstimates": {
					"creation": {
						"codeDepositCost": "65000",
						"executionCost": "142",
						"totalCost": "65142"
					},
					"external": {
						"myName(int256,int256)": "357"
					}
				},
				"methodIdentifiers": {
					"myName(int256,int256)": "e6319a66"
				}
			},
			"storageLayout": {
				"storage": [],
				"types": null
			},
			"userdoc": {
				"methods": {}
			}
		}
	}
}