{
	"class-work/contractAlert.sol": {
		"ValueAlert": {
			"abi": [
				{
					"anonymous": false,
					"inputs": [
						{
							"indexed": false,
							"internalType": "bool",
							"name": "retunvalue",
							"type": "bool"
						}
					],
					"name": "priceEvent",
					"type": "event"
				},
				{
					"constant": false,
					"inputs": [
						{
							"internalType": "uint256",
							"name": "_amount",
							"type": "uint256"
						}
					],
					"name": "bid",
					"outputs": [
						{
							"internalType": "bool",
							"name": "",
							"type": "bool"
						}
					],
					"payable": false,
					"stateMutability": "nonpayable",
					"type": "function"
				}
			],
			"devdoc": {
				"methods": {}
			},
			"evm": {
				"assembly": "    /* \"class-work/contractAlert.sol\":57:367  contract ValueAlert{... */\n  mstore(0x40, 0x80)\n    /* \"class-work/contractAlert.sol\":97:100  100 */\n  0x64\n    /* \"class-work/contractAlert.sol\":84:100  uint price = 100 */\n  0x00\n  sstore\n    /* \"class-work/contractAlert.sol\":57:367  contract ValueAlert{... */\n  callvalue\n    /* \"--CODEGEN--\":8:17   */\n  dup1\n    /* \"--CODEGEN--\":5:7   */\n  iszero\n  tag_1\n  jumpi\n    /* \"--CODEGEN--\":30:31   */\n  0x00\n    /* \"--CODEGEN--\":27:28   */\n  dup1\n    /* \"--CODEGEN--\":20:32   */\n  revert\n    /* \"--CODEGEN--\":5:7   */\ntag_1:\n    /* \"class-work/contractAlert.sol\":57:367  contract ValueAlert{... */\n  pop\n  dataSize(sub_0)\n  dup1\n  dataOffset(sub_0)\n  0x00\n  codecopy\n  0x00\n  return\nstop\n\nsub_0: assembly {\n        /* \"class-work/contractAlert.sol\":57:367  contract ValueAlert{... */\n      mstore(0x40, 0x80)\n      callvalue\n        /* \"--CODEGEN--\":8:17   */\n      dup1\n        /* \"--CODEGEN--\":5:7   */\n      iszero\n      tag_1\n      jumpi\n        /* \"--CODEGEN--\":30:31   */\n      0x00\n        /* \"--CODEGEN--\":27:28   */\n      dup1\n        /* \"--CODEGEN--\":20:32   */\n      revert\n        /* \"--CODEGEN--\":5:7   */\n    tag_1:\n        /* \"class-work/contractAlert.sol\":57:367  contract ValueAlert{... */\n      pop\n      jumpi(tag_2, lt(calldatasize, 0x04))\n      shr(0xe0, calldataload(0x00))\n      dup1\n      0x454a2ab3\n      eq\n      tag_3\n      jumpi\n    tag_2:\n      0x00\n      dup1\n      revert\n        /* \"class-work/contractAlert.sol\":173:354  function bid (uint _amount) public returns(bool){... */\n    tag_3:\n      tag_4\n      0x04\n      dup1\n      calldatasize\n      sub\n        /* \"--CODEGEN--\":13:15   */\n      0x20\n        /* \"--CODEGEN--\":8:11   */\n      dup2\n        /* \"--CODEGEN--\":5:16   */\n      lt\n        /* \"--CODEGEN--\":2:4   */\n      iszero\n      tag_5\n      jumpi\n        /* \"--CODEGEN--\":29:30   */\n      0x00\n        /* \"--CODEGEN--\":26:27   */\n      dup1\n        /* \"--CODEGEN--\":19:31   */\n      revert\n        /* \"--CODEGEN--\":2:4   */\n    tag_5:\n        /* \"class-work/contractAlert.sol\":173:354  function bid (uint _amount) public returns(bool){... */\n      dup2\n      add\n      swap1\n      dup1\n      dup1\n      calldataload\n      swap1\n      0x20\n      add\n      swap1\n      swap3\n      swap2\n      swap1\n      pop\n      pop\n      pop\n      tag_6\n      jump\t// in\n    tag_4:\n      mload(0x40)\n      dup1\n      dup3\n      iszero\n      iszero\n      iszero\n      iszero\n      dup2\n      mstore\n      0x20\n      add\n      swap2\n      pop\n      pop\n      mload(0x40)\n      dup1\n      swap2\n      sub\n      swap1\n      return\n    tag_6:\n        /* \"class-work/contractAlert.sol\":216:220  bool */\n      0x00\n        /* \"class-work/contractAlert.sol\":244:249  price */\n      dup1\n      sload\n        /* \"class-work/contractAlert.sol\":236:243  _amount */\n      dup3\n        /* \"class-work/contractAlert.sol\":236:249  _amount>price */\n      gt\n        /* \"class-work/contractAlert.sol\":233:327  if(_amount>price){... */\n      iszero\n      tag_8\n      jumpi\n        /* \"class-work/contractAlert.sol\":298:314  priceEvent(true) */\n      0x6a1fe2e35f595f2851d0555726d14b8221f6eb6f45ff0d6d4a7b7fa2e5f20864\n        /* \"class-work/contractAlert.sol\":309:313  true */\n      0x01\n        /* \"class-work/contractAlert.sol\":298:314  priceEvent(true) */\n      mload(0x40)\n      dup1\n      dup3\n      iszero\n      iszero\n      iszero\n      iszero\n      dup2\n      mstore\n      0x20\n      add\n      swap2\n      pop\n      pop\n      mload(0x40)\n      dup1\n      swap2\n      sub\n      swap1\n      log1\n        /* \"class-work/contractAlert.sol\":233:327  if(_amount>price){... */\n    tag_8:\n        /* \"class-work/contractAlert.sol\":343:347  true */\n      0x01\n        /* \"class-work/contractAlert.sol\":336:347  return true */\n      swap1\n      pop\n        /* \"class-work/contractAlert.sol\":173:354  function bid (uint _amount) public returns(bool){... */\n      swap2\n      swap1\n      pop\n      jump\t// out\n\n    auxdata: 0xa265627a7a72315820a8e94bc00fe0c550416bcd0a26f1809c9f9c4cd057e0876584f4791f43d998d764736f6c63430005110032\n}\n",
				"bytecode": {
					"linkReferences": {},
					"object": "6080604052606460005534801561001557600080fd5b5060f5806100246000396000f3fe6080604052348015600f57600080fd5b506004361060285760003560e01c8063454a2ab314602d575b600080fd5b605660048036036020811015604157600080fd5b81019080803590602001909291905050506070565b604051808215151515815260200191505060405180910390f35b6000805482111560b7577f6a1fe2e35f595f2851d0555726d14b8221f6eb6f45ff0d6d4a7b7fa2e5f208646001604051808215151515815260200191505060405180910390a15b6001905091905056fea265627a7a72315820a8e94bc00fe0c550416bcd0a26f1809c9f9c4cd057e0876584f4791f43d998d764736f6c63430005110032",
					"opcodes": "PUSH1 0x80 PUSH1 0x40 MSTORE PUSH1 0x64 PUSH1 0x0 SSTORE CALLVALUE DUP1 ISZERO PUSH2 0x15 JUMPI PUSH1 0x0 DUP1 REVERT JUMPDEST POP PUSH1 0xF5 DUP1 PUSH2 0x24 PUSH1 0x0 CODECOPY PUSH1 0x0 RETURN INVALID PUSH1 0x80 PUSH1 0x40 MSTORE CALLVALUE DUP1 ISZERO PUSH1 0xF JUMPI PUSH1 0x0 DUP1 REVERT JUMPDEST POP PUSH1 0x4 CALLDATASIZE LT PUSH1 0x28 JUMPI PUSH1 0x0 CALLDATALOAD PUSH1 0xE0 SHR DUP1 PUSH4 0x454A2AB3 EQ PUSH1 0x2D JUMPI JUMPDEST PUSH1 0x0 DUP1 REVERT JUMPDEST PUSH1 0x56 PUSH1 0x4 DUP1 CALLDATASIZE SUB PUSH1 0x20 DUP2 LT ISZERO PUSH1 0x41 JUMPI PUSH1 0x0 DUP1 REVERT JUMPDEST DUP2 ADD SWAP1 DUP1 DUP1 CALLDATALOAD SWAP1 PUSH1 0x20 ADD SWAP1 SWAP3 SWAP2 SWAP1 POP POP POP PUSH1 0x70 JUMP JUMPDEST PUSH1 0x40 MLOAD DUP1 DUP3 ISZERO ISZERO ISZERO ISZERO DUP2 MSTORE PUSH1 0x20 ADD SWAP2 POP POP PUSH1 0x40 MLOAD DUP1 SWAP2 SUB SWAP1 RETURN JUMPDEST PUSH1 0x0 DUP1 SLOAD DUP3 GT ISZERO PUSH1 0xB7 JUMPI PUSH32 0x6A1FE2E35F595F2851D0555726D14B8221F6EB6F45FF0D6D4A7B7FA2E5F20864 PUSH1 0x1 PUSH1 0x40 MLOAD DUP1 DUP3 ISZERO ISZERO ISZERO ISZERO DUP2 MSTORE PUSH1 0x20 ADD SWAP2 POP POP PUSH1 0x40 MLOAD DUP1 SWAP2 SUB SWAP1 LOG1 JUMPDEST PUSH1 0x1 SWAP1 POP SWAP2 SWAP1 POP JUMP INVALID LOG2 PUSH6 0x627A7A723158 KECCAK256 0xA8 0xE9 0x4B 0xC0 0xF 0xE0 0xC5 POP COINBASE PUSH12 0xCD0A26F1809C9F9C4CD057E0 DUP8 PUSH6 0x84F4791F43D9 SWAP9 0xD7 PUSH5 0x736F6C6343 STOP SDIV GT STOP ORIGIN "
				},
				"gasEstimates": {
					"creation": {
						"codeDepositCost": "49000",
						"executionCost": "20105",
						"totalCost": "69105"
					},
					"external": {
						"bid(uint256)": "2189"
					}
				},
				"methodIdentifiers": {
					"bid(uint256)": "454a2ab3"
				}
			},
			"storageLayout": {
				"storage": [
					{
						"astId": 4,
						"contract": "class-work/contractAlert.sol:ValueAlert",
						"label": "price",
						"offset": 0,
						"slot": "0",
						"type": "t_uint256"
					}
				],
				"types": {
					"t_uint256": {
						"encoding": "inplace",
						"label": "uint256",
						"numberOfBytes": "32"
					}
				}
			},
			"userdoc": {
				"methods": {}
			}
		}
	}
}