{
	"class-work/globalVariables.sol": {
		"globalVariables": {
			"abi": [
				{
					"inputs": [],
					"name": "block_hash",
					"outputs": [
						{
							"internalType": "bytes32",
							"name": "",
							"type": "bytes32"
						}
					],
					"stateMutability": "view",
					"type": "function"
				},
				{
					"inputs": [],
					"name": "chkhash",
					"outputs": [],
					"stateMutability": "nonpayable",
					"type": "function"
				},
				{
					"inputs": [],
					"name": "data",
					"outputs": [
						{
							"internalType": "uint256",
							"name": "",
							"type": "uint256"
						}
					],
					"stateMutability": "view",
					"type": "function"
				},
				{
					"inputs": [],
					"name": "data2",
					"outputs": [
						{
							"internalType": "uint256",
							"name": "",
							"type": "uint256"
						}
					],
					"stateMutability": "view",
					"type": "function"
				},
				{
					"inputs": [],
					"name": "data3",
					"outputs": [
						{
							"internalType": "uint256",
							"name": "",
							"type": "uint256"
						}
					],
					"stateMutability": "view",
					"type": "function"
				},
				{
					"inputs": [],
					"name": "data4",
					"outputs": [
						{
							"internalType": "uint256",
							"name": "",
							"type": "uint256"
						}
					],
					"stateMutability": "view",
					"type": "function"
				},
				{
					"inputs": [],
					"name": "hash",
					"outputs": [
						{
							"internalType": "bytes32",
							"name": "",
							"type": "bytes32"
						}
					],
					"stateMutability": "view",
					"type": "function"
				},
				{
					"inputs": [],
					"name": "hash256",
					"outputs": [
						{
							"internalType": "bytes32",
							"name": "",
							"type": "bytes32"
						}
					],
					"stateMutability": "view",
					"type": "function"
				}
			],
			"devdoc": {
				"kind": "dev",
				"methods": {},
				"version": 1
			},
			"evm": {
				"assembly": "    /* \"class-work/globalVariables.sol\":25:486  contract globalVariables {... */\n  mstore(0x40, 0x80)\n  callvalue\n  dup1\n  iszero\n  tag_1\n  jumpi\n  0x00\n  dup1\n  revert\ntag_1:\n  pop\n  dataSize(sub_0)\n  dup1\n  dataOffset(sub_0)\n  0x00\n  codecopy\n  0x00\n  return\nstop\n\nsub_0: assembly {\n        /* \"class-work/globalVariables.sol\":25:486  contract globalVariables {... */\n      mstore(0x40, 0x80)\n      callvalue\n      dup1\n      iszero\n      tag_1\n      jumpi\n      0x00\n      dup1\n      revert\n    tag_1:\n      pop\n      jumpi(tag_2, lt(calldatasize, 0x04))\n      shr(0xe0, calldataload(0x00))\n      dup1\n      0xa641a28d\n      gt\n      tag_11\n      jumpi\n      dup1\n      0xa641a28d\n      eq\n      tag_7\n      jumpi\n      dup1\n      0xc29bde8c\n      eq\n      tag_8\n      jumpi\n      dup1\n      0xe3a7fd75\n      eq\n      tag_9\n      jumpi\n      dup1\n      0xfc26b0ab\n      eq\n      tag_10\n      jumpi\n      jump(tag_2)\n    tag_11:\n      dup1\n      0x09bd5a60\n      eq\n      tag_3\n      jumpi\n      dup1\n      0x61d9e726\n      eq\n      tag_4\n      jumpi\n      dup1\n      0x73d4a13a\n      eq\n      tag_5\n      jumpi\n      dup1\n      0x7781deba\n      eq\n      tag_6\n      jumpi\n    tag_2:\n      0x00\n      dup1\n      revert\n        /* \"class-work/globalVariables.sol\":81:100  bytes32 public hash */\n    tag_3:\n      tag_12\n      tag_13\n      jump\t// in\n    tag_12:\n      mload(0x40)\n      dup1\n      dup3\n      dup2\n      mstore\n      0x20\n      add\n      swap2\n      pop\n      pop\n      mload(0x40)\n      dup1\n      swap2\n      sub\n      swap1\n      return\n        /* \"class-work/globalVariables.sol\":217:237  uint256 public data4 */\n    tag_4:\n      tag_14\n      tag_15\n      jump\t// in\n    tag_14:\n      mload(0x40)\n      dup1\n      dup3\n      dup2\n      mstore\n      0x20\n      add\n      swap2\n      pop\n      pop\n      mload(0x40)\n      dup1\n      swap2\n      sub\n      swap1\n      return\n        /* \"class-work/globalVariables.sol\":56:75  uint256 public data */\n    tag_5:\n      tag_16\n      tag_17\n      jump\t// in\n    tag_16:\n      mload(0x40)\n      dup1\n      dup3\n      dup2\n      mstore\n      0x20\n      add\n      swap2\n      pop\n      pop\n      mload(0x40)\n      dup1\n      swap2\n      sub\n      swap1\n      return\n        /* \"class-work/globalVariables.sol\":106:128  bytes32 public hash256 */\n    tag_6:\n      tag_18\n      tag_19\n      jump\t// in\n    tag_18:\n      mload(0x40)\n      dup1\n      dup3\n      dup2\n      mstore\n      0x20\n      add\n      swap2\n      pop\n      pop\n      mload(0x40)\n      dup1\n      swap2\n      sub\n      swap1\n      return\n        /* \"class-work/globalVariables.sol\":244:484  function chkhash() public {... */\n    tag_7:\n      tag_20\n      tag_21\n      jump\t// in\n    tag_20:\n      stop\n        /* \"class-work/globalVariables.sol\":134:159  bytes32 public block_hash */\n    tag_8:\n      tag_22\n      tag_23\n      jump\t// in\n    tag_22:\n      mload(0x40)\n      dup1\n      dup3\n      dup2\n      mstore\n      0x20\n      add\n      swap2\n      pop\n      pop\n      mload(0x40)\n      dup1\n      swap2\n      sub\n      swap1\n      return\n        /* \"class-work/globalVariables.sol\":165:185  uint256 public data2 */\n    tag_9:\n      tag_24\n      tag_25\n      jump\t// in\n    tag_24:\n      mload(0x40)\n      dup1\n      dup3\n      dup2\n      mstore\n      0x20\n      add\n      swap2\n      pop\n      pop\n      mload(0x40)\n      dup1\n      swap2\n      sub\n      swap1\n      return\n        /* \"class-work/globalVariables.sol\":191:211  uint256 public data3 */\n    tag_10:\n      tag_26\n      tag_27\n      jump\t// in\n    tag_26:\n      mload(0x40)\n      dup1\n      dup3\n      dup2\n      mstore\n      0x20\n      add\n      swap2\n      pop\n      pop\n      mload(0x40)\n      dup1\n      swap2\n      sub\n      swap1\n      return\n        /* \"class-work/globalVariables.sol\":81:100  bytes32 public hash */\n    tag_13:\n      sload(0x01)\n      dup2\n      jump\t// out\n        /* \"class-work/globalVariables.sol\":217:237  uint256 public data4 */\n    tag_15:\n      sload(0x06)\n      dup2\n      jump\t// out\n        /* \"class-work/globalVariables.sol\":56:75  uint256 public data */\n    tag_17:\n      sload(0x00)\n      dup2\n      jump\t// out\n        /* \"class-work/globalVariables.sol\":106:128  bytes32 public hash256 */\n    tag_19:\n      sload(0x02)\n      dup2\n      jump\t// out\n        /* \"class-work/globalVariables.sol\":244:484  function chkhash() public {... */\n    tag_21:\n        /* \"class-work/globalVariables.sol\":287:310  keccak256(\"Blockchain\") */\n      0xfa8871e962875d078135f1c5b27b0f184ab6f4dff8641dd81032226ea0ae9e8c\n        /* \"class-work/globalVariables.sol\":280:284  hash */\n      0x01\n        /* \"class-work/globalVariables.sol\":280:310  hash = keccak256(\"Blockchain\") */\n      dup2\n      swap1\n      sstore\n      pop\n        /* \"class-work/globalVariables.sol\":330:347  sha256(\"Block 2\") */\n      0x02\n      mload(0x40)\n      dup1\n      dup1\n      0x426c6f636b203200000000000000000000000000000000000000000000000000\n      dup2\n      mstore\n      pop\n      0x07\n      add\n      swap1\n      pop\n      0x20\n      mload(0x40)\n      dup1\n      dup4\n      sub\n      dup2\n      dup6\n      gas\n      staticcall\n      iszero\n      dup1\n      iszero\n      tag_30\n      jumpi\n      returndatasize\n      0x00\n      dup1\n      returndatacopy\n      revert(0x00, returndatasize)\n    tag_30:\n      pop\n      pop\n      pop\n      mload(0x40)\n      returndatasize\n      0x20\n      dup2\n      lt\n      iszero\n      tag_31\n      jumpi\n      0x00\n      dup1\n      revert\n    tag_31:\n      dup2\n      add\n      swap1\n      dup1\n      dup1\n      mload\n      swap1\n      0x20\n      add\n      swap1\n      swap3\n      swap2\n      swap1\n      pop\n      pop\n      pop\n        /* \"class-work/globalVariables.sol\":320:327  hash256 */\n      0x02\n        /* \"class-work/globalVariables.sol\":320:347  hash256 = sha256(\"Block 2\") */\n      dup2\n      swap1\n      sstore\n      pop\n        /* \"class-work/globalVariables.sol\":380:381  0 */\n      0x00\n        /* \"class-work/globalVariables.sol\":370:382  blockhash(0) */\n      blockhash\n        /* \"class-work/globalVariables.sol\":357:367  block_hash */\n      0x03\n        /* \"class-work/globalVariables.sol\":357:382  block_hash = blockhash(0) */\n      dup2\n      swap1\n      sstore\n      pop\n        /* \"class-work/globalVariables.sol\":399:415  block.difficulty */\n      difficulty\n        /* \"class-work/globalVariables.sol\":392:396  data */\n      0x00\n        /* \"class-work/globalVariables.sol\":392:415  data = block.difficulty */\n      dup2\n      swap1\n      sstore\n      pop\n        /* \"class-work/globalVariables.sol\":433:445  block.number */\n      number\n        /* \"class-work/globalVariables.sol\":425:430  data3 */\n      0x05\n        /* \"class-work/globalVariables.sol\":425:445  data3 = block.number */\n      dup2\n      swap1\n      sstore\n      pop\n        /* \"class-work/globalVariables.sol\":463:477  block.gaslimit */\n      gaslimit\n        /* \"class-work/globalVariables.sol\":455:460  data4 */\n      0x06\n        /* \"class-work/globalVariables.sol\":455:477  data4 = block.gaslimit */\n      dup2\n      swap1\n      sstore\n      pop\n        /* \"class-work/globalVariables.sol\":244:484  function chkhash() public {... */\n      jump\t// out\n        /* \"class-work/globalVariables.sol\":134:159  bytes32 public block_hash */\n    tag_23:\n      sload(0x03)\n      dup2\n      jump\t// out\n        /* \"class-work/globalVariables.sol\":165:185  uint256 public data2 */\n    tag_25:\n      sload(0x04)\n      dup2\n      jump\t// out\n        /* \"class-work/globalVariables.sol\":191:211  uint256 public data3 */\n    tag_27:\n      sload(0x05)\n      dup2\n      jump\t// out\n\n    auxdata: 0xa26469706673582212202e0f7e78901a98fe33bda3058843868f0038b48b719fe06289f6f22f86e0fc1b64736f6c634300060c0033\n}\n",
				"bytecode": {
					"linkReferences": {},
					"object": "608060405234801561001057600080fd5b50610289806100206000396000f3fe608060405234801561001057600080fd5b50600436106100885760003560e01c8063a641a28d1161005b578063a641a28d14610105578063c29bde8c1461010f578063e3a7fd751461012d578063fc26b0ab1461014b57610088565b806309bd5a601461008d57806361d9e726146100ab57806373d4a13a146100c95780637781deba146100e7575b600080fd5b610095610169565b6040518082815260200191505060405180910390f35b6100b361016f565b6040518082815260200191505060405180910390f35b6100d1610175565b6040518082815260200191505060405180910390f35b6100ef61017b565b6040518082815260200191505060405180910390f35b61010d610181565b005b610117610241565b6040518082815260200191505060405180910390f35b610135610247565b6040518082815260200191505060405180910390f35b61015361024d565b6040518082815260200191505060405180910390f35b60015481565b60065481565b60005481565b60025481565b7ffa8871e962875d078135f1c5b27b0f184ab6f4dff8641dd81032226ea0ae9e8c600181905550600260405180807f426c6f636b2032000000000000000000000000000000000000000000000000008152506007019050602060405180830381855afa1580156101f5573d6000803e3d6000fd5b5050506040513d602081101561020a57600080fd5b8101908080519060200190929190505050600281905550600040600381905550446000819055504360058190555045600681905550565b60035481565b60045481565b6005548156fea26469706673582212202e0f7e78901a98fe33bda3058843868f0038b48b719fe06289f6f22f86e0fc1b64736f6c634300060c0033",
					"opcodes": "PUSH1 0x80 PUSH1 0x40 MSTORE CALLVALUE DUP1 ISZERO PUSH2 0x10 JUMPI PUSH1 0x0 DUP1 REVERT JUMPDEST POP PUSH2 0x289 DUP1 PUSH2 0x20 PUSH1 0x0 CODECOPY PUSH1 0x0 RETURN INVALID PUSH1 0x80 PUSH1 0x40 MSTORE CALLVALUE DUP1 ISZERO PUSH2 0x10 JUMPI PUSH1 0x0 DUP1 REVERT JUMPDEST POP PUSH1 0x4 CALLDATASIZE LT PUSH2 0x88 JUMPI PUSH1 0x0 CALLDATALOAD PUSH1 0xE0 SHR DUP1 PUSH4 0xA641A28D GT PUSH2 0x5B JUMPI DUP1 PUSH4 0xA641A28D EQ PUSH2 0x105 JUMPI DUP1 PUSH4 0xC29BDE8C EQ PUSH2 0x10F JUMPI DUP1 PUSH4 0xE3A7FD75 EQ PUSH2 0x12D JUMPI DUP1 PUSH4 0xFC26B0AB EQ PUSH2 0x14B JUMPI PUSH2 0x88 JUMP JUMPDEST DUP1 PUSH4 0x9BD5A60 EQ PUSH2 0x8D JUMPI DUP1 PUSH4 0x61D9E726 EQ PUSH2 0xAB JUMPI DUP1 PUSH4 0x73D4A13A EQ PUSH2 0xC9 JUMPI DUP1 PUSH4 0x7781DEBA EQ PUSH2 0xE7 JUMPI JUMPDEST PUSH1 0x0 DUP1 REVERT JUMPDEST PUSH2 0x95 PUSH2 0x169 JUMP JUMPDEST PUSH1 0x40 MLOAD DUP1 DUP3 DUP2 MSTORE PUSH1 0x20 ADD SWAP2 POP POP PUSH1 0x40 MLOAD DUP1 SWAP2 SUB SWAP1 RETURN JUMPDEST PUSH2 0xB3 PUSH2 0x16F JUMP JUMPDEST PUSH1 0x40 MLOAD DUP1 DUP3 DUP2 MSTORE PUSH1 0x20 ADD SWAP2 POP POP PUSH1 0x40 MLOAD DUP1 SWAP2 SUB SWAP1 RETURN JUMPDEST PUSH2 0xD1 PUSH2 0x175 JUMP JUMPDEST PUSH1 0x40 MLOAD DUP1 DUP3 DUP2 MSTORE PUSH1 0x20 ADD SWAP2 POP POP PUSH1 0x40 MLOAD DUP1 SWAP2 SUB SWAP1 RETURN JUMPDEST PUSH2 0xEF PUSH2 0x17B JUMP JUMPDEST PUSH1 0x40 MLOAD DUP1 DUP3 DUP2 MSTORE PUSH1 0x20 ADD SWAP2 POP POP PUSH1 0x40 MLOAD DUP1 SWAP2 SUB SWAP1 RETURN JUMPDEST PUSH2 0x10D PUSH2 0x181 JUMP JUMPDEST STOP JUMPDEST PUSH2 0x117 PUSH2 0x241 JUMP JUMPDEST PUSH1 0x40 MLOAD DUP1 DUP3 DUP2 MSTORE PUSH1 0x20 ADD SWAP2 POP POP PUSH1 0x40 MLOAD DUP1 SWAP2 SUB SWAP1 RETURN JUMPDEST PUSH2 0x135 PUSH2 0x247 JUMP JUMPDEST PUSH1 0x40 MLOAD DUP1 DUP3 DUP2 MSTORE PUSH1 0x20 ADD SWAP2 POP POP PUSH1 0x40 MLOAD DUP1 SWAP2 SUB SWAP1 RETURN JUMPDEST PUSH2 0x153 PUSH2 0x24D JUMP JUMPDEST PUSH1 0x40 MLOAD DUP1 DUP3 DUP2 MSTORE PUSH1 0x20 ADD SWAP2 POP POP PUSH1 0x40 MLOAD DUP1 SWAP2 SUB SWAP1 RETURN JUMPDEST PUSH1 0x1 SLOAD DUP2 JUMP JUMPDEST PUSH1 0x6 SLOAD DUP2 JUMP JUMPDEST PUSH1 0x0 SLOAD DUP2 JUMP JUMPDEST PUSH1 0x2 SLOAD DUP2 JUMP JUMPDEST PUSH32 0xFA8871E962875D078135F1C5B27B0F184AB6F4DFF8641DD81032226EA0AE9E8C PUSH1 0x1 DUP2 SWAP1 SSTORE POP PUSH1 0x2 PUSH1 0x40 MLOAD DUP1 DUP1 PUSH32 0x426C6F636B203200000000000000000000000000000000000000000000000000 DUP2 MSTORE POP PUSH1 0x7 ADD SWAP1 POP PUSH1 0x20 PUSH1 0x40 MLOAD DUP1 DUP4 SUB DUP2 DUP6 GAS STATICCALL ISZERO DUP1 ISZERO PUSH2 0x1F5 JUMPI RETURNDATASIZE PUSH1 0x0 DUP1 RETURNDATACOPY RETURNDATASIZE PUSH1 0x0 REVERT JUMPDEST POP POP POP PUSH1 0x40 MLOAD RETURNDATASIZE PUSH1 0x20 DUP2 LT ISZERO PUSH2 0x20A JUMPI PUSH1 0x0 DUP1 REVERT JUMPDEST DUP2 ADD SWAP1 DUP1 DUP1 MLOAD SWAP1 PUSH1 0x20 ADD SWAP1 SWAP3 SWAP2 SWAP1 POP POP POP PUSH1 0x2 DUP2 SWAP1 SSTORE POP PUSH1 0x0 BLOCKHASH PUSH1 0x3 DUP2 SWAP1 SSTORE POP DIFFICULTY PUSH1 0x0 DUP2 SWAP1 SSTORE POP NUMBER PUSH1 0x5 DUP2 SWAP1 SSTORE POP GASLIMIT PUSH1 0x6 DUP2 SWAP1 SSTORE POP JUMP JUMPDEST PUSH1 0x3 SLOAD DUP2 JUMP JUMPDEST PUSH1 0x4 SLOAD DUP2 JUMP JUMPDEST PUSH1 0x5 SLOAD DUP2 JUMP INVALID LOG2 PUSH5 0x6970667358 0x22 SLT KECCAK256 0x2E 0xF PUSH31 0x78901A98FE33BDA3058843868F0038B48B719FE06289F6F22F86E0FC1B6473 PUSH16 0x6C634300060C00330000000000000000 "
				},
				"gasEstimates": {
					"creation": {
						"codeDepositCost": "129800",
						"executionCost": "177",
						"totalCost": "129977"
					},
					"external": {
						"block_hash()": "1027",
						"chkhash()": "infinite",
						"data()": "1050",
						"data2()": "1049",
						"data3()": "1071",
						"data4()": "1028",
						"hash()": "1006",
						"hash256()": "1072"
					}
				},
				"methodIdentifiers": {
					"block_hash()": "c29bde8c",
					"chkhash()": "a641a28d",
					"data()": "73d4a13a",
					"data2()": "e3a7fd75",
					"data3()": "fc26b0ab",
					"data4()": "61d9e726",
					"hash()": "09bd5a60",
					"hash256()": "7781deba"
				}
			},
			"storageLayout": {
				"storage": [
					{
						"astId": 3,
						"contract": "class-work/globalVariables.sol:globalVariables",
						"label": "data",
						"offset": 0,
						"slot": "0",
						"type": "t_uint256"
					},
					{
						"astId": 5,
						"contract": "class-work/globalVariables.sol:globalVariables",
						"label": "hash",
						"offset": 0,
						"slot": "1",
						"type": "t_bytes32"
					},
					{
						"astId": 7,
						"contract": "class-work/globalVariables.sol:globalVariables",
						"label": "hash256",
						"offset": 0,
						"slot": "2",
						"type": "t_bytes32"
					},
					{
						"astId": 9,
						"contract": "class-work/globalVariables.sol:globalVariables",
						"label": "block_hash",
						"offset": 0,
						"slot": "3",
						"type": "t_bytes32"
					},
					{
						"astId": 11,
						"contract": "class-work/globalVariables.sol:globalVariables",
						"label": "data2",
						"offset": 0,
						"slot": "4",
						"type": "t_uint256"
					},
					{
						"astId": 13,
						"contract": "class-work/globalVariables.sol:globalVariables",
						"label": "data3",
						"offset": 0,
						"slot": "5",
						"type": "t_uint256"
					},
					{
						"astId": 15,
						"contract": "class-work/globalVariables.sol:globalVariables",
						"label": "data4",
						"offset": 0,
						"slot": "6",
						"type": "t_uint256"
					}
				],
				"types": {
					"t_bytes32": {
						"encoding": "inplace",
						"label": "bytes32",
						"numberOfBytes": "32"
					},
					"t_uint256": {
						"encoding": "inplace",
						"label": "uint256",
						"numberOfBytes": "32"
					}
				}
			},
			"userdoc": {
				"kind": "user",
				"methods": {},
				"version": 1
			}
		}
	}
}