{
	"capstone/HospitalContract.sol": {
		"HospitalContract": {
			"abi": [
				{
					"inputs": [],
					"stateMutability": "nonpayable",
					"type": "constructor"
				},
				{
					"anonymous": false,
					"inputs": [
						{
							"indexed": true,
							"internalType": "string",
							"name": "_name",
							"type": "string"
						},
						{
							"indexed": false,
							"internalType": "uint256",
							"name": "_doctorId",
							"type": "uint256"
						}
					],
					"name": "newDoctorEvent",
					"type": "event"
				},
				{
					"anonymous": false,
					"inputs": [
						{
							"indexed": true,
							"internalType": "string",
							"name": "_name",
							"type": "string"
						},
						{
							"indexed": false,
							"internalType": "uint256",
							"name": "_patientId",
							"type": "uint256"
						}
					],
					"name": "newPatientEvent",
					"type": "event"
				},
				{
					"inputs": [
						{
							"internalType": "uint256",
							"name": "_id",
							"type": "uint256"
						},
						{
							"internalType": "string",
							"name": "_name",
							"type": "string"
						},
						{
							"internalType": "string",
							"name": "_expiryDate",
							"type": "string"
						},
						{
							"internalType": "uint256",
							"name": "_dose",
							"type": "uint256"
						},
						{
							"internalType": "uint256",
							"name": "_price",
							"type": "uint256"
						}
					],
					"name": "addMedicine",
					"outputs": [],
					"stateMutability": "nonpayable",
					"type": "function"
				},
				{
					"inputs": [
						{
							"internalType": "string",
							"name": "_disease",
							"type": "string"
						}
					],
					"name": "addNewDisease",
					"outputs": [],
					"stateMutability": "nonpayable",
					"type": "function"
				},
				{
					"inputs": [
						{
							"internalType": "uint256",
							"name": "_id",
							"type": "uint256"
						},
						{
							"internalType": "address",
							"name": "_patient",
							"type": "address"
						}
					],
					"name": "prescribeMedicine",
					"outputs": [],
					"stateMutability": "nonpayable",
					"type": "function"
				},
				{
					"inputs": [
						{
							"internalType": "string",
							"name": "_name",
							"type": "string"
						},
						{
							"internalType": "string",
							"name": "_qualification",
							"type": "string"
						},
						{
							"internalType": "string",
							"name": "_workPlace",
							"type": "string"
						}
					],
					"name": "registerDoctor",
					"outputs": [],
					"stateMutability": "nonpayable",
					"type": "function"
				},
				{
					"inputs": [
						{
							"internalType": "string",
							"name": "_name",
							"type": "string"
						},
						{
							"internalType": "uint32",
							"name": "_age",
							"type": "uint32"
						}
					],
					"name": "registerPatient",
					"outputs": [],
					"stateMutability": "nonpayable",
					"type": "function"
				},
				{
					"inputs": [
						{
							"internalType": "uint256",
							"name": "_age",
							"type": "uint256"
						}
					],
					"name": "updateAge",
					"outputs": [],
					"stateMutability": "nonpayable",
					"type": "function"
				},
				{
					"inputs": [
						{
							"internalType": "uint256",
							"name": "_id",
							"type": "uint256"
						}
					],
					"name": "viewDoctorById",
					"outputs": [
						{
							"internalType": "uint256",
							"name": "id",
							"type": "uint256"
						},
						{
							"internalType": "string",
							"name": "name",
							"type": "string"
						},
						{
							"internalType": "string",
							"name": "qualification",
							"type": "string"
						},
						{
							"internalType": "string",
							"name": "add",
							"type": "string"
						}
					],
					"stateMutability": "view",
					"type": "function"
				},
				{
					"inputs": [
						{
							"internalType": "uint256",
							"name": "_id",
							"type": "uint256"
						}
					],
					"name": "viewMedicine",
					"outputs": [
						{
							"internalType": "string",
							"name": "name",
							"type": "string"
						},
						{
							"internalType": "string",
							"name": "expiryDate",
							"type": "string"
						},
						{
							"internalType": "uint256",
							"name": "dose",
							"type": "uint256"
						},
						{
							"internalType": "uint256",
							"name": "price",
							"type": "uint256"
						}
					],
					"stateMutability": "view",
					"type": "function"
				},
				{
					"inputs": [
						{
							"internalType": "uint256",
							"name": "_id",
							"type": "uint256"
						}
					],
					"name": "viewPatientById",
					"outputs": [
						{
							"internalType": "uint256",
							"name": "id",
							"type": "uint256"
						},
						{
							"internalType": "uint256",
							"name": "age",
							"type": "uint256"
						},
						{
							"internalType": "string",
							"name": "name",
							"type": "string"
						},
						{
							"internalType": "string",
							"name": "disease",
							"type": "string"
						}
					],
					"stateMutability": "view",
					"type": "function"
				},
				{
					"inputs": [
						{
							"internalType": "address",
							"name": "_patient",
							"type": "address"
						}
					],
					"name": "viewPrescribedMedicines",
					"outputs": [
						{
							"internalType": "string",
							"name": "ids",
							"type": "string"
						}
					],
					"stateMutability": "view",
					"type": "function"
				},
				{
					"inputs": [],
					"name": "viewRecord",
					"outputs": [
						{
							"internalType": "uint256",
							"name": "id",
							"type": "uint256"
						},
						{
							"internalType": "uint256",
							"name": "age",
							"type": "uint256"
						},
						{
							"internalType": "string",
							"name": "name",
							"type": "string"
						},
						{
							"internalType": "string",
							"name": "disease",
							"type": "string"
						}
					],
					"stateMutability": "view",
					"type": "function"
				}
			],
			"devdoc": {
				"kind": "dev",
				"methods": {
					"addMedicine(uint256,string,string,uint256,uint256)": {
						"params": {
							"_dose": "Dose prescribed to the patient",
							"_expiryDate": "ExpiryDate of the medicine",
							"_id": "Id of the medicine",
							"_name": "name of the medicine",
							"_price": "Price of the medicine "
						}
					},
					"addNewDisease(string)": {
						"params": {
							"_disease": "Name of the disease"
						}
					},
					"prescribeMedicine(uint256,address)": {
						"params": {
							"_id": "Medicine Id",
							"_patient": "address of the patient"
						}
					},
					"registerDoctor(string,string,string)": {
						"params": {
							"_name": "Name of the doctor",
							"_qualification": "Which degree he/she holds as a doctor",
							"_workPlace": "Address of his/her hospital/clinic"
						}
					},
					"registerPatient(string,uint32)": {
						"params": {
							"_age": "Age of user",
							"_name": "Name of the user"
						}
					},
					"updateAge(uint256)": {
						"params": {
							"_age": "New age of the patient"
						}
					},
					"viewDoctorById(uint256)": {
						"params": {
							"_id": "ID of the doctor"
						},
						"returns": {
							"add": "Address of his/her hospital/clinic",
							"id": "ID of the doctor",
							"name": "Name of the doctor",
							"qualification": "Name of degree he/she holds as a doctor"
						}
					},
					"viewMedicine(uint256)": {
						"params": {
							"_id": "Id of the medicine"
						},
						"returns": {
							"dose": "Dose prescribed for the medicine",
							"expiryDate": "Expiry date of the medicine",
							"name": "Name of the medicine",
							"price": "Price of the medicine"
						}
					},
					"viewPatientById(uint256)": {
						"params": {
							"_id": "ID of the patient"
						},
						"returns": {
							"age": "Age of the patient",
							"disease": "All the diseases of the patient",
							"id": "ID of the patient",
							"name": "Name of the patient"
						}
					},
					"viewPrescribedMedicines(address)": {
						"details": "View prescribed medicines to the patient ",
						"params": {
							"_patient": "address of the patient"
						},
						"returns": {
							"ids": "list of medicine id's"
						}
					},
					"viewRecord()": {
						"returns": {
							"age": "Age of the patient",
							"disease": "All the diseases of the patient",
							"id": "Id of the patient",
							"name": "Name of the patient"
						}
					}
				},
				"version": 1
			},
			"evm": {
				"assembly": "    /* \"capstone/HospitalContract.sol\":56:9363  contract HospitalContract {... */\n  mstore(0x40, 0x80)\n    /* \"capstone/HospitalContract.sol\":911:967  constructor() public {... */\n  callvalue\n  dup1\n  iszero\n  tag_1\n  jumpi\n  0x00\n  dup1\n  revert\ntag_1:\n  pop\n    /* \"capstone/HospitalContract.sol\":950:960  msg.sender */\n  caller\n    /* \"capstone/HospitalContract.sol\":942:947  Owner */\n  0x00\n  dup1\n    /* \"capstone/HospitalContract.sol\":942:960  Owner = msg.sender */\n  0x0100\n  exp\n  dup2\n  sload\n  dup2\n  0xffffffffffffffffffffffffffffffffffffffff\n  mul\n  not\n  and\n  swap1\n  dup4\n  0xffffffffffffffffffffffffffffffffffffffff\n  and\n  mul\n  or\n  swap1\n  sstore\n  pop\n    /* \"capstone/HospitalContract.sol\":56:9363  contract HospitalContract {... */\n  dataSize(sub_0)\n  dup1\n  dataOffset(sub_0)\n  0x00\n  codecopy\n  0x00\n  return\nstop\n\nsub_0: assembly {\n        /* \"capstone/HospitalContract.sol\":56:9363  contract HospitalContract {... */\n      mstore(0x40, 0x80)\n      callvalue\n      dup1\n      iszero\n      tag_1\n      jumpi\n      0x00\n      dup1\n      revert\n    tag_1:\n      pop\n      jumpi(tag_2, lt(calldatasize, 0x04))\n      shr(0xe0, calldataload(0x00))\n      dup1\n      0xd36000ed\n      gt\n      tag_14\n      jumpi\n      dup1\n      0xd36000ed\n      eq\n      tag_8\n      jumpi\n      dup1\n      0xdcd0c2b2\n      eq\n      tag_9\n      jumpi\n      dup1\n      0xddd865e8\n      eq\n      tag_10\n      jumpi\n      dup1\n      0xddfe2e87\n      eq\n      tag_11\n      jumpi\n      dup1\n      0xf01319ed\n      eq\n      tag_12\n      jumpi\n      dup1\n      0xf775f6f6\n      eq\n      tag_13\n      jumpi\n      jump(tag_2)\n    tag_14:\n      dup1\n      0x3e27f719\n      eq\n      tag_3\n      jumpi\n      dup1\n      0x50c7a912\n      eq\n      tag_4\n      jumpi\n      dup1\n      0x7d625c07\n      eq\n      tag_5\n      jumpi\n      dup1\n      0x8609acde\n      eq\n      tag_6\n      jumpi\n      dup1\n      0x9acedf89\n      eq\n      tag_7\n      jumpi\n    tag_2:\n      0x00\n      dup1\n      revert\n        /* \"capstone/HospitalContract.sol\":4777:5164  function addMedicine(... */\n    tag_3:\n      tag_15\n      0x04\n      dup1\n      calldatasize\n      sub\n      0xa0\n      dup2\n      lt\n      iszero\n      tag_16\n      jumpi\n      0x00\n      dup1\n      revert\n    tag_16:\n      dup2\n      add\n      swap1\n      dup1\n      dup1\n      calldataload\n      swap1\n      0x20\n      add\n      swap1\n      swap3\n      swap2\n      swap1\n      dup1\n      calldataload\n      swap1\n      0x20\n      add\n      swap1\n      0x0100000000\n      dup2\n      gt\n      iszero\n      tag_17\n      jumpi\n      0x00\n      dup1\n      revert\n    tag_17:\n      dup3\n      add\n      dup4\n      0x20\n      dup3\n      add\n      gt\n      iszero\n      tag_18\n      jumpi\n      0x00\n      dup1\n      revert\n    tag_18:\n      dup1\n      calldataload\n      swap1\n      0x20\n      add\n      swap2\n      dup5\n      0x01\n      dup4\n      mul\n      dup5\n      add\n      gt\n      0x0100000000\n      dup4\n      gt\n      or\n      iszero\n      tag_19\n      jumpi\n      0x00\n      dup1\n      revert\n    tag_19:\n      swap2\n      swap1\n      dup1\n      dup1\n      0x1f\n      add\n      0x20\n      dup1\n      swap2\n      div\n      mul\n      0x20\n      add\n      mload(0x40)\n      swap1\n      dup2\n      add\n      0x40\n      mstore\n      dup1\n      swap4\n      swap3\n      swap2\n      swap1\n      dup2\n      dup2\n      mstore\n      0x20\n      add\n      dup4\n      dup4\n      dup1\n      dup3\n      dup5\n      calldatacopy\n      0x00\n      dup2\n      dup5\n      add\n      mstore\n      not(0x1f)\n      0x1f\n      dup3\n      add\n      and\n      swap1\n      pop\n      dup1\n      dup4\n      add\n      swap3\n      pop\n      pop\n      pop\n      pop\n      pop\n      pop\n      pop\n      swap2\n      swap3\n      swap2\n      swap3\n      swap1\n      dup1\n      calldataload\n      swap1\n      0x20\n      add\n      swap1\n      0x0100000000\n      dup2\n      gt\n      iszero\n      tag_20\n      jumpi\n      0x00\n      dup1\n      revert\n    tag_20:\n      dup3\n      add\n      dup4\n      0x20\n      dup3\n      add\n      gt\n      iszero\n      tag_21\n      jumpi\n      0x00\n      dup1\n      revert\n    tag_21:\n      dup1\n      calldataload\n      swap1\n      0x20\n      add\n      swap2\n      dup5\n      0x01\n      dup4\n      mul\n      dup5\n      add\n      gt\n      0x0100000000\n      dup4\n      gt\n      or\n      iszero\n      tag_22\n      jumpi\n      0x00\n      dup1\n      revert\n    tag_22:\n      swap2\n      swap1\n      dup1\n      dup1\n      0x1f\n      add\n      0x20\n      dup1\n      swap2\n      div\n      mul\n      0x20\n      add\n      mload(0x40)\n      swap1\n      dup2\n      add\n      0x40\n      mstore\n      dup1\n      swap4\n      swap3\n      swap2\n      swap1\n      dup2\n      dup2\n      mstore\n      0x20\n      add\n      dup4\n      dup4\n      dup1\n      dup3\n      dup5\n      calldatacopy\n      0x00\n      dup2\n      dup5\n      add\n      mstore\n      not(0x1f)\n      0x1f\n      dup3\n      add\n      and\n      swap1\n      pop\n      dup1\n      dup4\n      add\n      swap3\n      pop\n      pop\n      pop\n      pop\n      pop\n      pop\n      pop\n      swap2\n      swap3\n      swap2\n      swap3\n      swap1\n      dup1\n      calldataload\n      swap1\n      0x20\n      add\n      swap1\n      swap3\n      swap2\n      swap1\n      dup1\n      calldataload\n      swap1\n      0x20\n      add\n      swap1\n      swap3\n      swap2\n      swap1\n      pop\n      pop\n      pop\n      tag_23\n      jump\t// in\n    tag_15:\n      stop\n        /* \"capstone/HospitalContract.sol\":3017:3499  function registerDoctor(... */\n    tag_4:\n      tag_24\n      0x04\n      dup1\n      calldatasize\n      sub\n      0x60\n      dup2\n      lt\n      iszero\n      tag_25\n      jumpi\n      0x00\n      dup1\n      revert\n    tag_25:\n      dup2\n      add\n      swap1\n      dup1\n      dup1\n      calldataload\n      swap1\n      0x20\n      add\n      swap1\n      0x0100000000\n      dup2\n      gt\n      iszero\n      tag_26\n      jumpi\n      0x00\n      dup1\n      revert\n    tag_26:\n      dup3\n      add\n      dup4\n      0x20\n      dup3\n      add\n      gt\n      iszero\n      tag_27\n      jumpi\n      0x00\n      dup1\n      revert\n    tag_27:\n      dup1\n      calldataload\n      swap1\n      0x20\n      add\n      swap2\n      dup5\n      0x01\n      dup4\n      mul\n      dup5\n      add\n      gt\n      0x0100000000\n      dup4\n      gt\n      or\n      iszero\n      tag_28\n      jumpi\n      0x00\n      dup1\n      revert\n    tag_28:\n      swap2\n      swap1\n      dup1\n      dup1\n      0x1f\n      add\n      0x20\n      dup1\n      swap2\n      div\n      mul\n      0x20\n      add\n      mload(0x40)\n      swap1\n      dup2\n      add\n      0x40\n      mstore\n      dup1\n      swap4\n      swap3\n      swap2\n      swap1\n      dup2\n      dup2\n      mstore\n      0x20\n      add\n      dup4\n      dup4\n      dup1\n      dup3\n      dup5\n      calldatacopy\n      0x00\n      dup2\n      dup5\n      add\n      mstore\n      not(0x1f)\n      0x1f\n      dup3\n      add\n      and\n      swap1\n      pop\n      dup1\n      dup4\n      add\n      swap3\n      pop\n      pop\n      pop\n      pop\n      pop\n      pop\n      pop\n      swap2\n      swap3\n      swap2\n      swap3\n      swap1\n      dup1\n      calldataload\n      swap1\n      0x20\n      add\n      swap1\n      0x0100000000\n      dup2\n      gt\n      iszero\n      tag_29\n      jumpi\n      0x00\n      dup1\n      revert\n    tag_29:\n      dup3\n      add\n      dup4\n      0x20\n      dup3\n      add\n      gt\n      iszero\n      tag_30\n      jumpi\n      0x00\n      dup1\n      revert\n    tag_30:\n      dup1\n      calldataload\n      swap1\n      0x20\n      add\n      swap2\n      dup5\n      0x01\n      dup4\n      mul\n      dup5\n      add\n      gt\n      0x0100000000\n      dup4\n      gt\n      or\n      iszero\n      tag_31\n      jumpi\n      0x00\n      dup1\n      revert\n    tag_31:\n      swap2\n      swap1\n      dup1\n      dup1\n      0x1f\n      add\n      0x20\n      dup1\n      swap2\n      div\n      mul\n      0x20\n      add\n      mload(0x40)\n      swap1\n      dup2\n      add\n      0x40\n      mstore\n      dup1\n      swap4\n      swap3\n      swap2\n      swap1\n      dup2\n      dup2\n      mstore\n      0x20\n      add\n      dup4\n      dup4\n      dup1\n      dup3\n      dup5\n      calldatacopy\n      0x00\n      dup2\n      dup5\n      add\n      mstore\n      not(0x1f)\n      0x1f\n      dup3\n      add\n      and\n      swap1\n      pop\n      dup1\n      dup4\n      add\n      swap3\n      pop\n      pop\n      pop\n      pop\n      pop\n      pop\n      pop\n      swap2\n      swap3\n      swap2\n      swap3\n      swap1\n      dup1\n      calldataload\n      swap1\n      0x20\n      add\n      swap1\n      0x0100000000\n      dup2\n      gt\n      iszero\n      tag_32\n      jumpi\n      0x00\n      dup1\n      revert\n    tag_32:\n      dup3\n      add\n      dup4\n      0x20\n      dup3\n      add\n      gt\n      iszero\n      tag_33\n      jumpi\n      0x00\n      dup1\n      revert\n    tag_33:\n      dup1\n      calldataload\n      swap1\n      0x20\n      add\n      swap2\n      dup5\n      0x01\n      dup4\n      mul\n      dup5\n      add\n      gt\n      0x0100000000\n      dup4\n      gt\n      or\n      iszero\n      tag_34\n      jumpi\n      0x00\n      dup1\n      revert\n    tag_34:\n      swap2\n      swap1\n      dup1\n      dup1\n      0x1f\n      add\n      0x20\n      dup1\n      swap2\n      div\n      mul\n      0x20\n      add\n      mload(0x40)\n      swap1\n      dup2\n      add\n      0x40\n      mstore\n      dup1\n      swap4\n      swap3\n      swap2\n      swap1\n      dup2\n      dup2\n      mstore\n      0x20\n      add\n      dup4\n      dup4\n      dup1\n      dup3\n      dup5\n      calldatacopy\n      0x00\n      dup2\n      dup5\n      add\n      mstore\n      not(0x1f)\n      0x1f\n      dup3\n      add\n      and\n      swap1\n      pop\n      dup1\n      dup4\n      add\n      swap3\n      pop\n      pop\n      pop\n      pop\n      pop\n      pop\n      pop\n      swap2\n      swap3\n      swap2\n      swap3\n      swap1\n      pop\n      pop\n      pop\n      tag_35\n      jump\t// in\n    tag_24:\n      stop\n        /* \"capstone/HospitalContract.sol\":5683:5830  function updateAge(uint256 _age) public {... */\n    tag_5:\n      tag_36\n      0x04\n      dup1\n      calldatasize\n      sub\n      0x20\n      dup2\n      lt\n      iszero\n      tag_37\n      jumpi\n      0x00\n      dup1\n      revert\n    tag_37:\n      dup2\n      add\n      swap1\n      dup1\n      dup1\n      calldataload\n      swap1\n      0x20\n      add\n      swap1\n      swap3\n      swap2\n      swap1\n      pop\n      pop\n      pop\n      tag_38\n      jump\t// in\n    tag_36:\n      stop\n        /* \"capstone/HospitalContract.sol\":8976:9361  function viewDoctorById(uint256 _id)... */\n    tag_6:\n      tag_39\n      0x04\n      dup1\n      calldatasize\n      sub\n      0x20\n      dup2\n      lt\n      iszero\n      tag_40\n      jumpi\n      0x00\n      dup1\n      revert\n    tag_40:\n      dup2\n      add\n      swap1\n      dup1\n      dup1\n      calldataload\n      swap1\n      0x20\n      add\n      swap1\n      swap3\n      swap2\n      swap1\n      pop\n      pop\n      pop\n      tag_41\n      jump\t// in\n    tag_39:\n      mload(0x40)\n      dup1\n      dup6\n      dup2\n      mstore\n      0x20\n      add\n      dup1\n      0x20\n      add\n      dup1\n      0x20\n      add\n      dup1\n      0x20\n      add\n      dup5\n      dup2\n      sub\n      dup5\n      mstore\n      dup8\n      dup2\n      dup2\n      mload\n      dup2\n      mstore\n      0x20\n      add\n      swap2\n      pop\n      dup1\n      mload\n      swap1\n      0x20\n      add\n      swap1\n      dup1\n      dup4\n      dup4\n      0x00\n    tag_42:\n      dup4\n      dup2\n      lt\n      iszero\n      tag_44\n      jumpi\n      dup1\n      dup3\n      add\n      mload\n      dup2\n      dup5\n      add\n      mstore\n      0x20\n      dup2\n      add\n      swap1\n      pop\n      jump(tag_42)\n    tag_44:\n      pop\n      pop\n      pop\n      pop\n      swap1\n      pop\n      swap1\n      dup2\n      add\n      swap1\n      0x1f\n      and\n      dup1\n      iszero\n      tag_45\n      jumpi\n      dup1\n      dup3\n      sub\n      dup1\n      mload\n      0x01\n      dup4\n      0x20\n      sub\n      0x0100\n      exp\n      sub\n      not\n      and\n      dup2\n      mstore\n      0x20\n      add\n      swap2\n      pop\n    tag_45:\n      pop\n      dup5\n      dup2\n      sub\n      dup4\n      mstore\n      dup7\n      dup2\n      dup2\n      mload\n      dup2\n      mstore\n      0x20\n      add\n      swap2\n      pop\n      dup1\n      mload\n      swap1\n      0x20\n      add\n      swap1\n      dup1\n      dup4\n      dup4\n      0x00\n    tag_46:\n      dup4\n      dup2\n      lt\n      iszero\n      tag_48\n      jumpi\n      dup1\n      dup3\n      add\n      mload\n      dup2\n      dup5\n      add\n      mstore\n      0x20\n      dup2\n      add\n      swap1\n      pop\n      jump(tag_46)\n    tag_48:\n      pop\n      pop\n      pop\n      pop\n      swap1\n      pop\n      swap1\n      dup2\n      add\n      swap1\n      0x1f\n      and\n      dup1\n      iszero\n      tag_49\n      jumpi\n      dup1\n      dup3\n      sub\n      dup1\n      mload\n      0x01\n      dup4\n      0x20\n      sub\n      0x0100\n      exp\n      sub\n      not\n      and\n      dup2\n      mstore\n      0x20\n      add\n      swap2\n      pop\n    tag_49:\n      pop\n      dup5\n      dup2\n      sub\n      dup3\n      mstore\n      dup6\n      dup2\n      dup2\n      mload\n      dup2\n      mstore\n      0x20\n      add\n      swap2\n      pop\n      dup1\n      mload\n      swap1\n      0x20\n      add\n      swap1\n      dup1\n      dup4\n      dup4\n      0x00\n    tag_50:\n      dup4\n      dup2\n      lt\n      iszero\n      tag_52\n      jumpi\n      dup1\n      dup3\n      add\n      mload\n      dup2\n      dup5\n      add\n      mstore\n      0x20\n      dup2\n      add\n      swap1\n      pop\n      jump(tag_50)\n    tag_52:\n      pop\n      pop\n      pop\n      pop\n      swap1\n      pop\n      swap1\n      dup2\n      add\n      swap1\n      0x1f\n      and\n      dup1\n      iszero\n      tag_53\n      jumpi\n      dup1\n      dup3\n      sub\n      dup1\n      mload\n      0x01\n      dup4\n      0x20\n      sub\n      0x0100\n      exp\n      sub\n      not\n      and\n      dup2\n      mstore\n      0x20\n      add\n      swap2\n      pop\n    tag_53:\n      pop\n      swap8\n      pop\n      pop\n      pop\n      pop\n      pop\n      pop\n      pop\n      pop\n      mload(0x40)\n      dup1\n      swap2\n      sub\n      swap1\n      return\n        /* \"capstone/HospitalContract.sol\":3692:4157  function registerPatient(string memory _name, uint32 _age) public {... */\n    tag_7:\n      tag_54\n      0x04\n      dup1\n      calldatasize\n      sub\n      0x40\n      dup2\n      lt\n      iszero\n      tag_55\n      jumpi\n      0x00\n      dup1\n      revert\n    tag_55:\n      dup2\n      add\n      swap1\n      dup1\n      dup1\n      calldataload\n      swap1\n      0x20\n      add\n      swap1\n      0x0100000000\n      dup2\n      gt\n      iszero\n      tag_56\n      jumpi\n      0x00\n      dup1\n      revert\n    tag_56:\n      dup3\n      add\n      dup4\n      0x20\n      dup3\n      add\n      gt\n      iszero\n      tag_57\n      jumpi\n      0x00\n      dup1\n      revert\n    tag_57:\n      dup1\n      calldataload\n      swap1\n      0x20\n      add\n      swap2\n      dup5\n      0x01\n      dup4\n      mul\n      dup5\n      add\n      gt\n      0x0100000000\n      dup4\n      gt\n      or\n      iszero\n      tag_58\n      jumpi\n      0x00\n      dup1\n      revert\n    tag_58:\n      swap2\n      swap1\n      dup1\n      dup1\n      0x1f\n      add\n      0x20\n      dup1\n      swap2\n      div\n      mul\n      0x20\n      add\n      mload(0x40)\n      swap1\n      dup2\n      add\n      0x40\n      mstore\n      dup1\n      swap4\n      swap3\n      swap2\n      swap1\n      dup2\n      dup2\n      mstore\n      0x20\n      add\n      dup4\n      dup4\n      dup1\n      dup3\n      dup5\n      calldatacopy\n      0x00\n      dup2\n      dup5\n      add\n      mstore\n      not(0x1f)\n      0x1f\n      dup3\n      add\n      and\n      swap1\n      pop\n      dup1\n      dup4\n      add\n      swap3\n      pop\n      pop\n      pop\n      pop\n      pop\n      pop\n      pop\n      swap2\n      swap3\n      swap2\n      swap3\n      swap1\n      dup1\n      calldataload\n      0xffffffff\n      and\n      swap1\n      0x20\n      add\n      swap1\n      swap3\n      swap2\n      swap1\n      pop\n      pop\n      pop\n      tag_59\n      jump\t// in\n    tag_54:\n      stop\n        /* \"capstone/HospitalContract.sol\":8326:8635  function viewPrescribedMedicines(address _patient)... */\n    tag_8:\n      tag_60\n      0x04\n      dup1\n      calldatasize\n      sub\n      0x20\n      dup2\n      lt\n      iszero\n      tag_61\n      jumpi\n      0x00\n      dup1\n      revert\n    tag_61:\n      dup2\n      add\n      swap1\n      dup1\n      dup1\n      calldataload\n      0xffffffffffffffffffffffffffffffffffffffff\n      and\n      swap1\n      0x20\n      add\n      swap1\n      swap3\n      swap2\n      swap1\n      pop\n      pop\n      pop\n      tag_62\n      jump\t// in\n    tag_60:\n      mload(0x40)\n      dup1\n      dup1\n      0x20\n      add\n      dup3\n      dup2\n      sub\n      dup3\n      mstore\n      dup4\n      dup2\n      dup2\n      mload\n      dup2\n      mstore\n      0x20\n      add\n      swap2\n      pop\n      dup1\n      mload\n      swap1\n      0x20\n      add\n      swap1\n      dup1\n      dup4\n      dup4\n      0x00\n    tag_63:\n      dup4\n      dup2\n      lt\n      iszero\n      tag_65\n      jumpi\n      dup1\n      dup3\n      add\n      mload\n      dup2\n      dup5\n      add\n      mstore\n      0x20\n      dup2\n      add\n      swap1\n      pop\n      jump(tag_63)\n    tag_65:\n      pop\n      pop\n      pop\n      pop\n      swap1\n      pop\n      swap1\n      dup2\n      add\n      swap1\n      0x1f\n      and\n      dup1\n      iszero\n      tag_66\n      jumpi\n      dup1\n      dup3\n      sub\n      dup1\n      mload\n      0x01\n      dup4\n      0x20\n      sub\n      0x0100\n      exp\n      sub\n      not\n      and\n      dup2\n      mstore\n      0x20\n      add\n      swap2\n      pop\n    tag_66:\n      pop\n      swap3\n      pop\n      pop\n      pop\n      mload(0x40)\n      dup1\n      swap2\n      sub\n      swap1\n      return\n        /* \"capstone/HospitalContract.sol\":5371:5529  function prescribeMedicine(uint256 _id, address _patient) public {... */\n    tag_9:\n      tag_67\n      0x04\n      dup1\n      calldatasize\n      sub\n      0x40\n      dup2\n      lt\n      iszero\n      tag_68\n      jumpi\n      0x00\n      dup1\n      revert\n    tag_68:\n      dup2\n      add\n      swap1\n      dup1\n      dup1\n      calldataload\n      swap1\n      0x20\n      add\n      swap1\n      swap3\n      swap2\n      swap1\n      dup1\n      calldataload\n      0xffffffffffffffffffffffffffffffffffffffff\n      and\n      swap1\n      0x20\n      add\n      swap1\n      swap3\n      swap2\n      swap1\n      pop\n      pop\n      pop\n      tag_69\n      jump\t// in\n    tag_67:\n      stop\n        /* \"capstone/HospitalContract.sol\":4311:4445  function addNewDisease(string memory _disease) public {... */\n    tag_10:\n      tag_70\n      0x04\n      dup1\n      calldatasize\n      sub\n      0x20\n      dup2\n      lt\n      iszero\n      tag_71\n      jumpi\n      0x00\n      dup1\n      revert\n    tag_71:\n      dup2\n      add\n      swap1\n      dup1\n      dup1\n      calldataload\n      swap1\n      0x20\n      add\n      swap1\n      0x0100000000\n      dup2\n      gt\n      iszero\n      tag_72\n      jumpi\n      0x00\n      dup1\n      revert\n    tag_72:\n      dup3\n      add\n      dup4\n      0x20\n      dup3\n      add\n      gt\n      iszero\n      tag_73\n      jumpi\n      0x00\n      dup1\n      revert\n    tag_73:\n      dup1\n      calldataload\n      swap1\n      0x20\n      add\n      swap2\n      dup5\n      0x01\n      dup4\n      mul\n      dup5\n      add\n      gt\n      0x0100000000\n      dup4\n      gt\n      or\n      iszero\n      tag_74\n      jumpi\n      0x00\n      dup1\n      revert\n    tag_74:\n      swap2\n      swap1\n      dup1\n      dup1\n      0x1f\n      add\n      0x20\n      dup1\n      swap2\n      div\n      mul\n      0x20\n      add\n      mload(0x40)\n      swap1\n      dup2\n      add\n      0x40\n      mstore\n      dup1\n      swap4\n      swap3\n      swap2\n      swap1\n      dup2\n      dup2\n      mstore\n      0x20\n      add\n      dup4\n      dup4\n      dup1\n      dup3\n      dup5\n      calldatacopy\n      0x00\n      dup2\n      dup5\n      add\n      mstore\n      not(0x1f)\n      0x1f\n      dup3\n      add\n      and\n      swap1\n      pop\n      dup1\n      dup4\n      add\n      swap3\n      pop\n      pop\n      pop\n      pop\n      pop\n      pop\n      pop\n      swap2\n      swap3\n      swap2\n      swap3\n      swap1\n      pop\n      pop\n      pop\n      tag_75\n      jump\t// in\n    tag_70:\n      stop\n        /* \"capstone/HospitalContract.sol\":6933:7308  function viewMedicine(uint256 _id)... */\n    tag_11:\n      tag_76\n      0x04\n      dup1\n      calldatasize\n      sub\n      0x20\n      dup2\n      lt\n      iszero\n      tag_77\n      jumpi\n      0x00\n      dup1\n      revert\n    tag_77:\n      dup2\n      add\n      swap1\n      dup1\n      dup1\n      calldataload\n      swap1\n      0x20\n      add\n      swap1\n      swap3\n      swap2\n      swap1\n      pop\n      pop\n      pop\n      tag_78\n      jump\t// in\n    tag_76:\n      mload(0x40)\n      dup1\n      dup1\n      0x20\n      add\n      dup1\n      0x20\n      add\n      dup6\n      dup2\n      mstore\n      0x20\n      add\n      dup5\n      dup2\n      mstore\n      0x20\n      add\n      dup4\n      dup2\n      sub\n      dup4\n      mstore\n      dup8\n      dup2\n      dup2\n      mload\n      dup2\n      mstore\n      0x20\n      add\n      swap2\n      pop\n      dup1\n      mload\n      swap1\n      0x20\n      add\n      swap1\n      dup1\n      dup4\n      dup4\n      0x00\n    tag_79:\n      dup4\n      dup2\n      lt\n      iszero\n      tag_81\n      jumpi\n      dup1\n      dup3\n      add\n      mload\n      dup2\n      dup5\n      add\n      mstore\n      0x20\n      dup2\n      add\n      swap1\n      pop\n      jump(tag_79)\n    tag_81:\n      pop\n      pop\n      pop\n      pop\n      swap1\n      pop\n      swap1\n      dup2\n      add\n      swap1\n      0x1f\n      and\n      dup1\n      iszero\n      tag_82\n      jumpi\n      dup1\n      dup3\n      sub\n      dup1\n      mload\n      0x01\n      dup4\n      0x20\n      sub\n      0x0100\n      exp\n      sub\n      not\n      and\n      dup2\n      mstore\n      0x20\n      add\n      swap2\n      pop\n    tag_82:\n      pop\n      dup4\n      dup2\n      sub\n      dup3\n      mstore\n      dup7\n      dup2\n      dup2\n      mload\n      dup2\n      mstore\n      0x20\n      add\n      swap2\n      pop\n      dup1\n      mload\n      swap1\n      0x20\n      add\n      swap1\n      dup1\n      dup4\n      dup4\n      0x00\n    tag_83:\n      dup4\n      dup2\n      lt\n      iszero\n      tag_85\n      jumpi\n      dup1\n      dup3\n      add\n      mload\n      dup2\n      dup5\n      add\n      mstore\n      0x20\n      dup2\n      add\n      swap1\n      pop\n      jump(tag_83)\n    tag_85:\n      pop\n      pop\n      pop\n      pop\n      swap1\n      pop\n      swap1\n      dup2\n      add\n      swap1\n      0x1f\n      and\n      dup1\n      iszero\n      tag_86\n      jumpi\n      dup1\n      dup3\n      sub\n      dup1\n      mload\n      0x01\n      dup4\n      0x20\n      sub\n      0x0100\n      exp\n      sub\n      not\n      and\n      dup2\n      mstore\n      0x20\n      add\n      swap2\n      pop\n    tag_86:\n      pop\n      swap7\n      pop\n      pop\n      pop\n      pop\n      pop\n      pop\n      pop\n      mload(0x40)\n      dup1\n      swap2\n      sub\n      swap1\n      return\n        /* \"capstone/HospitalContract.sol\":6126:6544  function viewRecord()... */\n    tag_12:\n      tag_87\n      tag_88\n      jump\t// in\n    tag_87:\n      mload(0x40)\n      dup1\n      dup6\n      dup2\n      mstore\n      0x20\n      add\n      dup5\n      dup2\n      mstore\n      0x20\n      add\n      dup1\n      0x20\n      add\n      dup1\n      0x20\n      add\n      dup4\n      dup2\n      sub\n      dup4\n      mstore\n      dup6\n      dup2\n      dup2\n      mload\n      dup2\n      mstore\n      0x20\n      add\n      swap2\n      pop\n      dup1\n      mload\n      swap1\n      0x20\n      add\n      swap1\n      dup1\n      dup4\n      dup4\n      0x00\n    tag_89:\n      dup4\n      dup2\n      lt\n      iszero\n      tag_91\n      jumpi\n      dup1\n      dup3\n      add\n      mload\n      dup2\n      dup5\n      add\n      mstore\n      0x20\n      dup2\n      add\n      swap1\n      pop\n      jump(tag_89)\n    tag_91:\n      pop\n      pop\n      pop\n      pop\n      swap1\n      pop\n      swap1\n      dup2\n      add\n      swap1\n      0x1f\n      and\n      dup1\n      iszero\n      tag_92\n      jumpi\n      dup1\n      dup3\n      sub\n      dup1\n      mload\n      0x01\n      dup4\n      0x20\n      sub\n      0x0100\n      exp\n      sub\n      not\n      and\n      dup2\n      mstore\n      0x20\n      add\n      swap2\n      pop\n    tag_92:\n      pop\n      dup4\n      dup2\n      sub\n      dup3\n      mstore\n      dup5\n      dup2\n      dup2\n      mload\n      dup2\n      mstore\n      0x20\n      add\n      swap2\n      pop\n      dup1\n      mload\n      swap1\n      0x20\n      add\n      swap1\n      dup1\n      dup4\n      dup4\n      0x00\n    tag_93:\n      dup4\n      dup2\n      lt\n      iszero\n      tag_95\n      jumpi\n      dup1\n      dup3\n      add\n      mload\n      dup2\n      dup5\n      add\n      mstore\n      0x20\n      dup2\n      add\n      swap1\n      pop\n      jump(tag_93)\n    tag_95:\n      pop\n      pop\n      pop\n      pop\n      swap1\n      pop\n      swap1\n      dup2\n      add\n      swap1\n      0x1f\n      and\n      dup1\n      iszero\n      tag_96\n      jumpi\n      dup1\n      dup3\n      sub\n      dup1\n      mload\n      0x01\n      dup4\n      0x20\n      sub\n      0x0100\n      exp\n      sub\n      not\n      and\n      dup2\n      mstore\n      0x20\n      add\n      swap2\n      pop\n    tag_96:\n      pop\n      swap7\n      pop\n      pop\n      pop\n      pop\n      pop\n      pop\n      pop\n      mload(0x40)\n      dup1\n      swap2\n      sub\n      swap1\n      return\n        /* \"capstone/HospitalContract.sol\":7629:8069  function viewPatientById(uint256 _id)... */\n    tag_13:\n      tag_97\n      0x04\n      dup1\n      calldatasize\n      sub\n      0x20\n      dup2\n      lt\n      iszero\n      tag_98\n      jumpi\n      0x00\n      dup1\n      revert\n    tag_98:\n      dup2\n      add\n      swap1\n      dup1\n      dup1\n      calldataload\n      swap1\n      0x20\n      add\n      swap1\n      swap3\n      swap2\n      swap1\n      pop\n      pop\n      pop\n      tag_99\n      jump\t// in\n    tag_97:\n      mload(0x40)\n      dup1\n      dup6\n      dup2\n      mstore\n      0x20\n      add\n      dup5\n      dup2\n      mstore\n      0x20\n      add\n      dup1\n      0x20\n      add\n      dup1\n      0x20\n      add\n      dup4\n      dup2\n      sub\n      dup4\n      mstore\n      dup6\n      dup2\n      dup2\n      mload\n      dup2\n      mstore\n      0x20\n      add\n      swap2\n      pop\n      dup1\n      mload\n      swap1\n      0x20\n      add\n      swap1\n      dup1\n      dup4\n      dup4\n      0x00\n    tag_100:\n      dup4\n      dup2\n      lt\n      iszero\n      tag_102\n      jumpi\n      dup1\n      dup3\n      add\n      mload\n      dup2\n      dup5\n      add\n      mstore\n      0x20\n      dup2\n      add\n      swap1\n      pop\n      jump(tag_100)\n    tag_102:\n      pop\n      pop\n      pop\n      pop\n      swap1\n      pop\n      swap1\n      dup2\n      add\n      swap1\n      0x1f\n      and\n      dup1\n      iszero\n      tag_103\n      jumpi\n      dup1\n      dup3\n      sub\n      dup1\n      mload\n      0x01\n      dup4\n      0x20\n      sub\n      0x0100\n      exp\n      sub\n      not\n      and\n      dup2\n      mstore\n      0x20\n      add\n      swap2\n      pop\n    tag_103:\n      pop\n      dup4\n      dup2\n      sub\n      dup3\n      mstore\n      dup5\n      dup2\n      dup2\n      mload\n      dup2\n      mstore\n      0x20\n      add\n      swap2\n      pop\n      dup1\n      mload\n      swap1\n      0x20\n      add\n      swap1\n      dup1\n      dup4\n      dup4\n      0x00\n    tag_104:\n      dup4\n      dup2\n      lt\n      iszero\n      tag_106\n      jumpi\n      dup1\n      dup3\n      add\n      mload\n      dup2\n      dup5\n      add\n      mstore\n      0x20\n      dup2\n      add\n      swap1\n      pop\n      jump(tag_104)\n    tag_106:\n      pop\n      pop\n      pop\n      pop\n      swap1\n      pop\n      swap1\n      dup2\n      add\n      swap1\n      0x1f\n      and\n      dup1\n      iszero\n      tag_107\n      jumpi\n      dup1\n      dup3\n      sub\n      dup1\n      mload\n      0x01\n      dup4\n      0x20\n      sub\n      0x0100\n      exp\n      sub\n      not\n      and\n      dup2\n      mstore\n      0x20\n      add\n      swap2\n      pop\n    tag_107:\n      pop\n      swap7\n      pop\n      pop\n      pop\n      pop\n      pop\n      pop\n      pop\n      mload(0x40)\n      dup1\n      swap2\n      sub\n      swap1\n      return\n        /* \"capstone/HospitalContract.sol\":4777:5164  function addMedicine(... */\n    tag_23:\n        /* \"capstone/HospitalContract.sol\":4979:4982  _id */\n      dup5\n        /* \"capstone/HospitalContract.sol\":4958:4967  medicines */\n      0x07\n        /* \"capstone/HospitalContract.sol\":4958:4972  medicines[_id] */\n      0x00\n        /* \"capstone/HospitalContract.sol\":4968:4971  _id */\n      dup8\n        /* \"capstone/HospitalContract.sol\":4958:4972  medicines[_id] */\n      dup2\n      mstore\n      0x20\n      add\n      swap1\n      dup2\n      mstore\n      0x20\n      add\n      0x00\n      keccak256\n        /* \"capstone/HospitalContract.sol\":4958:4975  medicines[_id].id */\n      0x00\n      add\n        /* \"capstone/HospitalContract.sol\":4958:4982  medicines[_id].id =  _id */\n      dup2\n      swap1\n      sstore\n      pop\n        /* \"capstone/HospitalContract.sol\":5015:5020  _name */\n      dup4\n        /* \"capstone/HospitalContract.sol\":4992:5001  medicines */\n      0x07\n        /* \"capstone/HospitalContract.sol\":4992:5006  medicines[_id] */\n      0x00\n        /* \"capstone/HospitalContract.sol\":5002:5005  _id */\n      dup8\n        /* \"capstone/HospitalContract.sol\":4992:5006  medicines[_id] */\n      dup2\n      mstore\n      0x20\n      add\n      swap1\n      dup2\n      mstore\n      0x20\n      add\n      0x00\n      keccak256\n        /* \"capstone/HospitalContract.sol\":4992:5011  medicines[_id].name */\n      0x01\n      add\n        /* \"capstone/HospitalContract.sol\":4992:5020  medicines[_id].name =  _name */\n      swap1\n      dup1\n      mload\n      swap1\n      0x20\n      add\n      swap1\n      tag_109\n      swap3\n      swap2\n      swap1\n      tag_110\n      jump\t// in\n    tag_109:\n      pop\n        /* \"capstone/HospitalContract.sol\":5059:5070  _expiryDate */\n      dup3\n        /* \"capstone/HospitalContract.sol\":5030:5039  medicines */\n      0x07\n        /* \"capstone/HospitalContract.sol\":5030:5044  medicines[_id] */\n      0x00\n        /* \"capstone/HospitalContract.sol\":5040:5043  _id */\n      dup8\n        /* \"capstone/HospitalContract.sol\":5030:5044  medicines[_id] */\n      dup2\n      mstore\n      0x20\n      add\n      swap1\n      dup2\n      mstore\n      0x20\n      add\n      0x00\n      keccak256\n        /* \"capstone/HospitalContract.sol\":5030:5055  medicines[_id].expiryDate */\n      0x02\n      add\n        /* \"capstone/HospitalContract.sol\":5030:5070  medicines[_id].expiryDate =  _expiryDate */\n      swap1\n      dup1\n      mload\n      swap1\n      0x20\n      add\n      swap1\n      tag_111\n      swap3\n      swap2\n      swap1\n      tag_110\n      jump\t// in\n    tag_111:\n      pop\n        /* \"capstone/HospitalContract.sol\":5103:5108  _dose */\n      dup2\n        /* \"capstone/HospitalContract.sol\":5080:5089  medicines */\n      0x07\n        /* \"capstone/HospitalContract.sol\":5080:5094  medicines[_id] */\n      0x00\n        /* \"capstone/HospitalContract.sol\":5090:5093  _id */\n      dup8\n        /* \"capstone/HospitalContract.sol\":5080:5094  medicines[_id] */\n      dup2\n      mstore\n      0x20\n      add\n      swap1\n      dup2\n      mstore\n      0x20\n      add\n      0x00\n      keccak256\n        /* \"capstone/HospitalContract.sol\":5080:5099  medicines[_id].dose */\n      0x03\n      add\n        /* \"capstone/HospitalContract.sol\":5080:5108  medicines[_id].dose =  _dose */\n      dup2\n      swap1\n      sstore\n      pop\n        /* \"capstone/HospitalContract.sol\":5142:5148  _price */\n      dup1\n        /* \"capstone/HospitalContract.sol\":5118:5127  medicines */\n      0x07\n        /* \"capstone/HospitalContract.sol\":5118:5132  medicines[_id] */\n      0x00\n        /* \"capstone/HospitalContract.sol\":5128:5131  _id */\n      dup8\n        /* \"capstone/HospitalContract.sol\":5118:5132  medicines[_id] */\n      dup2\n      mstore\n      0x20\n      add\n      swap1\n      dup2\n      mstore\n      0x20\n      add\n      0x00\n      keccak256\n        /* \"capstone/HospitalContract.sol\":5118:5138  medicines[_id].price */\n      0x04\n      add\n        /* \"capstone/HospitalContract.sol\":5118:5148  medicines[_id].price =  _price */\n      dup2\n      swap1\n      sstore\n      pop\n        /* \"capstone/HospitalContract.sol\":4777:5164  function addMedicine(... */\n      pop\n      pop\n      pop\n      pop\n      pop\n      jump\t// out\n        /* \"capstone/HospitalContract.sol\":3017:3499  function registerDoctor(... */\n    tag_35:\n        /* \"capstone/HospitalContract.sol\":881:886  Owner */\n      0x00\n      dup1\n      sload\n      swap1\n      0x0100\n      exp\n      swap1\n      div\n      0xffffffffffffffffffffffffffffffffffffffff\n      and\n        /* \"capstone/HospitalContract.sol\":867:886  msg.sender == Owner */\n      0xffffffffffffffffffffffffffffffffffffffff\n      and\n        /* \"capstone/HospitalContract.sol\":867:877  msg.sender */\n      caller\n        /* \"capstone/HospitalContract.sol\":867:886  msg.sender == Owner */\n      0xffffffffffffffffffffffffffffffffffffffff\n      and\n      eq\n        /* \"capstone/HospitalContract.sol\":859:887  require(msg.sender == Owner) */\n      tag_113\n      jumpi\n      0x00\n      dup1\n      revert\n    tag_113:\n        /* \"capstone/HospitalContract.sol\":3185:3195  doctorList */\n      0x03\n        /* \"capstone/HospitalContract.sol\":3201:3211  msg.sender */\n      caller\n        /* \"capstone/HospitalContract.sol\":3185:3212  doctorList.push(msg.sender) */\n      swap1\n      dup1\n      0x01\n      dup2\n      sload\n      add\n      dup1\n      dup3\n      sstore\n      dup1\n      swap2\n      pop\n      pop\n      0x01\n      swap1\n      sub\n      swap1\n      0x00\n      mstore\n      keccak256(0x00, 0x20)\n      add\n      0x00\n      swap1\n      swap2\n      swap1\n      swap2\n      swap1\n      swap2\n      0x0100\n      exp\n      dup2\n      sload\n      dup2\n      0xffffffffffffffffffffffffffffffffffffffff\n      mul\n      not\n      and\n      swap1\n      dup4\n      0xffffffffffffffffffffffffffffffffffffffff\n      and\n      mul\n      or\n      swap1\n      sstore\n      pop\n        /* \"capstone/HospitalContract.sol\":3255:3388  doctor(... */\n      mload(0x40)\n      dup1\n      0xa0\n      add\n      0x40\n      mstore\n      dup1\n        /* \"capstone/HospitalContract.sol\":3275:3283  doctorId */\n      sload(0x02)\n        /* \"capstone/HospitalContract.sol\":3255:3388  doctor(... */\n      dup2\n      mstore\n      0x20\n      add\n        /* \"capstone/HospitalContract.sol\":3297:3302  _name */\n      dup5\n        /* \"capstone/HospitalContract.sol\":3255:3388  doctor(... */\n      dup2\n      mstore\n      0x20\n      add\n        /* \"capstone/HospitalContract.sol\":3316:3330  _qualification */\n      dup4\n        /* \"capstone/HospitalContract.sol\":3255:3388  doctor(... */\n      dup2\n      mstore\n      0x20\n      add\n        /* \"capstone/HospitalContract.sol\":3344:3354  _workPlace */\n      dup3\n        /* \"capstone/HospitalContract.sol\":3255:3388  doctor(... */\n      dup2\n      mstore\n      0x20\n      add\n        /* \"capstone/HospitalContract.sol\":3368:3378  msg.sender */\n      caller\n        /* \"capstone/HospitalContract.sol\":3255:3388  doctor(... */\n      0xffffffffffffffffffffffffffffffffffffffff\n      and\n      dup2\n      mstore\n      pop\n        /* \"capstone/HospitalContract.sol\":3223:3240  registeredDoctors */\n      0x04\n        /* \"capstone/HospitalContract.sol\":3223:3252  registeredDoctors[msg.sender] */\n      0x00\n        /* \"capstone/HospitalContract.sol\":3241:3251  msg.sender */\n      caller\n        /* \"capstone/HospitalContract.sol\":3223:3252  registeredDoctors[msg.sender] */\n      0xffffffffffffffffffffffffffffffffffffffff\n      and\n      0xffffffffffffffffffffffffffffffffffffffff\n      and\n      dup2\n      mstore\n      0x20\n      add\n      swap1\n      dup2\n      mstore\n      0x20\n      add\n      0x00\n      keccak256\n        /* \"capstone/HospitalContract.sol\":3223:3388  registeredDoctors[msg.sender] = doctor(... */\n      0x00\n      dup3\n      add\n      mload\n      dup2\n      0x00\n      add\n      sstore\n      0x20\n      dup3\n      add\n      mload\n      dup2\n      0x01\n      add\n      swap1\n      dup1\n      mload\n      swap1\n      0x20\n      add\n      swap1\n      tag_116\n      swap3\n      swap2\n      swap1\n      tag_110\n      jump\t// in\n    tag_116:\n      pop\n      0x40\n      dup3\n      add\n      mload\n      dup2\n      0x02\n      add\n      swap1\n      dup1\n      mload\n      swap1\n      0x20\n      add\n      swap1\n      tag_117\n      swap3\n      swap2\n      swap1\n      tag_110\n      jump\t// in\n    tag_117:\n      pop\n      0x60\n      dup3\n      add\n      mload\n      dup2\n      0x03\n      add\n      swap1\n      dup1\n      mload\n      swap1\n      0x20\n      add\n      swap1\n      tag_118\n      swap3\n      swap2\n      swap1\n      tag_110\n      jump\t// in\n    tag_118:\n      pop\n      0x80\n      dup3\n      add\n      mload\n      dup2\n      0x04\n      add\n      exp(0x0100, 0x00)\n      dup2\n      sload\n      dup2\n      0xffffffffffffffffffffffffffffffffffffffff\n      mul\n      not\n      and\n      swap1\n      dup4\n      0xffffffffffffffffffffffffffffffffffffffff\n      and\n      mul\n      or\n      swap1\n      sstore\n      pop\n      swap1\n      pop\n      pop\n        /* \"capstone/HospitalContract.sol\":3420:3421  1 */\n      0x01\n        /* \"capstone/HospitalContract.sol\":3409:3417  doctorId */\n      sload(0x02)\n        /* \"capstone/HospitalContract.sol\":3409:3421  doctorId + 1 */\n      add\n        /* \"capstone/HospitalContract.sol\":3398:3406  doctorId */\n      0x02\n        /* \"capstone/HospitalContract.sol\":3398:3421  doctorId = doctorId + 1 */\n      dup2\n      swap1\n      sstore\n      pop\n        /* \"capstone/HospitalContract.sol\":3476:3481  _name */\n      dup3\n        /* \"capstone/HospitalContract.sol\":3461:3492  newDoctorEvent(_name, doctorId) */\n      mload(0x40)\n      dup1\n      dup3\n      dup1\n      mload\n      swap1\n      0x20\n      add\n      swap1\n      dup1\n      dup4\n      dup4\n    tag_119:\n      0x20\n      dup4\n      lt\n      tag_121\n      jumpi\n      dup1\n      mload\n      dup3\n      mstore\n      0x20\n      dup3\n      add\n      swap2\n      pop\n      0x20\n      dup2\n      add\n      swap1\n      pop\n      0x20\n      dup4\n      sub\n      swap3\n      pop\n      jump(tag_119)\n    tag_121:\n      0x01\n      dup4\n      0x20\n      sub\n      0x0100\n      exp\n      sub\n      dup1\n      not\n      dup3\n      mload\n      and\n      dup2\n      dup5\n      mload\n      and\n      dup1\n      dup3\n      or\n      dup6\n      mstore\n      pop\n      pop\n      pop\n      pop\n      pop\n      pop\n      swap1\n      pop\n      add\n      swap2\n      pop\n      pop\n      mload(0x40)\n      dup1\n      swap2\n      sub\n      swap1\n      keccak256\n      0xe30ba994f0dd73cfb5c03048c44efd518688ac1675527480fd0afff45d9bee2a\n        /* \"capstone/HospitalContract.sol\":3483:3491  doctorId */\n      sload(0x02)\n        /* \"capstone/HospitalContract.sol\":3461:3492  newDoctorEvent(_name, doctorId) */\n      mload(0x40)\n      dup1\n      dup3\n      dup2\n      mstore\n      0x20\n      add\n      swap2\n      pop\n      pop\n      mload(0x40)\n      dup1\n      swap2\n      sub\n      swap1\n      log2\n        /* \"capstone/HospitalContract.sol\":3017:3499  function registerDoctor(... */\n      pop\n      pop\n      pop\n      jump\t// out\n        /* \"capstone/HospitalContract.sol\":5683:5830  function updateAge(uint256 _age) public {... */\n    tag_38:\n        /* \"capstone/HospitalContract.sol\":5734:5758  patient storage _patient */\n      0x00\n        /* \"capstone/HospitalContract.sol\":5762:5780  registeredPatients */\n      0x06\n        /* \"capstone/HospitalContract.sol\":5762:5792  registeredPatients[msg.sender] */\n      0x00\n        /* \"capstone/HospitalContract.sol\":5781:5791  msg.sender */\n      caller\n        /* \"capstone/HospitalContract.sol\":5762:5792  registeredPatients[msg.sender] */\n      0xffffffffffffffffffffffffffffffffffffffff\n      and\n      0xffffffffffffffffffffffffffffffffffffffff\n      and\n      dup2\n      mstore\n      0x20\n      add\n      swap1\n      dup2\n      mstore\n      0x20\n      add\n      0x00\n      keccak256\n        /* \"capstone/HospitalContract.sol\":5734:5792  patient storage _patient =  registeredPatients[msg.sender] */\n      swap1\n      pop\n        /* \"capstone/HospitalContract.sol\":5818:5822  _age */\n      dup2\n        /* \"capstone/HospitalContract.sol\":5803:5811  _patient */\n      dup2\n        /* \"capstone/HospitalContract.sol\":5803:5815  _patient.age */\n      0x02\n      add\n        /* \"capstone/HospitalContract.sol\":5803:5822  _patient.age = _age */\n      dup2\n      swap1\n      sstore\n      pop\n        /* \"capstone/HospitalContract.sol\":5683:5830  function updateAge(uint256 _age) public {... */\n      pop\n      pop\n      jump\t// out\n        /* \"capstone/HospitalContract.sol\":8976:9361  function viewDoctorById(uint256 _id)... */\n    tag_41:\n        /* \"capstone/HospitalContract.sol\":9071:9081  uint256 id */\n      0x00\n        /* \"capstone/HospitalContract.sol\":9095:9113  string memory name */\n      0x60\n        /* \"capstone/HospitalContract.sol\":9127:9154  string memory qualification */\n      dup1\n        /* \"capstone/HospitalContract.sol\":9168:9185  string memory add */\n      0x60\n        /* \"capstone/HospitalContract.sol\":9211:9232  doctor memory _doctor */\n      tag_124\n      tag_125\n      jump\t// in\n    tag_124:\n        /* \"capstone/HospitalContract.sol\":9236:9253  registeredDoctors */\n      0x04\n        /* \"capstone/HospitalContract.sol\":9236:9270  registeredDoctors[doctorList[_id]] */\n      0x00\n        /* \"capstone/HospitalContract.sol\":9254:9264  doctorList */\n      0x03\n        /* \"capstone/HospitalContract.sol\":9265:9268  _id */\n      dup9\n        /* \"capstone/HospitalContract.sol\":9254:9269  doctorList[_id] */\n      dup2\n      sload\n      dup2\n      lt\n      tag_126\n      jumpi\n      invalid\n    tag_126:\n      swap1\n      0x00\n      mstore\n      keccak256(0x00, 0x20)\n      add\n      0x00\n      swap1\n      sload\n      swap1\n      0x0100\n      exp\n      swap1\n      div\n      0xffffffffffffffffffffffffffffffffffffffff\n      and\n        /* \"capstone/HospitalContract.sol\":9236:9270  registeredDoctors[doctorList[_id]] */\n      0xffffffffffffffffffffffffffffffffffffffff\n      and\n      0xffffffffffffffffffffffffffffffffffffffff\n      and\n      dup2\n      mstore\n      0x20\n      add\n      swap1\n      dup2\n      mstore\n      0x20\n      add\n      0x00\n      keccak256\n        /* \"capstone/HospitalContract.sol\":9211:9270  doctor memory _doctor =  registeredDoctors[doctorList[_id]] */\n      mload(0x40)\n      dup1\n      0xa0\n      add\n      0x40\n      mstore\n      swap1\n      dup2\n      0x00\n      dup3\n      add\n      sload\n      dup2\n      mstore\n      0x20\n      add\n      0x01\n      dup3\n      add\n      dup1\n      sload\n      0x01\n      dup2\n      0x01\n      and\n      iszero\n      0x0100\n      mul\n      sub\n      and\n      0x02\n      swap1\n      div\n      dup1\n      0x1f\n      add\n      0x20\n      dup1\n      swap2\n      div\n      mul\n      0x20\n      add\n      mload(0x40)\n      swap1\n      dup2\n      add\n      0x40\n      mstore\n      dup1\n      swap3\n      swap2\n      swap1\n      dup2\n      dup2\n      mstore\n      0x20\n      add\n      dup3\n      dup1\n      sload\n      0x01\n      dup2\n      0x01\n      and\n      iszero\n      0x0100\n      mul\n      sub\n      and\n      0x02\n      swap1\n      div\n      dup1\n      iszero\n      tag_128\n      jumpi\n      dup1\n      0x1f\n      lt\n      tag_129\n      jumpi\n      0x0100\n      dup1\n      dup4\n      sload\n      div\n      mul\n      dup4\n      mstore\n      swap2\n      0x20\n      add\n      swap2\n      jump(tag_128)\n    tag_129:\n      dup3\n      add\n      swap2\n      swap1\n      0x00\n      mstore\n      keccak256(0x00, 0x20)\n      swap1\n    tag_130:\n      dup2\n      sload\n      dup2\n      mstore\n      swap1\n      0x01\n      add\n      swap1\n      0x20\n      add\n      dup1\n      dup4\n      gt\n      tag_130\n      jumpi\n      dup3\n      swap1\n      sub\n      0x1f\n      and\n      dup3\n      add\n      swap2\n    tag_128:\n      pop\n      pop\n      pop\n      pop\n      pop\n      dup2\n      mstore\n      0x20\n      add\n      0x02\n      dup3\n      add\n      dup1\n      sload\n      0x01\n      dup2\n      0x01\n      and\n      iszero\n      0x0100\n      mul\n      sub\n      and\n      0x02\n      swap1\n      div\n      dup1\n      0x1f\n      add\n      0x20\n      dup1\n      swap2\n      div\n      mul\n      0x20\n      add\n      mload(0x40)\n      swap1\n      dup2\n      add\n      0x40\n      mstore\n      dup1\n      swap3\n      swap2\n      swap1\n      dup2\n      dup2\n      mstore\n      0x20\n      add\n      dup3\n      dup1\n      sload\n      0x01\n      dup2\n      0x01\n      and\n      iszero\n      0x0100\n      mul\n      sub\n      and\n      0x02\n      swap1\n      div\n      dup1\n      iszero\n      tag_131\n      jumpi\n      dup1\n      0x1f\n      lt\n      tag_132\n      jumpi\n      0x0100\n      dup1\n      dup4\n      sload\n      div\n      mul\n      dup4\n      mstore\n      swap2\n      0x20\n      add\n      swap2\n      jump(tag_131)\n    tag_132:\n      dup3\n      add\n      swap2\n      swap1\n      0x00\n      mstore\n      keccak256(0x00, 0x20)\n      swap1\n    tag_133:\n      dup2\n      sload\n      dup2\n      mstore\n      swap1\n      0x01\n      add\n      swap1\n      0x20\n      add\n      dup1\n      dup4\n      gt\n      tag_133\n      jumpi\n      dup3\n      swap1\n      sub\n      0x1f\n      and\n      dup3\n      add\n      swap2\n    tag_131:\n      pop\n      pop\n      pop\n      pop\n      pop\n      dup2\n      mstore\n      0x20\n      add\n      0x03\n      dup3\n      add\n      dup1\n      sload\n      0x01\n      dup2\n      0x01\n      and\n      iszero\n      0x0100\n      mul\n      sub\n      and\n      0x02\n      swap1\n      div\n      dup1\n      0x1f\n      add\n      0x20\n      dup1\n      swap2\n      div\n      mul\n      0x20\n      add\n      mload(0x40)\n      swap1\n      dup2\n      add\n      0x40\n      mstore\n      dup1\n      swap3\n      swap2\n      swap1\n      dup2\n      dup2\n      mstore\n      0x20\n      add\n      dup3\n      dup1\n      sload\n      0x01\n      dup2\n      0x01\n      and\n      iszero\n      0x0100\n      mul\n      sub\n      and\n      0x02\n      swap1\n      div\n      dup1\n      iszero\n      tag_134\n      jumpi\n      dup1\n      0x1f\n      lt\n      tag_135\n      jumpi\n      0x0100\n      dup1\n      dup4\n      sload\n      div\n      mul\n      dup4\n      mstore\n      swap2\n      0x20\n      add\n      swap2\n      jump(tag_134)\n    tag_135:\n      dup3\n      add\n      swap2\n      swap1\n      0x00\n      mstore\n      keccak256(0x00, 0x20)\n      swap1\n    tag_136:\n      dup2\n      sload\n      dup2\n      mstore\n      swap1\n      0x01\n      add\n      swap1\n      0x20\n      add\n      dup1\n      dup4\n      gt\n      tag_136\n      jumpi\n      dup3\n      swap1\n      sub\n      0x1f\n      and\n      dup3\n      add\n      swap2\n    tag_134:\n      pop\n      pop\n      pop\n      pop\n      pop\n      dup2\n      mstore\n      0x20\n      add\n      0x04\n      dup3\n      add\n      0x00\n      swap1\n      sload\n      swap1\n      0x0100\n      exp\n      swap1\n      div\n      0xffffffffffffffffffffffffffffffffffffffff\n      and\n      0xffffffffffffffffffffffffffffffffffffffff\n      and\n      0xffffffffffffffffffffffffffffffffffffffff\n      and\n      dup2\n      mstore\n      pop\n      pop\n      swap1\n      pop\n        /* \"capstone/HospitalContract.sol\":9288:9295  _doctor */\n      dup1\n        /* \"capstone/HospitalContract.sol\":9288:9298  _doctor.id */\n      0x00\n      add\n      mload\n        /* \"capstone/HospitalContract.sol\":9300:9307  _doctor */\n      dup2\n        /* \"capstone/HospitalContract.sol\":9300:9312  _doctor.name */\n      0x20\n      add\n      mload\n        /* \"capstone/HospitalContract.sol\":9313:9320  _doctor */\n      dup3\n        /* \"capstone/HospitalContract.sol\":9313:9334  _doctor.qualification */\n      0x40\n      add\n      mload\n        /* \"capstone/HospitalContract.sol\":9336:9343  _doctor */\n      dup4\n        /* \"capstone/HospitalContract.sol\":9336:9353  _doctor.workPlace */\n      0x60\n      add\n      mload\n        /* \"capstone/HospitalContract.sol\":9280:9354  return (_doctor.id, _doctor.name,_doctor.qualification, _doctor.workPlace) */\n      swap5\n      pop\n      swap5\n      pop\n      swap5\n      pop\n      swap5\n      pop\n      pop\n        /* \"capstone/HospitalContract.sol\":8976:9361  function viewDoctorById(uint256 _id)... */\n      swap2\n      swap4\n      pop\n      swap2\n      swap4\n      jump\t// out\n        /* \"capstone/HospitalContract.sol\":3692:4157  function registerPatient(string memory _name, uint32 _age) public {... */\n    tag_59:\n        /* \"capstone/HospitalContract.sol\":3785:3796  patientList */\n      0x05\n        /* \"capstone/HospitalContract.sol\":3802:3812  msg.sender */\n      caller\n        /* \"capstone/HospitalContract.sol\":3785:3813  patientList.push(msg.sender) */\n      swap1\n      dup1\n      0x01\n      dup2\n      sload\n      add\n      dup1\n      dup3\n      sstore\n      dup1\n      swap2\n      pop\n      pop\n      0x01\n      swap1\n      sub\n      swap1\n      0x00\n      mstore\n      keccak256(0x00, 0x20)\n      add\n      0x00\n      swap1\n      swap2\n      swap1\n      swap2\n      swap1\n      swap2\n      0x0100\n      exp\n      dup2\n      sload\n      dup2\n      0xffffffffffffffffffffffffffffffffffffffff\n      mul\n      not\n      and\n      swap1\n      dup4\n      0xffffffffffffffffffffffffffffffffffffffff\n      and\n      mul\n      or\n      swap1\n      sstore\n      pop\n        /* \"capstone/HospitalContract.sol\":3860:3869  patientId */\n      sload(0x01)\n        /* \"capstone/HospitalContract.sol\":3823:3841  registeredPatients */\n      0x06\n        /* \"capstone/HospitalContract.sol\":3823:3853  registeredPatients[msg.sender] */\n      0x00\n        /* \"capstone/HospitalContract.sol\":3842:3852  msg.sender */\n      caller\n        /* \"capstone/HospitalContract.sol\":3823:3853  registeredPatients[msg.sender] */\n      0xffffffffffffffffffffffffffffffffffffffff\n      and\n      0xffffffffffffffffffffffffffffffffffffffff\n      and\n      dup2\n      mstore\n      0x20\n      add\n      swap1\n      dup2\n      mstore\n      0x20\n      add\n      0x00\n      keccak256\n        /* \"capstone/HospitalContract.sol\":3823:3856  registeredPatients[msg.sender].id */\n      0x00\n      add\n        /* \"capstone/HospitalContract.sol\":3823:3869  registeredPatients[msg.sender].id =  patientId */\n      dup2\n      swap1\n      sstore\n      pop\n        /* \"capstone/HospitalContract.sol\":3918:3923  _name */\n      dup2\n        /* \"capstone/HospitalContract.sol\":3879:3897  registeredPatients */\n      0x06\n        /* \"capstone/HospitalContract.sol\":3879:3909  registeredPatients[msg.sender] */\n      0x00\n        /* \"capstone/HospitalContract.sol\":3898:3908  msg.sender */\n      caller\n        /* \"capstone/HospitalContract.sol\":3879:3909  registeredPatients[msg.sender] */\n      0xffffffffffffffffffffffffffffffffffffffff\n      and\n      0xffffffffffffffffffffffffffffffffffffffff\n      and\n      dup2\n      mstore\n      0x20\n      add\n      swap1\n      dup2\n      mstore\n      0x20\n      add\n      0x00\n      keccak256\n        /* \"capstone/HospitalContract.sol\":3879:3914  registeredPatients[msg.sender].name */\n      0x01\n      add\n        /* \"capstone/HospitalContract.sol\":3879:3923  registeredPatients[msg.sender].name =  _name */\n      swap1\n      dup1\n      mload\n      swap1\n      0x20\n      add\n      swap1\n      tag_139\n      swap3\n      swap2\n      swap1\n      tag_110\n      jump\t// in\n    tag_139:\n      pop\n        /* \"capstone/HospitalContract.sol\":3971:3975  _age */\n      dup1\n        /* \"capstone/HospitalContract.sol\":3933:3975  registeredPatients[msg.sender].age =  _age */\n      0xffffffff\n      and\n        /* \"capstone/HospitalContract.sol\":3933:3951  registeredPatients */\n      0x06\n        /* \"capstone/HospitalContract.sol\":3933:3963  registeredPatients[msg.sender] */\n      0x00\n        /* \"capstone/HospitalContract.sol\":3952:3962  msg.sender */\n      caller\n        /* \"capstone/HospitalContract.sol\":3933:3963  registeredPatients[msg.sender] */\n      0xffffffffffffffffffffffffffffffffffffffff\n      and\n      0xffffffffffffffffffffffffffffffffffffffff\n      and\n      dup2\n      mstore\n      0x20\n      add\n      swap1\n      dup2\n      mstore\n      0x20\n      add\n      0x00\n      keccak256\n        /* \"capstone/HospitalContract.sol\":3933:3967  registeredPatients[msg.sender].age */\n      0x02\n      add\n        /* \"capstone/HospitalContract.sol\":3933:3975  registeredPatients[msg.sender].age =  _age */\n      dup2\n      swap1\n      sstore\n      pop\n        /* \"capstone/HospitalContract.sol\":4024:4034  msg.sender */\n      caller\n        /* \"capstone/HospitalContract.sol\":3985:4003  registeredPatients */\n      0x06\n        /* \"capstone/HospitalContract.sol\":3985:4015  registeredPatients[msg.sender] */\n      0x00\n        /* \"capstone/HospitalContract.sol\":4004:4014  msg.sender */\n      caller\n        /* \"capstone/HospitalContract.sol\":3985:4015  registeredPatients[msg.sender] */\n      0xffffffffffffffffffffffffffffffffffffffff\n      and\n      0xffffffffffffffffffffffffffffffffffffffff\n      and\n      dup2\n      mstore\n      0x20\n      add\n      swap1\n      dup2\n      mstore\n      0x20\n      add\n      0x00\n      keccak256\n        /* \"capstone/HospitalContract.sol\":3985:4020  registeredPatients[msg.sender].addr */\n      0x03\n      add\n      0x00\n        /* \"capstone/HospitalContract.sol\":3985:4034  registeredPatients[msg.sender].addr =  msg.sender */\n      0x0100\n      exp\n      dup2\n      sload\n      dup2\n      0xffffffffffffffffffffffffffffffffffffffff\n      mul\n      not\n      and\n      swap1\n      dup4\n      0xffffffffffffffffffffffffffffffffffffffff\n      and\n      mul\n      or\n      swap1\n      sstore\n      pop\n        /* \"capstone/HospitalContract.sol\":4076:4077  1 */\n      0x01\n        /* \"capstone/HospitalContract.sol\":4064:4073  patientId */\n      dup1\n      sload\n        /* \"capstone/HospitalContract.sol\":4064:4077  patientId + 1 */\n      add\n        /* \"capstone/HospitalContract.sol\":4052:4061  patientId */\n      0x01\n        /* \"capstone/HospitalContract.sol\":4052:4077  patientId = patientId + 1 */\n      dup2\n      swap1\n      sstore\n      pop\n        /* \"capstone/HospitalContract.sol\":4133:4138  _name */\n      dup2\n        /* \"capstone/HospitalContract.sol\":4117:4150  newPatientEvent(_name, patientId) */\n      mload(0x40)\n      dup1\n      dup3\n      dup1\n      mload\n      swap1\n      0x20\n      add\n      swap1\n      dup1\n      dup4\n      dup4\n    tag_140:\n      0x20\n      dup4\n      lt\n      tag_142\n      jumpi\n      dup1\n      mload\n      dup3\n      mstore\n      0x20\n      dup3\n      add\n      swap2\n      pop\n      0x20\n      dup2\n      add\n      swap1\n      pop\n      0x20\n      dup4\n      sub\n      swap3\n      pop\n      jump(tag_140)\n    tag_142:\n      0x01\n      dup4\n      0x20\n      sub\n      0x0100\n      exp\n      sub\n      dup1\n      not\n      dup3\n      mload\n      and\n      dup2\n      dup5\n      mload\n      and\n      dup1\n      dup3\n      or\n      dup6\n      mstore\n      pop\n      pop\n      pop\n      pop\n      pop\n      pop\n      swap1\n      pop\n      add\n      swap2\n      pop\n      pop\n      mload(0x40)\n      dup1\n      swap2\n      sub\n      swap1\n      keccak256\n      0xbb14e28f056f3cbe5e3ebfd324696bf39b0a42190a192a7c3957b23dfb7ab3ce\n        /* \"capstone/HospitalContract.sol\":4140:4149  patientId */\n      sload(0x01)\n        /* \"capstone/HospitalContract.sol\":4117:4150  newPatientEvent(_name, patientId) */\n      mload(0x40)\n      dup1\n      dup3\n      dup2\n      mstore\n      0x20\n      add\n      swap2\n      pop\n      pop\n      mload(0x40)\n      dup1\n      swap2\n      sub\n      swap1\n      log2\n        /* \"capstone/HospitalContract.sol\":3692:4157  function registerPatient(string memory _name, uint32 _age) public {... */\n      pop\n      pop\n      jump\t// out\n        /* \"capstone/HospitalContract.sol\":8326:8635  function viewPrescribedMedicines(address _patient)... */\n    tag_62:\n        /* \"capstone/HospitalContract.sol\":8435:8452  string memory ids */\n      0x60\n        /* \"capstone/HospitalContract.sol\":8484:8512  string memory _prescriptions */\n      dup1\n        /* \"capstone/HospitalContract.sol\":8515:8586  prescriptionsToString(registeredPatients[_patient].prescribedMedicines) */\n      tag_144\n        /* \"capstone/HospitalContract.sol\":8537:8555  registeredPatients */\n      0x06\n        /* \"capstone/HospitalContract.sol\":8537:8565  registeredPatients[_patient] */\n      0x00\n        /* \"capstone/HospitalContract.sol\":8556:8564  _patient */\n      dup6\n        /* \"capstone/HospitalContract.sol\":8537:8565  registeredPatients[_patient] */\n      0xffffffffffffffffffffffffffffffffffffffff\n      and\n      0xffffffffffffffffffffffffffffffffffffffff\n      and\n      dup2\n      mstore\n      0x20\n      add\n      swap1\n      dup2\n      mstore\n      0x20\n      add\n      0x00\n      keccak256\n        /* \"capstone/HospitalContract.sol\":8537:8585  registeredPatients[_patient].prescribedMedicines */\n      0x05\n      add\n        /* \"capstone/HospitalContract.sol\":8515:8586  prescriptionsToString(registeredPatients[_patient].prescribedMedicines) */\n      dup1\n      sload\n      dup1\n      0x20\n      mul\n      0x20\n      add\n      mload(0x40)\n      swap1\n      dup2\n      add\n      0x40\n      mstore\n      dup1\n      swap3\n      swap2\n      swap1\n      dup2\n      dup2\n      mstore\n      0x20\n      add\n      0x00\n      swap1\n    tag_145:\n      dup3\n      dup3\n      lt\n      iszero\n      tag_146\n      jumpi\n      dup4\n      dup3\n      swap1\n      0x00\n      mstore\n      keccak256(0x00, 0x20)\n      add\n      dup1\n      sload\n      0x01\n      dup2\n      0x01\n      and\n      iszero\n      0x0100\n      mul\n      sub\n      and\n      0x02\n      swap1\n      div\n      dup1\n      0x1f\n      add\n      0x20\n      dup1\n      swap2\n      div\n      mul\n      0x20\n      add\n      mload(0x40)\n      swap1\n      dup2\n      add\n      0x40\n      mstore\n      dup1\n      swap3\n      swap2\n      swap1\n      dup2\n      dup2\n      mstore\n      0x20\n      add\n      dup3\n      dup1\n      sload\n      0x01\n      dup2\n      0x01\n      and\n      iszero\n      0x0100\n      mul\n      sub\n      and\n      0x02\n      swap1\n      div\n      dup1\n      iszero\n      tag_148\n      jumpi\n      dup1\n      0x1f\n      lt\n      tag_149\n      jumpi\n      0x0100\n      dup1\n      dup4\n      sload\n      div\n      mul\n      dup4\n      mstore\n      swap2\n      0x20\n      add\n      swap2\n      jump(tag_148)\n    tag_149:\n      dup3\n      add\n      swap2\n      swap1\n      0x00\n      mstore\n      keccak256(0x00, 0x20)\n      swap1\n    tag_150:\n      dup2\n      sload\n      dup2\n      mstore\n      swap1\n      0x01\n      add\n      swap1\n      0x20\n      add\n      dup1\n      dup4\n      gt\n      tag_150\n      jumpi\n      dup3\n      swap1\n      sub\n      0x1f\n      and\n      dup3\n      add\n      swap2\n    tag_148:\n      pop\n      pop\n      pop\n      pop\n      pop\n      dup2\n      mstore\n      0x20\n      add\n      swap1\n      0x01\n      add\n      swap1\n      jump(tag_145)\n    tag_146:\n      pop\n      pop\n      pop\n      pop\n        /* \"capstone/HospitalContract.sol\":8515:8536  prescriptionsToString */\n      tag_151\n        /* \"capstone/HospitalContract.sol\":8515:8586  prescriptionsToString(registeredPatients[_patient].prescribedMedicines) */\n      jump\t// in\n    tag_144:\n        /* \"capstone/HospitalContract.sol\":8484:8586  string memory _prescriptions = prescriptionsToString(registeredPatients[_patient].prescribedMedicines) */\n      swap1\n      pop\n        /* \"capstone/HospitalContract.sol\":8613:8627  _prescriptions */\n      dup1\n        /* \"capstone/HospitalContract.sol\":8605:8628  return (_prescriptions) */\n      swap2\n      pop\n      pop\n        /* \"capstone/HospitalContract.sol\":8326:8635  function viewPrescribedMedicines(address _patient)... */\n      swap2\n      swap1\n      pop\n      jump\t// out\n        /* \"capstone/HospitalContract.sol\":5371:5529  function prescribeMedicine(uint256 _id, address _patient) public {... */\n    tag_69:\n        /* \"capstone/HospitalContract.sol\":5454:5472  registeredPatients */\n      0x06\n        /* \"capstone/HospitalContract.sol\":5454:5482  registeredPatients[_patient] */\n      0x00\n        /* \"capstone/HospitalContract.sol\":5473:5481  _patient */\n      dup3\n        /* \"capstone/HospitalContract.sol\":5454:5482  registeredPatients[_patient] */\n      0xffffffffffffffffffffffffffffffffffffffff\n      and\n      0xffffffffffffffffffffffffffffffffffffffff\n      and\n      dup2\n      mstore\n      0x20\n      add\n      swap1\n      dup2\n      mstore\n      0x20\n      add\n      0x00\n      keccak256\n        /* \"capstone/HospitalContract.sol\":5454:5502  registeredPatients[_patient].prescribedMedicines */\n      0x05\n      add\n        /* \"capstone/HospitalContract.sol\":5508:5521  uint2str(_id) */\n      tag_153\n        /* \"capstone/HospitalContract.sol\":5517:5520  _id */\n      dup4\n        /* \"capstone/HospitalContract.sol\":5508:5516  uint2str */\n      tag_154\n        /* \"capstone/HospitalContract.sol\":5508:5521  uint2str(_id) */\n      jump\t// in\n    tag_153:\n        /* \"capstone/HospitalContract.sol\":5454:5522  registeredPatients[_patient].prescribedMedicines.push(uint2str(_id)) */\n      swap1\n      dup1\n      0x01\n      dup2\n      sload\n      add\n      dup1\n      dup3\n      sstore\n      dup1\n      swap2\n      pop\n      pop\n      0x01\n      swap1\n      sub\n      swap1\n      0x00\n      mstore\n      keccak256(0x00, 0x20)\n      add\n      0x00\n      swap1\n      swap2\n      swap1\n      swap2\n      swap1\n      swap2\n      pop\n      swap1\n      dup1\n      mload\n      swap1\n      0x20\n      add\n      swap1\n      tag_156\n      swap3\n      swap2\n      swap1\n      tag_110\n      jump\t// in\n    tag_156:\n      pop\n        /* \"capstone/HospitalContract.sol\":5371:5529  function prescribeMedicine(uint256 _id, address _patient) public {... */\n      pop\n      pop\n      jump\t// out\n        /* \"capstone/HospitalContract.sol\":4311:4445  function addNewDisease(string memory _disease) public {... */\n    tag_75:\n        /* \"capstone/HospitalContract.sol\":4375:4393  registeredPatients */\n      0x06\n        /* \"capstone/HospitalContract.sol\":4375:4405  registeredPatients[msg.sender] */\n      0x00\n        /* \"capstone/HospitalContract.sol\":4394:4404  msg.sender */\n      caller\n        /* \"capstone/HospitalContract.sol\":4375:4405  registeredPatients[msg.sender] */\n      0xffffffffffffffffffffffffffffffffffffffff\n      and\n      0xffffffffffffffffffffffffffffffffffffffff\n      and\n      dup2\n      mstore\n      0x20\n      add\n      swap1\n      dup2\n      mstore\n      0x20\n      add\n      0x00\n      keccak256\n        /* \"capstone/HospitalContract.sol\":4375:4414  registeredPatients[msg.sender].diseases */\n      0x04\n      add\n        /* \"capstone/HospitalContract.sol\":4420:4437  Disease(_disease) */\n      mload(0x40)\n      dup1\n      0x20\n      add\n      0x40\n      mstore\n      dup1\n        /* \"capstone/HospitalContract.sol\":4428:4436  _disease */\n      dup4\n        /* \"capstone/HospitalContract.sol\":4420:4437  Disease(_disease) */\n      dup2\n      mstore\n      pop\n        /* \"capstone/HospitalContract.sol\":4375:4438  registeredPatients[msg.sender].diseases.push(Disease(_disease)) */\n      swap1\n      dup1\n      0x01\n      dup2\n      sload\n      add\n      dup1\n      dup3\n      sstore\n      dup1\n      swap2\n      pop\n      pop\n      0x01\n      swap1\n      sub\n      swap1\n      0x00\n      mstore\n      keccak256(0x00, 0x20)\n      add\n      0x00\n      swap1\n      swap2\n      swap1\n      swap2\n      swap1\n      swap2\n      pop\n      0x00\n      dup3\n      add\n      mload\n      dup2\n      0x00\n      add\n      swap1\n      dup1\n      mload\n      swap1\n      0x20\n      add\n      swap1\n      tag_159\n      swap3\n      swap2\n      swap1\n      tag_110\n      jump\t// in\n    tag_159:\n      pop\n      pop\n      pop\n        /* \"capstone/HospitalContract.sol\":4311:4445  function addNewDisease(string memory _disease) public {... */\n      pop\n      jump\t// out\n        /* \"capstone/HospitalContract.sol\":6933:7308  function viewMedicine(uint256 _id)... */\n    tag_78:\n        /* \"capstone/HospitalContract.sol\":7026:7044  string memory name */\n      0x60\n        /* \"capstone/HospitalContract.sol\":7058:7082  string memory expiryDate */\n      dup1\n        /* \"capstone/HospitalContract.sol\":7096:7108  uint256 dose */\n      0x00\n        /* \"capstone/HospitalContract.sol\":7122:7135  uint256 price */\n      dup1\n        /* \"capstone/HospitalContract.sol\":7162:7187  medicine memory _medicine */\n      tag_161\n      tag_162\n      jump\t// in\n    tag_161:\n        /* \"capstone/HospitalContract.sol\":7191:7200  medicines */\n      0x07\n        /* \"capstone/HospitalContract.sol\":7191:7205  medicines[_id] */\n      0x00\n        /* \"capstone/HospitalContract.sol\":7201:7204  _id */\n      dup8\n        /* \"capstone/HospitalContract.sol\":7191:7205  medicines[_id] */\n      dup2\n      mstore\n      0x20\n      add\n      swap1\n      dup2\n      mstore\n      0x20\n      add\n      0x00\n      keccak256\n        /* \"capstone/HospitalContract.sol\":7162:7205  medicine memory _medicine =  medicines[_id] */\n      mload(0x40)\n      dup1\n      0xa0\n      add\n      0x40\n      mstore\n      swap1\n      dup2\n      0x00\n      dup3\n      add\n      sload\n      dup2\n      mstore\n      0x20\n      add\n      0x01\n      dup3\n      add\n      dup1\n      sload\n      0x01\n      dup2\n      0x01\n      and\n      iszero\n      0x0100\n      mul\n      sub\n      and\n      0x02\n      swap1\n      div\n      dup1\n      0x1f\n      add\n      0x20\n      dup1\n      swap2\n      div\n      mul\n      0x20\n      add\n      mload(0x40)\n      swap1\n      dup2\n      add\n      0x40\n      mstore\n      dup1\n      swap3\n      swap2\n      swap1\n      dup2\n      dup2\n      mstore\n      0x20\n      add\n      dup3\n      dup1\n      sload\n      0x01\n      dup2\n      0x01\n      and\n      iszero\n      0x0100\n      mul\n      sub\n      and\n      0x02\n      swap1\n      div\n      dup1\n      iszero\n      tag_163\n      jumpi\n      dup1\n      0x1f\n      lt\n      tag_164\n      jumpi\n      0x0100\n      dup1\n      dup4\n      sload\n      div\n      mul\n      dup4\n      mstore\n      swap2\n      0x20\n      add\n      swap2\n      jump(tag_163)\n    tag_164:\n      dup3\n      add\n      swap2\n      swap1\n      0x00\n      mstore\n      keccak256(0x00, 0x20)\n      swap1\n    tag_165:\n      dup2\n      sload\n      dup2\n      mstore\n      swap1\n      0x01\n      add\n      swap1\n      0x20\n      add\n      dup1\n      dup4\n      gt\n      tag_165\n      jumpi\n      dup3\n      swap1\n      sub\n      0x1f\n      and\n      dup3\n      add\n      swap2\n    tag_163:\n      pop\n      pop\n      pop\n      pop\n      pop\n      dup2\n      mstore\n      0x20\n      add\n      0x02\n      dup3\n      add\n      dup1\n      sload\n      0x01\n      dup2\n      0x01\n      and\n      iszero\n      0x0100\n      mul\n      sub\n      and\n      0x02\n      swap1\n      div\n      dup1\n      0x1f\n      add\n      0x20\n      dup1\n      swap2\n      div\n      mul\n      0x20\n      add\n      mload(0x40)\n      swap1\n      dup2\n      add\n      0x40\n      mstore\n      dup1\n      swap3\n      swap2\n      swap1\n      dup2\n      dup2\n      mstore\n      0x20\n      add\n      dup3\n      dup1\n      sload\n      0x01\n      dup2\n      0x01\n      and\n      iszero\n      0x0100\n      mul\n      sub\n      and\n      0x02\n      swap1\n      div\n      dup1\n      iszero\n      tag_166\n      jumpi\n      dup1\n      0x1f\n      lt\n      tag_167\n      jumpi\n      0x0100\n      dup1\n      dup4\n      sload\n      div\n      mul\n      dup4\n      mstore\n      swap2\n      0x20\n      add\n      swap2\n      jump(tag_166)\n    tag_167:\n      dup3\n      add\n      swap2\n      swap1\n      0x00\n      mstore\n      keccak256(0x00, 0x20)\n      swap1\n    tag_168:\n      dup2\n      sload\n      dup2\n      mstore\n      swap1\n      0x01\n      add\n      swap1\n      0x20\n      add\n      dup1\n      dup4\n      gt\n      tag_168\n      jumpi\n      dup3\n      swap1\n      sub\n      0x1f\n      and\n      dup3\n      add\n      swap2\n    tag_166:\n      pop\n      pop\n      pop\n      pop\n      pop\n      dup2\n      mstore\n      0x20\n      add\n      0x03\n      dup3\n      add\n      sload\n      dup2\n      mstore\n      0x20\n      add\n      0x04\n      dup3\n      add\n      sload\n      dup2\n      mstore\n      pop\n      pop\n      swap1\n      pop\n        /* \"capstone/HospitalContract.sol\":7232:7241  _medicine */\n      dup1\n        /* \"capstone/HospitalContract.sol\":7232:7246  _medicine.name */\n      0x20\n      add\n      mload\n        /* \"capstone/HospitalContract.sol\":7248:7257  _medicine */\n      dup2\n        /* \"capstone/HospitalContract.sol\":7248:7268  _medicine.expiryDate */\n      0x40\n      add\n      mload\n        /* \"capstone/HospitalContract.sol\":7270:7279  _medicine */\n      dup3\n        /* \"capstone/HospitalContract.sol\":7270:7284  _medicine.dose */\n      0x60\n      add\n      mload\n        /* \"capstone/HospitalContract.sol\":7285:7294  _medicine */\n      dup4\n        /* \"capstone/HospitalContract.sol\":7285:7300  _medicine.price */\n      0x80\n      add\n      mload\n        /* \"capstone/HospitalContract.sol\":7224:7301  return (_medicine.name, _medicine.expiryDate, _medicine.dose,_medicine.price) */\n      swap5\n      pop\n      swap5\n      pop\n      swap5\n      pop\n      swap5\n      pop\n      pop\n        /* \"capstone/HospitalContract.sol\":6933:7308  function viewMedicine(uint256 _id)... */\n      swap2\n      swap4\n      pop\n      swap2\n      swap4\n      jump\t// out\n        /* \"capstone/HospitalContract.sol\":6126:6544  function viewRecord()... */\n    tag_88:\n        /* \"capstone/HospitalContract.sol\":6206:6216  uint256 id */\n      0x00\n        /* \"capstone/HospitalContract.sol\":6230:6241  uint256 age */\n      dup1\n        /* \"capstone/HospitalContract.sol\":6255:6273  string memory name */\n      0x60\n        /* \"capstone/HospitalContract.sol\":6287:6308  string memory disease */\n      dup1\n        /* \"capstone/HospitalContract.sol\":6333:6356  patient memory _patient */\n      tag_170\n      tag_171\n      jump\t// in\n    tag_170:\n        /* \"capstone/HospitalContract.sol\":6360:6378  registeredPatients */\n      0x06\n        /* \"capstone/HospitalContract.sol\":6360:6390  registeredPatients[msg.sender] */\n      0x00\n        /* \"capstone/HospitalContract.sol\":6379:6389  msg.sender */\n      caller\n        /* \"capstone/HospitalContract.sol\":6360:6390  registeredPatients[msg.sender] */\n      0xffffffffffffffffffffffffffffffffffffffff\n      and\n      0xffffffffffffffffffffffffffffffffffffffff\n      and\n      dup2\n      mstore\n      0x20\n      add\n      swap1\n      dup2\n      mstore\n      0x20\n      add\n      0x00\n      keccak256\n        /* \"capstone/HospitalContract.sol\":6333:6390  patient memory _patient =  registeredPatients[msg.sender] */\n      mload(0x40)\n      dup1\n      0xc0\n      add\n      0x40\n      mstore\n      swap1\n      dup2\n      0x00\n      dup3\n      add\n      sload\n      dup2\n      mstore\n      0x20\n      add\n      0x01\n      dup3\n      add\n      dup1\n      sload\n      0x01\n      dup2\n      0x01\n      and\n      iszero\n      0x0100\n      mul\n      sub\n      and\n      0x02\n      swap1\n      div\n      dup1\n      0x1f\n      add\n      0x20\n      dup1\n      swap2\n      div\n      mul\n      0x20\n      add\n      mload(0x40)\n      swap1\n      dup2\n      add\n      0x40\n      mstore\n      dup1\n      swap3\n      swap2\n      swap1\n      dup2\n      dup2\n      mstore\n      0x20\n      add\n      dup3\n      dup1\n      sload\n      0x01\n      dup2\n      0x01\n      and\n      iszero\n      0x0100\n      mul\n      sub\n      and\n      0x02\n      swap1\n      div\n      dup1\n      iszero\n      tag_172\n      jumpi\n      dup1\n      0x1f\n      lt\n      tag_173\n      jumpi\n      0x0100\n      dup1\n      dup4\n      sload\n      div\n      mul\n      dup4\n      mstore\n      swap2\n      0x20\n      add\n      swap2\n      jump(tag_172)\n    tag_173:\n      dup3\n      add\n      swap2\n      swap1\n      0x00\n      mstore\n      keccak256(0x00, 0x20)\n      swap1\n    tag_174:\n      dup2\n      sload\n      dup2\n      mstore\n      swap1\n      0x01\n      add\n      swap1\n      0x20\n      add\n      dup1\n      dup4\n      gt\n      tag_174\n      jumpi\n      dup3\n      swap1\n      sub\n      0x1f\n      and\n      dup3\n      add\n      swap2\n    tag_172:\n      pop\n      pop\n      pop\n      pop\n      pop\n      dup2\n      mstore\n      0x20\n      add\n      0x02\n      dup3\n      add\n      sload\n      dup2\n      mstore\n      0x20\n      add\n      0x03\n      dup3\n      add\n      0x00\n      swap1\n      sload\n      swap1\n      0x0100\n      exp\n      swap1\n      div\n      0xffffffffffffffffffffffffffffffffffffffff\n      and\n      0xffffffffffffffffffffffffffffffffffffffff\n      and\n      0xffffffffffffffffffffffffffffffffffffffff\n      and\n      dup2\n      mstore\n      0x20\n      add\n      0x04\n      dup3\n      add\n      dup1\n      sload\n      dup1\n      0x20\n      mul\n      0x20\n      add\n      mload(0x40)\n      swap1\n      dup2\n      add\n      0x40\n      mstore\n      dup1\n      swap3\n      swap2\n      swap1\n      dup2\n      dup2\n      mstore\n      0x20\n      add\n      0x00\n      swap1\n    tag_175:\n      dup3\n      dup3\n      lt\n      iszero\n      tag_176\n      jumpi\n      dup4\n      dup3\n      swap1\n      0x00\n      mstore\n      keccak256(0x00, 0x20)\n      add\n      mload(0x40)\n      dup1\n      0x20\n      add\n      0x40\n      mstore\n      swap1\n      dup2\n      0x00\n      dup3\n      add\n      dup1\n      sload\n      0x01\n      dup2\n      0x01\n      and\n      iszero\n      0x0100\n      mul\n      sub\n      and\n      0x02\n      swap1\n      div\n      dup1\n      0x1f\n      add\n      0x20\n      dup1\n      swap2\n      div\n      mul\n      0x20\n      add\n      mload(0x40)\n      swap1\n      dup2\n      add\n      0x40\n      mstore\n      dup1\n      swap3\n      swap2\n      swap1\n      dup2\n      dup2\n      mstore\n      0x20\n      add\n      dup3\n      dup1\n      sload\n      0x01\n      dup2\n      0x01\n      and\n      iszero\n      0x0100\n      mul\n      sub\n      and\n      0x02\n      swap1\n      div\n      dup1\n      iszero\n      tag_178\n      jumpi\n      dup1\n      0x1f\n      lt\n      tag_179\n      jumpi\n      0x0100\n      dup1\n      dup4\n      sload\n      div\n      mul\n      dup4\n      mstore\n      swap2\n      0x20\n      add\n      swap2\n      jump(tag_178)\n    tag_179:\n      dup3\n      add\n      swap2\n      swap1\n      0x00\n      mstore\n      keccak256(0x00, 0x20)\n      swap1\n    tag_180:\n      dup2\n      sload\n      dup2\n      mstore\n      swap1\n      0x01\n      add\n      swap1\n      0x20\n      add\n      dup1\n      dup4\n      gt\n      tag_180\n      jumpi\n      dup3\n      swap1\n      sub\n      0x1f\n      and\n      dup3\n      add\n      swap2\n    tag_178:\n      pop\n      pop\n      pop\n      pop\n      pop\n      dup2\n      mstore\n      pop\n      pop\n      dup2\n      mstore\n      0x20\n      add\n      swap1\n      0x01\n      add\n      swap1\n      jump(tag_175)\n    tag_176:\n      pop\n      pop\n      pop\n      pop\n      dup2\n      mstore\n      0x20\n      add\n      0x05\n      dup3\n      add\n      dup1\n      sload\n      dup1\n      0x20\n      mul\n      0x20\n      add\n      mload(0x40)\n      swap1\n      dup2\n      add\n      0x40\n      mstore\n      dup1\n      swap3\n      swap2\n      swap1\n      dup2\n      dup2\n      mstore\n      0x20\n      add\n      0x00\n      swap1\n    tag_181:\n      dup3\n      dup3\n      lt\n      iszero\n      tag_182\n      jumpi\n      dup4\n      dup3\n      swap1\n      0x00\n      mstore\n      keccak256(0x00, 0x20)\n      add\n      dup1\n      sload\n      0x01\n      dup2\n      0x01\n      and\n      iszero\n      0x0100\n      mul\n      sub\n      and\n      0x02\n      swap1\n      div\n      dup1\n      0x1f\n      add\n      0x20\n      dup1\n      swap2\n      div\n      mul\n      0x20\n      add\n      mload(0x40)\n      swap1\n      dup2\n      add\n      0x40\n      mstore\n      dup1\n      swap3\n      swap2\n      swap1\n      dup2\n      dup2\n      mstore\n      0x20\n      add\n      dup3\n      dup1\n      sload\n      0x01\n      dup2\n      0x01\n      and\n      iszero\n      0x0100\n      mul\n      sub\n      and\n      0x02\n      swap1\n      div\n      dup1\n      iszero\n      tag_184\n      jumpi\n      dup1\n      0x1f\n      lt\n      tag_185\n      jumpi\n      0x0100\n      dup1\n      dup4\n      sload\n      div\n      mul\n      dup4\n      mstore\n      swap2\n      0x20\n      add\n      swap2\n      jump(tag_184)\n    tag_185:\n      dup3\n      add\n      swap2\n      swap1\n      0x00\n      mstore\n      keccak256(0x00, 0x20)\n      swap1\n    tag_186:\n      dup2\n      sload\n      dup2\n      mstore\n      swap1\n      0x01\n      add\n      swap1\n      0x20\n      add\n      dup1\n      dup4\n      gt\n      tag_186\n      jumpi\n      dup3\n      swap1\n      sub\n      0x1f\n      and\n      dup3\n      add\n      swap2\n    tag_184:\n      pop\n      pop\n      pop\n      pop\n      pop\n      dup2\n      mstore\n      0x20\n      add\n      swap1\n      0x01\n      add\n      swap1\n      jump(tag_181)\n    tag_182:\n      pop\n      pop\n      pop\n      pop\n      dup2\n      mstore\n      pop\n      pop\n      swap1\n      pop\n        /* \"capstone/HospitalContract.sol\":6400:6422  string memory _disease */\n      0x60\n        /* \"capstone/HospitalContract.sol\":6425:6460  diseasesToString(_patient.diseases) */\n      tag_187\n        /* \"capstone/HospitalContract.sol\":6442:6450  _patient */\n      dup3\n        /* \"capstone/HospitalContract.sol\":6442:6459  _patient.diseases */\n      0x80\n      add\n      mload\n        /* \"capstone/HospitalContract.sol\":6425:6441  diseasesToString */\n      tag_188\n        /* \"capstone/HospitalContract.sol\":6425:6460  diseasesToString(_patient.diseases) */\n      jump\t// in\n    tag_187:\n        /* \"capstone/HospitalContract.sol\":6400:6460  string memory _disease = diseasesToString(_patient.diseases) */\n      swap1\n      pop\n        /* \"capstone/HospitalContract.sol\":6487:6495  _patient */\n      dup2\n        /* \"capstone/HospitalContract.sol\":6487:6498  _patient.id */\n      0x00\n      add\n      mload\n        /* \"capstone/HospitalContract.sol\":6500:6508  _patient */\n      dup3\n        /* \"capstone/HospitalContract.sol\":6500:6512  _patient.age */\n      0x40\n      add\n      mload\n        /* \"capstone/HospitalContract.sol\":6514:6522  _patient */\n      dup4\n        /* \"capstone/HospitalContract.sol\":6514:6527  _patient.name */\n      0x20\n      add\n      mload\n        /* \"capstone/HospitalContract.sol\":6528:6536  _disease */\n      dup4\n        /* \"capstone/HospitalContract.sol\":6479:6537  return (_patient.id, _patient.age, _patient.name,_disease) */\n      swap6\n      pop\n      swap6\n      pop\n      swap6\n      pop\n      swap6\n      pop\n      pop\n      pop\n        /* \"capstone/HospitalContract.sol\":6126:6544  function viewRecord()... */\n      swap1\n      swap2\n      swap3\n      swap4\n      jump\t// out\n        /* \"capstone/HospitalContract.sol\":7629:8069  function viewPatientById(uint256 _id)... */\n    tag_99:\n        /* \"capstone/HospitalContract.sol\":7725:7735  uint256 id */\n      0x00\n        /* \"capstone/HospitalContract.sol\":7749:7760  uint256 age */\n      dup1\n        /* \"capstone/HospitalContract.sol\":7774:7792  string memory name */\n      0x60\n        /* \"capstone/HospitalContract.sol\":7806:7827  string memory disease */\n      dup1\n        /* \"capstone/HospitalContract.sol\":7852:7875  patient memory _patient */\n      tag_190\n      tag_171\n      jump\t// in\n    tag_190:\n        /* \"capstone/HospitalContract.sol\":7879:7897  registeredPatients */\n      0x06\n        /* \"capstone/HospitalContract.sol\":7879:7915  registeredPatients[patientList[_id]] */\n      0x00\n        /* \"capstone/HospitalContract.sol\":7898:7909  patientList */\n      0x05\n        /* \"capstone/HospitalContract.sol\":7910:7913  _id */\n      dup9\n        /* \"capstone/HospitalContract.sol\":7898:7914  patientList[_id] */\n      dup2\n      sload\n      dup2\n      lt\n      tag_191\n      jumpi\n      invalid\n    tag_191:\n      swap1\n      0x00\n      mstore\n      keccak256(0x00, 0x20)\n      add\n      0x00\n      swap1\n      sload\n      swap1\n      0x0100\n      exp\n      swap1\n      div\n      0xffffffffffffffffffffffffffffffffffffffff\n      and\n        /* \"capstone/HospitalContract.sol\":7879:7915  registeredPatients[patientList[_id]] */\n      0xffffffffffffffffffffffffffffffffffffffff\n      and\n      0xffffffffffffffffffffffffffffffffffffffff\n      and\n      dup2\n      mstore\n      0x20\n      add\n      swap1\n      dup2\n      mstore\n      0x20\n      add\n      0x00\n      keccak256\n        /* \"capstone/HospitalContract.sol\":7852:7915  patient memory _patient =  registeredPatients[patientList[_id]] */\n      mload(0x40)\n      dup1\n      0xc0\n      add\n      0x40\n      mstore\n      swap1\n      dup2\n      0x00\n      dup3\n      add\n      sload\n      dup2\n      mstore\n      0x20\n      add\n      0x01\n      dup3\n      add\n      dup1\n      sload\n      0x01\n      dup2\n      0x01\n      and\n      iszero\n      0x0100\n      mul\n      sub\n      and\n      0x02\n      swap1\n      div\n      dup1\n      0x1f\n      add\n      0x20\n      dup1\n      swap2\n      div\n      mul\n      0x20\n      add\n      mload(0x40)\n      swap1\n      dup2\n      add\n      0x40\n      mstore\n      dup1\n      swap3\n      swap2\n      swap1\n      dup2\n      dup2\n      mstore\n      0x20\n      add\n      dup3\n      dup1\n      sload\n      0x01\n      dup2\n      0x01\n      and\n      iszero\n      0x0100\n      mul\n      sub\n      and\n      0x02\n      swap1\n      div\n      dup1\n      iszero\n      tag_193\n      jumpi\n      dup1\n      0x1f\n      lt\n      tag_194\n      jumpi\n      0x0100\n      dup1\n      dup4\n      sload\n      div\n      mul\n      dup4\n      mstore\n      swap2\n      0x20\n      add\n      swap2\n      jump(tag_193)\n    tag_194:\n      dup3\n      add\n      swap2\n      swap1\n      0x00\n      mstore\n      keccak256(0x00, 0x20)\n      swap1\n    tag_195:\n      dup2\n      sload\n      dup2\n      mstore\n      swap1\n      0x01\n      add\n      swap1\n      0x20\n      add\n      dup1\n      dup4\n      gt\n      tag_195\n      jumpi\n      dup3\n      swap1\n      sub\n      0x1f\n      and\n      dup3\n      add\n      swap2\n    tag_193:\n      pop\n      pop\n      pop\n      pop\n      pop\n      dup2\n      mstore\n      0x20\n      add\n      0x02\n      dup3\n      add\n      sload\n      dup2\n      mstore\n      0x20\n      add\n      0x03\n      dup3\n      add\n      0x00\n      swap1\n      sload\n      swap1\n      0x0100\n      exp\n      swap1\n      div\n      0xffffffffffffffffffffffffffffffffffffffff\n      and\n      0xffffffffffffffffffffffffffffffffffffffff\n      and\n      0xffffffffffffffffffffffffffffffffffffffff\n      and\n      dup2\n      mstore\n      0x20\n      add\n      0x04\n      dup3\n      add\n      dup1\n      sload\n      dup1\n      0x20\n      mul\n      0x20\n      add\n      mload(0x40)\n      swap1\n      dup2\n      add\n      0x40\n      mstore\n      dup1\n      swap3\n      swap2\n      swap1\n      dup2\n      dup2\n      mstore\n      0x20\n      add\n      0x00\n      swap1\n    tag_196:\n      dup3\n      dup3\n      lt\n      iszero\n      tag_197\n      jumpi\n      dup4\n      dup3\n      swap1\n      0x00\n      mstore\n      keccak256(0x00, 0x20)\n      add\n      mload(0x40)\n      dup1\n      0x20\n      add\n      0x40\n      mstore\n      swap1\n      dup2\n      0x00\n      dup3\n      add\n      dup1\n      sload\n      0x01\n      dup2\n      0x01\n      and\n      iszero\n      0x0100\n      mul\n      sub\n      and\n      0x02\n      swap1\n      div\n      dup1\n      0x1f\n      add\n      0x20\n      dup1\n      swap2\n      div\n      mul\n      0x20\n      add\n      mload(0x40)\n      swap1\n      dup2\n      add\n      0x40\n      mstore\n      dup1\n      swap3\n      swap2\n      swap1\n      dup2\n      dup2\n      mstore\n      0x20\n      add\n      dup3\n      dup1\n      sload\n      0x01\n      dup2\n      0x01\n      and\n      iszero\n      0x0100\n      mul\n      sub\n      and\n      0x02\n      swap1\n      div\n      dup1\n      iszero\n      tag_199\n      jumpi\n      dup1\n      0x1f\n      lt\n      tag_200\n      jumpi\n      0x0100\n      dup1\n      dup4\n      sload\n      div\n      mul\n      dup4\n      mstore\n      swap2\n      0x20\n      add\n      swap2\n      jump(tag_199)\n    tag_200:\n      dup3\n      add\n      swap2\n      swap1\n      0x00\n      mstore\n      keccak256(0x00, 0x20)\n      swap1\n    tag_201:\n      dup2\n      sload\n      dup2\n      mstore\n      swap1\n      0x01\n      add\n      swap1\n      0x20\n      add\n      dup1\n      dup4\n      gt\n      tag_201\n      jumpi\n      dup3\n      swap1\n      sub\n      0x1f\n      and\n      dup3\n      add\n      swap2\n    tag_199:\n      pop\n      pop\n      pop\n      pop\n      pop\n      dup2\n      mstore\n      pop\n      pop\n      dup2\n      mstore\n      0x20\n      add\n      swap1\n      0x01\n      add\n      swap1\n      jump(tag_196)\n    tag_197:\n      pop\n      pop\n      pop\n      pop\n      dup2\n      mstore\n      0x20\n      add\n      0x05\n      dup3\n      add\n      dup1\n      sload\n      dup1\n      0x20\n      mul\n      0x20\n      add\n      mload(0x40)\n      swap1\n      dup2\n      add\n      0x40\n      mstore\n      dup1\n      swap3\n      swap2\n      swap1\n      dup2\n      dup2\n      mstore\n      0x20\n      add\n      0x00\n      swap1\n    tag_202:\n      dup3\n      dup3\n      lt\n      iszero\n      tag_203\n      jumpi\n      dup4\n      dup3\n      swap1\n      0x00\n      mstore\n      keccak256(0x00, 0x20)\n      add\n      dup1\n      sload\n      0x01\n      dup2\n      0x01\n      and\n      iszero\n      0x0100\n      mul\n      sub\n      and\n      0x02\n      swap1\n      div\n      dup1\n      0x1f\n      add\n      0x20\n      dup1\n      swap2\n      div\n      mul\n      0x20\n      add\n      mload(0x40)\n      swap1\n      dup2\n      add\n      0x40\n      mstore\n      dup1\n      swap3\n      swap2\n      swap1\n      dup2\n      dup2\n      mstore\n      0x20\n      add\n      dup3\n      dup1\n      sload\n      0x01\n      dup2\n      0x01\n      and\n      iszero\n      0x0100\n      mul\n      sub\n      and\n      0x02\n      swap1\n      div\n      dup1\n      iszero\n      tag_205\n      jumpi\n      dup1\n      0x1f\n      lt\n      tag_206\n      jumpi\n      0x0100\n      dup1\n      dup4\n      sload\n      div\n      mul\n      dup4\n      mstore\n      swap2\n      0x20\n      add\n      swap2\n      jump(tag_205)\n    tag_206:\n      dup3\n      add\n      swap2\n      swap1\n      0x00\n      mstore\n      keccak256(0x00, 0x20)\n      swap1\n    tag_207:\n      dup2\n      sload\n      dup2\n      mstore\n      swap1\n      0x01\n      add\n      swap1\n      0x20\n      add\n      dup1\n      dup4\n      gt\n      tag_207\n      jumpi\n      dup3\n      swap1\n      sub\n      0x1f\n      and\n      dup3\n      add\n      swap2\n    tag_205:\n      pop\n      pop\n      pop\n      pop\n      pop\n      dup2\n      mstore\n      0x20\n      add\n      swap1\n      0x01\n      add\n      swap1\n      jump(tag_202)\n    tag_203:\n      pop\n      pop\n      pop\n      pop\n      dup2\n      mstore\n      pop\n      pop\n      swap1\n      pop\n        /* \"capstone/HospitalContract.sol\":7925:7947  string memory _disease */\n      0x60\n        /* \"capstone/HospitalContract.sol\":7950:7985  diseasesToString(_patient.diseases) */\n      tag_208\n        /* \"capstone/HospitalContract.sol\":7967:7975  _patient */\n      dup3\n        /* \"capstone/HospitalContract.sol\":7967:7984  _patient.diseases */\n      0x80\n      add\n      mload\n        /* \"capstone/HospitalContract.sol\":7950:7966  diseasesToString */\n      tag_188\n        /* \"capstone/HospitalContract.sol\":7950:7985  diseasesToString(_patient.diseases) */\n      jump\t// in\n    tag_208:\n        /* \"capstone/HospitalContract.sol\":7925:7985  string memory _disease = diseasesToString(_patient.diseases) */\n      swap1\n      pop\n        /* \"capstone/HospitalContract.sol\":8012:8020  _patient */\n      dup2\n        /* \"capstone/HospitalContract.sol\":8012:8023  _patient.id */\n      0x00\n      add\n      mload\n        /* \"capstone/HospitalContract.sol\":8025:8033  _patient */\n      dup3\n        /* \"capstone/HospitalContract.sol\":8025:8037  _patient.age */\n      0x40\n      add\n      mload\n        /* \"capstone/HospitalContract.sol\":8039:8047  _patient */\n      dup4\n        /* \"capstone/HospitalContract.sol\":8039:8052  _patient.name */\n      0x20\n      add\n      mload\n        /* \"capstone/HospitalContract.sol\":8053:8061  _disease */\n      dup4\n        /* \"capstone/HospitalContract.sol\":8004:8062  return (_patient.id, _patient.age, _patient.name,_disease) */\n      swap6\n      pop\n      swap6\n      pop\n      swap6\n      pop\n      swap6\n      pop\n      pop\n      pop\n        /* \"capstone/HospitalContract.sol\":7629:8069  function viewPatientById(uint256 _id)... */\n      swap2\n      swap4\n      pop\n      swap2\n      swap4\n      jump\t// out\n        /* \"capstone/HospitalContract.sol\":1803:2250  function prescriptionsToString (string[] memory _prescriptions) private pure returns (string memory prescriptions) {... */\n    tag_151:\n        /* \"capstone/HospitalContract.sol\":1889:1916  string memory prescriptions */\n      0x60\n        /* \"capstone/HospitalContract.sol\":1942:1953  uint256 len */\n      0x00\n        /* \"capstone/HospitalContract.sol\":1956:1970  _prescriptions */\n      dup3\n        /* \"capstone/HospitalContract.sol\":1956:1977  _prescriptions.length */\n      mload\n        /* \"capstone/HospitalContract.sol\":1942:1977  uint256 len = _prescriptions.length */\n      swap1\n      pop\n        /* \"capstone/HospitalContract.sol\":1993:2002  uint256 i */\n      0x00\n        /* \"capstone/HospitalContract.sol\":1988:2211  for (uint256 i=0;i<len;i++){... */\n    tag_210:\n        /* \"capstone/HospitalContract.sol\":2007:2010  len */\n      dup2\n        /* \"capstone/HospitalContract.sol\":2005:2006  i */\n      dup2\n        /* \"capstone/HospitalContract.sol\":2005:2010  i<len */\n      lt\n        /* \"capstone/HospitalContract.sol\":1988:2211  for (uint256 i=0;i<len;i++){... */\n      iszero\n      tag_211\n      jumpi\n        /* \"capstone/HospitalContract.sol\":2035:2036  0 */\n      0x00\n        /* \"capstone/HospitalContract.sol\":2032:2033  i */\n      dup2\n        /* \"capstone/HospitalContract.sol\":2032:2036  i==0 */\n      eq\n        /* \"capstone/HospitalContract.sol\":2029:2198  if(i==0)... */\n      iszero\n      tag_213\n      jumpi\n        /* \"capstone/HospitalContract.sol\":2066:2080  _prescriptions */\n      dup4\n        /* \"capstone/HospitalContract.sol\":2081:2082  i */\n      dup2\n        /* \"capstone/HospitalContract.sol\":2066:2083  _prescriptions[i] */\n      dup2\n      mload\n      dup2\n      lt\n      tag_214\n      jumpi\n      invalid\n    tag_214:\n      0x20\n      mul\n      0x20\n      add\n      add\n      mload\n        /* \"capstone/HospitalContract.sol\":2050:2083  prescriptions = _prescriptions[i] */\n      swap3\n      pop\n        /* \"capstone/HospitalContract.sol\":2029:2198  if(i==0)... */\n      jump(tag_215)\n    tag_213:\n        /* \"capstone/HospitalContract.sol\":2157:2170  prescriptions */\n      dup3\n        /* \"capstone/HospitalContract.sol\":2179:2193  _prescriptions */\n      dup5\n        /* \"capstone/HospitalContract.sol\":2194:2195  i */\n      dup3\n        /* \"capstone/HospitalContract.sol\":2179:2196  _prescriptions[i] */\n      dup2\n      mload\n      dup2\n      lt\n      tag_216\n      jumpi\n      invalid\n    tag_216:\n      0x20\n      mul\n      0x20\n      add\n      add\n      mload\n        /* \"capstone/HospitalContract.sol\":2140:2197  abi.encodePacked(prescriptions,\", \" ,  _prescriptions[i]) */\n      add(0x20, mload(0x40))\n      dup1\n      dup4\n      dup1\n      mload\n      swap1\n      0x20\n      add\n      swap1\n      dup1\n      dup4\n      dup4\n    tag_217:\n      0x20\n      dup4\n      lt\n      tag_219\n      jumpi\n      dup1\n      mload\n      dup3\n      mstore\n      0x20\n      dup3\n      add\n      swap2\n      pop\n      0x20\n      dup2\n      add\n      swap1\n      pop\n      0x20\n      dup4\n      sub\n      swap3\n      pop\n      jump(tag_217)\n    tag_219:\n      0x01\n      dup4\n      0x20\n      sub\n      0x0100\n      exp\n      sub\n      dup1\n      not\n      dup3\n      mload\n      and\n      dup2\n      dup5\n      mload\n      and\n      dup1\n      dup3\n      or\n      dup6\n      mstore\n      pop\n      pop\n      pop\n      pop\n      pop\n      pop\n      swap1\n      pop\n      add\n      dup1\n      0x2c20000000000000000000000000000000000000000000000000000000000000\n      dup2\n      mstore\n      pop\n      0x02\n      add\n      dup3\n      dup1\n      mload\n      swap1\n      0x20\n      add\n      swap1\n      dup1\n      dup4\n      dup4\n    tag_220:\n      0x20\n      dup4\n      lt\n      tag_222\n      jumpi\n      dup1\n      mload\n      dup3\n      mstore\n      0x20\n      dup3\n      add\n      swap2\n      pop\n      0x20\n      dup2\n      add\n      swap1\n      pop\n      0x20\n      dup4\n      sub\n      swap3\n      pop\n      jump(tag_220)\n    tag_222:\n      0x01\n      dup4\n      0x20\n      sub\n      0x0100\n      exp\n      sub\n      dup1\n      not\n      dup3\n      mload\n      and\n      dup2\n      dup5\n      mload\n      and\n      dup1\n      dup3\n      or\n      dup6\n      mstore\n      pop\n      pop\n      pop\n      pop\n      pop\n      pop\n      swap1\n      pop\n      add\n      swap3\n      pop\n      pop\n      pop\n      mload(0x40)\n      0x20\n      dup2\n      dup4\n      sub\n      sub\n      dup2\n      mstore\n      swap1\n      0x40\n      mstore\n        /* \"capstone/HospitalContract.sol\":2116:2198  prescriptions =  string(abi.encodePacked(prescriptions,\", \" ,  _prescriptions[i])) */\n      swap3\n      pop\n        /* \"capstone/HospitalContract.sol\":2029:2198  if(i==0)... */\n    tag_215:\n        /* \"capstone/HospitalContract.sol\":2011:2014  i++ */\n      dup1\n      dup1\n      0x01\n      add\n      swap2\n      pop\n      pop\n        /* \"capstone/HospitalContract.sol\":1988:2211  for (uint256 i=0;i<len;i++){... */\n      jump(tag_210)\n    tag_211:\n      pop\n        /* \"capstone/HospitalContract.sol\":2221:2243  return (prescriptions) */\n      pop\n        /* \"capstone/HospitalContract.sol\":1803:2250  function prescriptionsToString (string[] memory _prescriptions) private pure returns (string memory prescriptions) {... */\n      swap2\n      swap1\n      pop\n      jump\t// out\n        /* \"capstone/HospitalContract.sol\":2319:2716  function uint2str(uint _i) internal pure returns (string memory _uintAsString) {... */\n    tag_154:\n        /* \"capstone/HospitalContract.sol\":2369:2396  string memory _uintAsString */\n      0x60\n        /* \"capstone/HospitalContract.sol\":2414:2415  0 */\n      0x00\n        /* \"capstone/HospitalContract.sol\":2408:2410  _i */\n      dup3\n        /* \"capstone/HospitalContract.sol\":2408:2415  _i == 0 */\n      eq\n        /* \"capstone/HospitalContract.sol\":2404:2444  if (_i == 0) {... */\n      iszero\n      tag_224\n      jumpi\n        /* \"capstone/HospitalContract.sol\":2427:2437  return \"0\" */\n      mload(0x40)\n      dup1\n      0x40\n      add\n      0x40\n      mstore\n      dup1\n      0x01\n      dup2\n      mstore\n      0x20\n      add\n      0x3000000000000000000000000000000000000000000000000000000000000000\n      dup2\n      mstore\n      pop\n      swap1\n      pop\n      jump(tag_223)\n        /* \"capstone/HospitalContract.sol\":2404:2444  if (_i == 0) {... */\n    tag_224:\n        /* \"capstone/HospitalContract.sol\":2449:2455  uint j */\n      0x00\n        /* \"capstone/HospitalContract.sol\":2458:2460  _i */\n      dup3\n        /* \"capstone/HospitalContract.sol\":2449:2460  uint j = _i */\n      swap1\n      pop\n        /* \"capstone/HospitalContract.sol\":2466:2474  uint len */\n      0x00\n        /* \"capstone/HospitalContract.sol\":2480:2534  while (j != 0) {... */\n    tag_225:\n        /* \"capstone/HospitalContract.sol\":2492:2493  0 */\n      0x00\n        /* \"capstone/HospitalContract.sol\":2487:2488  j */\n      dup3\n        /* \"capstone/HospitalContract.sol\":2487:2493  j != 0 */\n      eq\n        /* \"capstone/HospitalContract.sol\":2480:2534  while (j != 0) {... */\n      tag_226\n      jumpi\n        /* \"capstone/HospitalContract.sol\":2505:2510  len++ */\n      dup1\n      dup1\n      0x01\n      add\n      swap2\n      pop\n      pop\n        /* \"capstone/HospitalContract.sol\":2525:2527  10 */\n      0x0a\n        /* \"capstone/HospitalContract.sol\":2520:2527  j /= 10 */\n      dup3\n      dup2\n      tag_227\n      jumpi\n      invalid\n    tag_227:\n      div\n      swap2\n      pop\n        /* \"capstone/HospitalContract.sol\":2480:2534  while (j != 0) {... */\n      jump(tag_225)\n    tag_226:\n        /* \"capstone/HospitalContract.sol\":2539:2556  bytes memory bstr */\n      0x60\n        /* \"capstone/HospitalContract.sol\":2569:2572  len */\n      dup2\n        /* \"capstone/HospitalContract.sol\":2559:2573  new bytes(len) */\n      0xffffffffffffffff\n      dup2\n      gt\n      dup1\n      iszero\n      tag_228\n      jumpi\n      0x00\n      dup1\n      revert\n    tag_228:\n      pop\n      mload(0x40)\n      swap1\n      dup1\n      dup3\n      mstore\n      dup1\n      0x1f\n      add\n      not(0x1f)\n      and\n      0x20\n      add\n      dup3\n      add\n      0x40\n      mstore\n      dup1\n      iszero\n      tag_229\n      jumpi\n      dup2\n      0x20\n      add\n      0x01\n      dup3\n      mul\n      dup1\n      calldatasize\n      dup4\n      calldatacopy\n      dup1\n      dup3\n      add\n      swap2\n      pop\n      pop\n      swap1\n      pop\n    tag_229:\n      pop\n        /* \"capstone/HospitalContract.sol\":2539:2573  bytes memory bstr = new bytes(len) */\n      swap1\n      pop\n        /* \"capstone/HospitalContract.sol\":2579:2585  uint k */\n      0x00\n        /* \"capstone/HospitalContract.sol\":2594:2595  1 */\n      0x01\n        /* \"capstone/HospitalContract.sol\":2588:2591  len */\n      dup4\n        /* \"capstone/HospitalContract.sol\":2588:2595  len - 1 */\n      sub\n        /* \"capstone/HospitalContract.sol\":2579:2595  uint k = len - 1 */\n      swap1\n      pop\n        /* \"capstone/HospitalContract.sol\":2601:2689  while (_i != 0) {... */\n    tag_230:\n        /* \"capstone/HospitalContract.sol\":2614:2615  0 */\n      0x00\n        /* \"capstone/HospitalContract.sol\":2608:2610  _i */\n      dup7\n        /* \"capstone/HospitalContract.sol\":2608:2615  _i != 0 */\n      eq\n        /* \"capstone/HospitalContract.sol\":2601:2689  while (_i != 0) {... */\n      tag_231\n      jumpi\n        /* \"capstone/HospitalContract.sol\":2660:2662  10 */\n      0x0a\n        /* \"capstone/HospitalContract.sol\":2655:2657  _i */\n      dup7\n        /* \"capstone/HospitalContract.sol\":2655:2662  _i % 10 */\n      dup2\n      tag_232\n      jumpi\n      invalid\n    tag_232:\n      mod\n        /* \"capstone/HospitalContract.sol\":2650:2652  48 */\n      0x30\n        /* \"capstone/HospitalContract.sol\":2650:2662  48 + _i % 10 */\n      add\n        /* \"capstone/HospitalContract.sol\":2639:2664  byte(uint8(48 + _i % 10)) */\n      0xf8\n      shl\n        /* \"capstone/HospitalContract.sol\":2627:2631  bstr */\n      dup3\n        /* \"capstone/HospitalContract.sol\":2632:2635  k-- */\n      dup3\n      dup1\n      0x01\n      swap1\n      sub\n      swap4\n      pop\n        /* \"capstone/HospitalContract.sol\":2627:2636  bstr[k--] */\n      dup2\n      mload\n      dup2\n      lt\n      tag_233\n      jumpi\n      invalid\n    tag_233:\n      0x20\n      add\n      add\n        /* \"capstone/HospitalContract.sol\":2627:2664  bstr[k--] = byte(uint8(48 + _i % 10)) */\n      swap1\n      not(0xffffffffffffffffffffffffffffffffffffffffffffffffffffffffffffff)\n      and\n      swap1\n      dup2\n      0x00\n      byte\n      swap1\n      mstore8\n      pop\n        /* \"capstone/HospitalContract.sol\":2680:2682  10 */\n      0x0a\n        /* \"capstone/HospitalContract.sol\":2674:2682  _i /= 10 */\n      dup7\n      dup2\n      tag_234\n      jumpi\n      invalid\n    tag_234:\n      div\n      swap6\n      pop\n        /* \"capstone/HospitalContract.sol\":2601:2689  while (_i != 0) {... */\n      jump(tag_230)\n    tag_231:\n        /* \"capstone/HospitalContract.sol\":2708:2712  bstr */\n      dup2\n        /* \"capstone/HospitalContract.sol\":2694:2713  return string(bstr) */\n      swap5\n      pop\n      pop\n      pop\n      pop\n      pop\n        /* \"capstone/HospitalContract.sol\":2319:2716  function uint2str(uint _i) internal pure returns (string memory _uintAsString) {... */\n    tag_223:\n      swap2\n      swap1\n      pop\n      jump\t// out\n        /* \"capstone/HospitalContract.sol\":1252:1708  function diseasesToString (Disease[] memory _diseases) private pure returns (string memory diseases) {... */\n    tag_188:\n        /* \"capstone/HospitalContract.sol\":1329:1351  string memory diseases */\n      0x60\n        /* \"capstone/HospitalContract.sol\":1363:1389  string memory _diseasesStr */\n      dup1\n        /* \"capstone/HospitalContract.sol\":1409:1420  uint256 len */\n      0x00\n        /* \"capstone/HospitalContract.sol\":1423:1432  _diseases */\n      dup4\n        /* \"capstone/HospitalContract.sol\":1423:1439  _diseases.length */\n      mload\n        /* \"capstone/HospitalContract.sol\":1409:1439  uint256 len = _diseases.length */\n      swap1\n      pop\n        /* \"capstone/HospitalContract.sol\":1455:1464  uint256 i */\n      0x00\n        /* \"capstone/HospitalContract.sol\":1450:1670  for (uint256 i=0;i<len;i++){... */\n    tag_236:\n        /* \"capstone/HospitalContract.sol\":1469:1472  len */\n      dup2\n        /* \"capstone/HospitalContract.sol\":1467:1468  i */\n      dup2\n        /* \"capstone/HospitalContract.sol\":1467:1472  i<len */\n      lt\n        /* \"capstone/HospitalContract.sol\":1450:1670  for (uint256 i=0;i<len;i++){... */\n      iszero\n      tag_237\n      jumpi\n        /* \"capstone/HospitalContract.sol\":1497:1498  0 */\n      0x00\n        /* \"capstone/HospitalContract.sol\":1494:1495  i */\n      dup2\n        /* \"capstone/HospitalContract.sol\":1494:1498  i==0 */\n      eq\n        /* \"capstone/HospitalContract.sol\":1491:1657  if(i==0)... */\n      iszero\n      tag_239\n      jumpi\n        /* \"capstone/HospitalContract.sol\":1527:1536  _diseases */\n      dup5\n        /* \"capstone/HospitalContract.sol\":1537:1538  i */\n      dup2\n        /* \"capstone/HospitalContract.sol\":1527:1539  _diseases[i] */\n      dup2\n      mload\n      dup2\n      lt\n      tag_240\n      jumpi\n      invalid\n    tag_240:\n      0x20\n      mul\n      0x20\n      add\n      add\n      mload\n        /* \"capstone/HospitalContract.sol\":1527:1544  _diseases[i].name */\n      0x00\n      add\n      mload\n        /* \"capstone/HospitalContract.sol\":1512:1544  _diseasesStr = _diseases[i].name */\n      swap3\n      pop\n        /* \"capstone/HospitalContract.sol\":1491:1657  if(i==0)... */\n      jump(tag_241)\n    tag_239:\n        /* \"capstone/HospitalContract.sol\":1617:1629  _diseasesStr */\n      dup3\n        /* \"capstone/HospitalContract.sol\":1638:1647  _diseases */\n      dup6\n        /* \"capstone/HospitalContract.sol\":1648:1649  i */\n      dup3\n        /* \"capstone/HospitalContract.sol\":1638:1650  _diseases[i] */\n      dup2\n      mload\n      dup2\n      lt\n      tag_242\n      jumpi\n      invalid\n    tag_242:\n      0x20\n      mul\n      0x20\n      add\n      add\n      mload\n        /* \"capstone/HospitalContract.sol\":1638:1655  _diseases[i].name */\n      0x00\n      add\n      mload\n        /* \"capstone/HospitalContract.sol\":1600:1656  abi.encodePacked(_diseasesStr,\", \" ,  _diseases[i].name) */\n      add(0x20, mload(0x40))\n      dup1\n      dup4\n      dup1\n      mload\n      swap1\n      0x20\n      add\n      swap1\n      dup1\n      dup4\n      dup4\n    tag_243:\n      0x20\n      dup4\n      lt\n      tag_245\n      jumpi\n      dup1\n      mload\n      dup3\n      mstore\n      0x20\n      dup3\n      add\n      swap2\n      pop\n      0x20\n      dup2\n      add\n      swap1\n      pop\n      0x20\n      dup4\n      sub\n      swap3\n      pop\n      jump(tag_243)\n    tag_245:\n      0x01\n      dup4\n      0x20\n      sub\n      0x0100\n      exp\n      sub\n      dup1\n      not\n      dup3\n      mload\n      and\n      dup2\n      dup5\n      mload\n      and\n      dup1\n      dup3\n      or\n      dup6\n      mstore\n      pop\n      pop\n      pop\n      pop\n      pop\n      pop\n      swap1\n      pop\n      add\n      dup1\n      0x2c20000000000000000000000000000000000000000000000000000000000000\n      dup2\n      mstore\n      pop\n      0x02\n      add\n      dup3\n      dup1\n      mload\n      swap1\n      0x20\n      add\n      swap1\n      dup1\n      dup4\n      dup4\n    tag_246:\n      0x20\n      dup4\n      lt\n      tag_248\n      jumpi\n      dup1\n      mload\n      dup3\n      mstore\n      0x20\n      dup3\n      add\n      swap2\n      pop\n      0x20\n      dup2\n      add\n      swap1\n      pop\n      0x20\n      dup4\n      sub\n      swap3\n      pop\n      jump(tag_246)\n    tag_248:\n      0x01\n      dup4\n      0x20\n      sub\n      0x0100\n      exp\n      sub\n      dup1\n      not\n      dup3\n      mload\n      and\n      dup2\n      dup5\n      mload\n      and\n      dup1\n      dup3\n      or\n      dup6\n      mstore\n      pop\n      pop\n      pop\n      pop\n      pop\n      pop\n      swap1\n      pop\n      add\n      swap3\n      pop\n      pop\n      pop\n      mload(0x40)\n      0x20\n      dup2\n      dup4\n      sub\n      sub\n      dup2\n      mstore\n      swap1\n      0x40\n      mstore\n        /* \"capstone/HospitalContract.sol\":1577:1657  _diseasesStr =  string(abi.encodePacked(_diseasesStr,\", \" ,  _diseases[i].name)) */\n      swap3\n      pop\n        /* \"capstone/HospitalContract.sol\":1491:1657  if(i==0)... */\n    tag_241:\n        /* \"capstone/HospitalContract.sol\":1473:1476  i++ */\n      dup1\n      dup1\n      0x01\n      add\n      swap2\n      pop\n      pop\n        /* \"capstone/HospitalContract.sol\":1450:1670  for (uint256 i=0;i<len;i++){... */\n      jump(tag_236)\n    tag_237:\n      pop\n        /* \"capstone/HospitalContract.sol\":1688:1700  _diseasesStr */\n      dup2\n        /* \"capstone/HospitalContract.sol\":1680:1701  return (_diseasesStr) */\n      swap3\n      pop\n      pop\n      pop\n        /* \"capstone/HospitalContract.sol\":1252:1708  function diseasesToString (Disease[] memory _diseases) private pure returns (string memory diseases) {... */\n      swap2\n      swap1\n      pop\n      jump\t// out\n    tag_110:\n      dup3\n      dup1\n      sload\n      0x01\n      dup2\n      0x01\n      and\n      iszero\n      0x0100\n      mul\n      sub\n      and\n      0x02\n      swap1\n      div\n      swap1\n      0x00\n      mstore\n      keccak256(0x00, 0x20)\n      swap1\n      0x1f\n      add\n      0x20\n      swap1\n      div\n      dup2\n      add\n      swap3\n      dup3\n      0x1f\n      lt\n      tag_250\n      jumpi\n      dup1\n      mload\n      not(0xff)\n      and\n      dup4\n      dup1\n      add\n      or\n      dup6\n      sstore\n      jump(tag_249)\n    tag_250:\n      dup3\n      dup1\n      add\n      0x01\n      add\n      dup6\n      sstore\n      dup3\n      iszero\n      tag_249\n      jumpi\n      swap2\n      dup3\n      add\n    tag_251:\n      dup3\n      dup2\n      gt\n      iszero\n      tag_252\n      jumpi\n      dup3\n      mload\n      dup3\n      sstore\n      swap2\n      0x20\n      add\n      swap2\n      swap1\n      0x01\n      add\n      swap1\n      jump(tag_251)\n    tag_252:\n    tag_249:\n      pop\n      swap1\n      pop\n      tag_253\n      swap2\n      swap1\n      tag_254\n      jump\t// in\n    tag_253:\n      pop\n      swap1\n      jump\t// out\n    tag_125:\n      mload(0x40)\n      dup1\n      0xa0\n      add\n      0x40\n      mstore\n      dup1\n      0x00\n      dup2\n      mstore\n      0x20\n      add\n      0x60\n      dup2\n      mstore\n      0x20\n      add\n      0x60\n      dup2\n      mstore\n      0x20\n      add\n      0x60\n      dup2\n      mstore\n      0x20\n      add\n      and(0xffffffffffffffffffffffffffffffffffffffff, 0x00)\n      dup2\n      mstore\n      pop\n      swap1\n      jump\t// out\n    tag_162:\n      mload(0x40)\n      dup1\n      0xa0\n      add\n      0x40\n      mstore\n      dup1\n      0x00\n      dup2\n      mstore\n      0x20\n      add\n      0x60\n      dup2\n      mstore\n      0x20\n      add\n      0x60\n      dup2\n      mstore\n      0x20\n      add\n      0x00\n      dup2\n      mstore\n      0x20\n      add\n      0x00\n      dup2\n      mstore\n      pop\n      swap1\n      jump\t// out\n    tag_171:\n      mload(0x40)\n      dup1\n      0xc0\n      add\n      0x40\n      mstore\n      dup1\n      0x00\n      dup2\n      mstore\n      0x20\n      add\n      0x60\n      dup2\n      mstore\n      0x20\n      add\n      0x00\n      dup2\n      mstore\n      0x20\n      add\n      and(0xffffffffffffffffffffffffffffffffffffffff, 0x00)\n      dup2\n      mstore\n      0x20\n      add\n      0x60\n      dup2\n      mstore\n      0x20\n      add\n      0x60\n      dup2\n      mstore\n      pop\n      swap1\n      jump\t// out\n    tag_254:\n    tag_255:\n      dup1\n      dup3\n      gt\n      iszero\n      tag_256\n      jumpi\n      0x00\n      dup2\n      0x00\n      swap1\n      sstore\n      pop\n      0x01\n      add\n      jump(tag_255)\n    tag_256:\n      pop\n      swap1\n      jump\t// out\n\n    auxdata: 0xa26469706673582212203d6329293aaba9df2e334f1f45a48259d7c58aa40c137789678a331d2a02865464736f6c634300060c0033\n}\n",
				"bytecode": {
					"linkReferences": {},
					"object": "608060405234801561001057600080fd5b50336000806101000a81548173ffffffffffffffffffffffffffffffffffffffff021916908373ffffffffffffffffffffffffffffffffffffffff16021790555061253e806100606000396000f3fe608060405234801561001057600080fd5b50600436106100a95760003560e01c8063d36000ed11610071578063d36000ed14610686578063dcd0c2b214610743578063ddd865e814610791578063ddfe2e871461084c578063f01319ed1461096d578063f775f6f614610a6a576100a9565b80633e27f719146100ae57806350c7a9121461021e5780637d625c07146104075780638609acde146104355780639acedf89146105bb575b600080fd5b61021c600480360360a08110156100c457600080fd5b8101908080359060200190929190803590602001906401000000008111156100eb57600080fd5b8201836020820111156100fd57600080fd5b8035906020019184600183028401116401000000008311171561011f57600080fd5b91908080601f016020809104026020016040519081016040528093929190818152602001838380828437600081840152601f19601f8201169050808301925050505050505091929192908035906020019064010000000081111561018257600080fd5b82018360208201111561019457600080fd5b803590602001918460018302840111640100000000831117156101b657600080fd5b91908080601f016020809104026020016040519081016040528093929190818152602001838380828437600081840152601f19601f8201169050808301925050505050505091929192908035906020019092919080359060200190929190505050610b8b565b005b6104056004803603606081101561023457600080fd5b810190808035906020019064010000000081111561025157600080fd5b82018360208201111561026357600080fd5b8035906020019184600183028401116401000000008311171561028557600080fd5b91908080601f016020809104026020016040519081016040528093929190818152602001838380828437600081840152601f19601f820116905080830192505050505050509192919290803590602001906401000000008111156102e857600080fd5b8201836020820111156102fa57600080fd5b8035906020019184600183028401116401000000008311171561031c57600080fd5b91908080601f016020809104026020016040519081016040528093929190818152602001838380828437600081840152601f19601f8201169050808301925050505050505091929192908035906020019064010000000081111561037f57600080fd5b82018360208201111561039157600080fd5b803590602001918460018302840111640100000000831117156103b357600080fd5b91908080601f016020809104026020016040519081016040528093929190818152602001838380828437600081840152601f19601f820116905080830192505050505050509192919290505050610c39565b005b6104336004803603602081101561041d57600080fd5b8101908080359060200190929190505050610ec8565b005b6104616004803603602081101561044b57600080fd5b8101908080359060200190929190505050610f18565b60405180858152602001806020018060200180602001848103845287818151815260200191508051906020019080838360005b838110156104af578082015181840152602081019050610494565b50505050905090810190601f1680156104dc5780820380516001836020036101000a031916815260200191505b50848103835286818151815260200191508051906020019080838360005b838110156105155780820151818401526020810190506104fa565b50505050905090810190601f1680156105425780820380516001836020036101000a031916815260200191505b50848103825285818151815260200191508051906020019080838360005b8381101561057b578082015181840152602081019050610560565b50505050905090810190601f1680156105a85780820380516001836020036101000a031916815260200191505b5097505050505050505060405180910390f35b610684600480360360408110156105d157600080fd5b81019080803590602001906401000000008111156105ee57600080fd5b82018360208201111561060057600080fd5b8035906020019184600183028401116401000000008311171561062257600080fd5b91908080601f016020809104026020016040519081016040528093929190818152602001838380828437600081840152601f19601f820116905080830192505050505050509192919290803563ffffffff169060200190929190505050611214565b005b6106c86004803603602081101561069c57600080fd5b81019080803573ffffffffffffffffffffffffffffffffffffffff16906020019092919050505061148e565b6040518080602001828103825283818151815260200191508051906020019080838360005b838110156107085780820151818401526020810190506106ed565b50505050905090810190601f1680156107355780820380516001836020036101000a031916815260200191505b509250505060405180910390f35b61078f6004803603604081101561075957600080fd5b8101908080359060200190929190803573ffffffffffffffffffffffffffffffffffffffff1690602001909291905050506115c6565b005b61084a600480360360208110156107a757600080fd5b81019080803590602001906401000000008111156107c457600080fd5b8201836020820111156107d657600080fd5b803590602001918460018302840111640100000000831117156107f857600080fd5b91908080601f016020809104026020016040519081016040528093929190818152602001838380828437600081840152601f19601f82011690508083019250505050505050919291929050505061164e565b005b6108786004803603602081101561086257600080fd5b81019080803590602001909291905050506116e6565b604051808060200180602001858152602001848152602001838103835287818151815260200191508051906020019080838360005b838110156108c85780820151818401526020810190506108ad565b50505050905090810190601f1680156108f55780820380516001836020036101000a031916815260200191505b50838103825286818151815260200191508051906020019080838360005b8381101561092e578082015181840152602081019050610913565b50505050905090810190601f16801561095b5780820380516001836020036101000a031916815260200191505b50965050505050505060405180910390f35b61097561189a565b604051808581526020018481526020018060200180602001838103835285818151815260200191508051906020019080838360005b838110156109c55780820151818401526020810190506109aa565b50505050905090810190601f1680156109f25780820380516001836020036101000a031916815260200191505b50838103825284818151815260200191508051906020019080838360005b83811015610a2b578082015181840152602081019050610a10565b50505050905090810190601f168015610a585780820380516001836020036101000a031916815260200191505b50965050505050505060405180910390f35b610a9660048036036020811015610a8057600080fd5b8101908080359060200190929190505050611c17565b604051808581526020018481526020018060200180602001838103835285818151815260200191508051906020019080838360005b83811015610ae6578082015181840152602081019050610acb565b50505050905090810190601f168015610b135780820380516001836020036101000a031916815260200191505b50838103825284818151815260200191508051906020019080838360005b83811015610b4c578082015181840152602081019050610b31565b50505050905090810190601f168015610b795780820380516001836020036101000a031916815260200191505b50965050505050505060405180910390f35b84600760008781526020019081526020016000206000018190555083600760008781526020019081526020016000206001019080519060200190610bd09291906123ab565b5082600760008781526020019081526020016000206002019080519060200190610bfb9291906123ab565b508160076000878152602001908152602001600020600301819055508060076000878152602001908152602001600020600401819055505050505050565b60008054906101000a900473ffffffffffffffffffffffffffffffffffffffff1673ffffffffffffffffffffffffffffffffffffffff163373ffffffffffffffffffffffffffffffffffffffff1614610c9157600080fd5b6003339080600181540180825580915050600190039060005260206000200160009091909190916101000a81548173ffffffffffffffffffffffffffffffffffffffff021916908373ffffffffffffffffffffffffffffffffffffffff1602179055506040518060a0016040528060025481526020018481526020018381526020018281526020013373ffffffffffffffffffffffffffffffffffffffff16815250600460003373ffffffffffffffffffffffffffffffffffffffff1673ffffffffffffffffffffffffffffffffffffffff168152602001908152602001600020600082015181600001556020820151816001019080519060200190610d989291906123ab565b506040820151816002019080519060200190610db59291906123ab565b506060820151816003019080519060200190610dd29291906123ab565b5060808201518160040160006101000a81548173ffffffffffffffffffffffffffffffffffffffff021916908373ffffffffffffffffffffffffffffffffffffffff160217905550905050600160025401600281905550826040518082805190602001908083835b60208310610e5d5780518252602082019150602081019050602083039250610e3a565b6001836020036101000a03801982511681845116808217855250505050505090500191505060405180910390207fe30ba994f0dd73cfb5c03048c44efd518688ac1675527480fd0afff45d9bee2a6002546040518082815260200191505060405180910390a2505050565b6000600660003373ffffffffffffffffffffffffffffffffffffffff1673ffffffffffffffffffffffffffffffffffffffff16815260200190815260200160002090508181600201819055505050565b60006060806060610f2761242b565b6004600060038881548110610f3857fe5b9060005260206000200160009054906101000a900473ffffffffffffffffffffffffffffffffffffffff1673ffffffffffffffffffffffffffffffffffffffff1673ffffffffffffffffffffffffffffffffffffffff1681526020019081526020016000206040518060a001604052908160008201548152602001600182018054600181600116156101000203166002900480601f01602080910402602001604051908101604052809291908181526020018280546001816001161561010002031660029004801561104b5780601f106110205761010080835404028352916020019161104b565b820191906000526020600020905b81548152906001019060200180831161102e57829003601f168201915b50505050508152602001600282018054600181600116156101000203166002900480601f0160208091040260200160405190810160405280929190818152602001828054600181600116156101000203166002900480156110ed5780601f106110c2576101008083540402835291602001916110ed565b820191906000526020600020905b8154815290600101906020018083116110d057829003601f168201915b50505050508152602001600382018054600181600116156101000203166002900480601f01602080910402602001604051908101604052809291908181526020018280546001816001161561010002031660029004801561118f5780601f106111645761010080835404028352916020019161118f565b820191906000526020600020905b81548152906001019060200180831161117257829003601f168201915b505050505081526020016004820160009054906101000a900473ffffffffffffffffffffffffffffffffffffffff1673ffffffffffffffffffffffffffffffffffffffff1673ffffffffffffffffffffffffffffffffffffffff1681525050905080600001518160200151826040015183606001519450945094509450509193509193565b6005339080600181540180825580915050600190039060005260206000200160009091909190916101000a81548173ffffffffffffffffffffffffffffffffffffffff021916908373ffffffffffffffffffffffffffffffffffffffff160217905550600154600660003373ffffffffffffffffffffffffffffffffffffffff1673ffffffffffffffffffffffffffffffffffffffff1681526020019081526020016000206000018190555081600660003373ffffffffffffffffffffffffffffffffffffffff1673ffffffffffffffffffffffffffffffffffffffff16815260200190815260200160002060010190805190602001906113169291906123ab565b508063ffffffff16600660003373ffffffffffffffffffffffffffffffffffffffff1673ffffffffffffffffffffffffffffffffffffffff1681526020019081526020016000206002018190555033600660003373ffffffffffffffffffffffffffffffffffffffff1673ffffffffffffffffffffffffffffffffffffffff16815260200190815260200160002060030160006101000a81548173ffffffffffffffffffffffffffffffffffffffff021916908373ffffffffffffffffffffffffffffffffffffffff1602179055506001805401600181905550816040518082805190602001908083835b602083106114245780518252602082019150602081019050602083039250611401565b6001836020036101000a03801982511681845116808217855250505050505090500191505060405180910390207fbb14e28f056f3cbe5e3ebfd324696bf39b0a42190a192a7c3957b23dfb7ab3ce6001546040518082815260200191505060405180910390a25050565b6060806115bb600660008573ffffffffffffffffffffffffffffffffffffffff1673ffffffffffffffffffffffffffffffffffffffff168152602001908152602001600020600501805480602002602001604051908101604052809291908181526020016000905b828210156115b2578382906000526020600020018054600181600116156101000203166002900480601f01602080910402602001604051908101604052809291908181526020018280546001816001161561010002031660029004801561159e5780601f106115735761010080835404028352916020019161159e565b820191906000526020600020905b81548152906001019060200180831161158157829003601f168201915b5050505050815260200190600101906114f6565b50505050611fcc565b905080915050919050565b600660008273ffffffffffffffffffffffffffffffffffffffff1673ffffffffffffffffffffffffffffffffffffffff16815260200190815260200160002060050161161183612113565b9080600181540180825580915050600190039060005260206000200160009091909190915090805190602001906116499291906123ab565b505050565b600660003373ffffffffffffffffffffffffffffffffffffffff1673ffffffffffffffffffffffffffffffffffffffff1681526020019081526020016000206004016040518060200160405280838152509080600181540180825580915050600190039060005260206000200160009091909190915060008201518160000190805190602001906116e09291906123ab565b50505050565b6060806000806116f4612470565b600760008781526020019081526020016000206040518060a001604052908160008201548152602001600182018054600181600116156101000203166002900480601f0160208091040260200160405190810160405280929190818152602001828054600181600116156101000203166002900480156117b55780601f1061178a576101008083540402835291602001916117b5565b820191906000526020600020905b81548152906001019060200180831161179857829003601f168201915b50505050508152602001600282018054600181600116156101000203166002900480601f0160208091040260200160405190810160405280929190818152602001828054600181600116156101000203166002900480156118575780601f1061182c57610100808354040283529160200191611857565b820191906000526020600020905b81548152906001019060200180831161183a57829003601f168201915b5050505050815260200160038201548152602001600482015481525050905080602001518160400151826060015183608001519450945094509450509193509193565b6000806060806118a861249f565b600660003373ffffffffffffffffffffffffffffffffffffffff1673ffffffffffffffffffffffffffffffffffffffff1681526020019081526020016000206040518060c001604052908160008201548152602001600182018054600181600116156101000203166002900480601f0160208091040260200160405190810160405280929190818152602001828054600181600116156101000203166002900480156119955780601f1061196a57610100808354040283529160200191611995565b820191906000526020600020905b81548152906001019060200180831161197857829003601f168201915b50505050508152602001600282015481526020016003820160009054906101000a900473ffffffffffffffffffffffffffffffffffffffff1673ffffffffffffffffffffffffffffffffffffffff1673ffffffffffffffffffffffffffffffffffffffff16815260200160048201805480602002602001604051908101604052809291908181526020016000905b82821015611af357838290600052602060002001604051806020016040529081600082018054600181600116156101000203166002900480601f016020809104026020016040519081016040528092919081815260200182805460018160011615610100020316600290048015611adb5780601f10611ab057610100808354040283529160200191611adb565b820191906000526020600020905b815481529060010190602001808311611abe57829003601f168201915b50505050508152505081526020019060010190611a23565b50505050815260200160058201805480602002602001604051908101604052809291908181526020016000905b82821015611bdc578382906000526020600020018054600181600116156101000203166002900480601f016020809104026020016040519081016040528092919081815260200182805460018160011615610100020316600290048015611bc85780601f10611b9d57610100808354040283529160200191611bc8565b820191906000526020600020905b815481529060010190602001808311611bab57829003601f168201915b505050505081526020019060010190611b20565b505050508152505090506060611bf58260800151612257565b9050816000015182604001518360200151839550955095509550505090919293565b600080606080611c2561249f565b6006600060058881548110611c3657fe5b9060005260206000200160009054906101000a900473ffffffffffffffffffffffffffffffffffffffff1673ffffffffffffffffffffffffffffffffffffffff1673ffffffffffffffffffffffffffffffffffffffff1681526020019081526020016000206040518060c001604052908160008201548152602001600182018054600181600116156101000203166002900480601f016020809104026020016040519081016040528092919081815260200182805460018160011615610100020316600290048015611d495780601f10611d1e57610100808354040283529160200191611d49565b820191906000526020600020905b815481529060010190602001808311611d2c57829003601f168201915b50505050508152602001600282015481526020016003820160009054906101000a900473ffffffffffffffffffffffffffffffffffffffff1673ffffffffffffffffffffffffffffffffffffffff1673ffffffffffffffffffffffffffffffffffffffff16815260200160048201805480602002602001604051908101604052809291908181526020016000905b82821015611ea757838290600052602060002001604051806020016040529081600082018054600181600116156101000203166002900480601f016020809104026020016040519081016040528092919081815260200182805460018160011615610100020316600290048015611e8f5780601f10611e6457610100808354040283529160200191611e8f565b820191906000526020600020905b815481529060010190602001808311611e7257829003601f168201915b50505050508152505081526020019060010190611dd7565b50505050815260200160058201805480602002602001604051908101604052809291908181526020016000905b82821015611f90578382906000526020600020018054600181600116156101000203166002900480601f016020809104026020016040519081016040528092919081815260200182805460018160011615610100020316600290048015611f7c5780601f10611f5157610100808354040283529160200191611f7c565b820191906000526020600020905b815481529060010190602001808311611f5f57829003601f168201915b505050505081526020019060010190611ed4565b505050508152505090506060611fa98260800151612257565b905081600001518260400151836020015183955095509550955050509193509193565b606060008251905060005b8181101561210c57600081141561200357838181518110611ff457fe5b602002602001015192506120ff565b8284828151811061201057fe5b60200260200101516040516020018083805190602001908083835b6020831061204e578051825260208201915060208101905060208303925061202b565b6001836020036101000a038019825116818451168082178552505050505050905001807f2c2000000000000000000000000000000000000000000000000000000000000081525060020182805190602001908083835b602083106120c757805182526020820191506020810190506020830392506120a4565b6001836020036101000a0380198251168184511680821785525050505050509050019250505060405160208183030381529060405292505b8080600101915050611fd7565b5050919050565b6060600082141561215b576040518060400160405280600181526020017f30000000000000000000000000000000000000000000000000000000000000008152509050612252565b600082905060005b60008214612185578080600101915050600a828161217d57fe5b049150612163565b60608167ffffffffffffffff8111801561219e57600080fd5b506040519080825280601f01601f1916602001820160405280156121d15781602001600182028036833780820191505090505b50905060006001830390505b6000861461224a57600a86816121ef57fe5b0660300160f81b8282806001900393508151811061220957fe5b60200101907effffffffffffffffffffffffffffffffffffffffffffffffffffffffffffff1916908160001a905350600a868161224257fe5b0495506121dd565b819450505050505b919050565b60608060008351905060005b818110156123a05760008114156122935784818151811061228057fe5b6020026020010151600001519250612393565b828582815181106122a057fe5b6020026020010151600001516040516020018083805190602001908083835b602083106122e257805182526020820191506020810190506020830392506122bf565b6001836020036101000a038019825116818451168082178552505050505050905001807f2c2000000000000000000000000000000000000000000000000000000000000081525060020182805190602001908083835b6020831061235b5780518252602082019150602081019050602083039250612338565b6001836020036101000a0380198251168184511680821785525050505050509050019250505060405160208183030381529060405292505b8080600101915050612263565b508192505050919050565b828054600181600116156101000203166002900490600052602060002090601f016020900481019282601f106123ec57805160ff191683800117855561241a565b8280016001018555821561241a579182015b828111156124195782518255916020019190600101906123fe565b5b50905061242791906124eb565b5090565b6040518060a0016040528060008152602001606081526020016060815260200160608152602001600073ffffffffffffffffffffffffffffffffffffffff1681525090565b6040518060a0016040528060008152602001606081526020016060815260200160008152602001600081525090565b6040518060c00160405280600081526020016060815260200160008152602001600073ffffffffffffffffffffffffffffffffffffffff16815260200160608152602001606081525090565b5b808211156125045760008160009055506001016124ec565b509056fea26469706673582212203d6329293aaba9df2e334f1f45a48259d7c58aa40c137789678a331d2a02865464736f6c634300060c0033",
					"opcodes": "PUSH1 0x80 PUSH1 0x40 MSTORE CALLVALUE DUP1 ISZERO PUSH2 0x10 JUMPI PUSH1 0x0 DUP1 REVERT JUMPDEST POP CALLER PUSH1 0x0 DUP1 PUSH2 0x100 EXP DUP2 SLOAD DUP2 PUSH20 0xFFFFFFFFFFFFFFFFFFFFFFFFFFFFFFFFFFFFFFFF MUL NOT AND SWAP1 DUP4 PUSH20 0xFFFFFFFFFFFFFFFFFFFFFFFFFFFFFFFFFFFFFFFF AND MUL OR SWAP1 SSTORE POP PUSH2 0x253E DUP1 PUSH2 0x60 PUSH1 0x0 CODECOPY PUSH1 0x0 RETURN INVALID PUSH1 0x80 PUSH1 0x40 MSTORE CALLVALUE DUP1 ISZERO PUSH2 0x10 JUMPI PUSH1 0x0 DUP1 REVERT JUMPDEST POP PUSH1 0x4 CALLDATASIZE LT PUSH2 0xA9 JUMPI PUSH1 0x0 CALLDATALOAD PUSH1 0xE0 SHR DUP1 PUSH4 0xD36000ED GT PUSH2 0x71 JUMPI DUP1 PUSH4 0xD36000ED EQ PUSH2 0x686 JUMPI DUP1 PUSH4 0xDCD0C2B2 EQ PUSH2 0x743 JUMPI DUP1 PUSH4 0xDDD865E8 EQ PUSH2 0x791 JUMPI DUP1 PUSH4 0xDDFE2E87 EQ PUSH2 0x84C JUMPI DUP1 PUSH4 0xF01319ED EQ PUSH2 0x96D JUMPI DUP1 PUSH4 0xF775F6F6 EQ PUSH2 0xA6A JUMPI PUSH2 0xA9 JUMP JUMPDEST DUP1 PUSH4 0x3E27F719 EQ PUSH2 0xAE JUMPI DUP1 PUSH4 0x50C7A912 EQ PUSH2 0x21E JUMPI DUP1 PUSH4 0x7D625C07 EQ PUSH2 0x407 JUMPI DUP1 PUSH4 0x8609ACDE EQ PUSH2 0x435 JUMPI DUP1 PUSH4 0x9ACEDF89 EQ PUSH2 0x5BB JUMPI JUMPDEST PUSH1 0x0 DUP1 REVERT JUMPDEST PUSH2 0x21C PUSH1 0x4 DUP1 CALLDATASIZE SUB PUSH1 0xA0 DUP2 LT ISZERO PUSH2 0xC4 JUMPI PUSH1 0x0 DUP1 REVERT JUMPDEST DUP2 ADD SWAP1 DUP1 DUP1 CALLDATALOAD SWAP1 PUSH1 0x20 ADD SWAP1 SWAP3 SWAP2 SWAP1 DUP1 CALLDATALOAD SWAP1 PUSH1 0x20 ADD SWAP1 PUSH5 0x100000000 DUP2 GT ISZERO PUSH2 0xEB JUMPI PUSH1 0x0 DUP1 REVERT JUMPDEST DUP3 ADD DUP4 PUSH1 0x20 DUP3 ADD GT ISZERO PUSH2 0xFD JUMPI PUSH1 0x0 DUP1 REVERT JUMPDEST DUP1 CALLDATALOAD SWAP1 PUSH1 0x20 ADD SWAP2 DUP5 PUSH1 0x1 DUP4 MUL DUP5 ADD GT PUSH5 0x100000000 DUP4 GT OR ISZERO PUSH2 0x11F JUMPI PUSH1 0x0 DUP1 REVERT JUMPDEST SWAP2 SWAP1 DUP1 DUP1 PUSH1 0x1F ADD PUSH1 0x20 DUP1 SWAP2 DIV MUL PUSH1 0x20 ADD PUSH1 0x40 MLOAD SWAP1 DUP2 ADD PUSH1 0x40 MSTORE DUP1 SWAP4 SWAP3 SWAP2 SWAP1 DUP2 DUP2 MSTORE PUSH1 0x20 ADD DUP4 DUP4 DUP1 DUP3 DUP5 CALLDATACOPY PUSH1 0x0 DUP2 DUP5 ADD MSTORE PUSH1 0x1F NOT PUSH1 0x1F DUP3 ADD AND SWAP1 POP DUP1 DUP4 ADD SWAP3 POP POP POP POP POP POP POP SWAP2 SWAP3 SWAP2 SWAP3 SWAP1 DUP1 CALLDATALOAD SWAP1 PUSH1 0x20 ADD SWAP1 PUSH5 0x100000000 DUP2 GT ISZERO PUSH2 0x182 JUMPI PUSH1 0x0 DUP1 REVERT JUMPDEST DUP3 ADD DUP4 PUSH1 0x20 DUP3 ADD GT ISZERO PUSH2 0x194 JUMPI PUSH1 0x0 DUP1 REVERT JUMPDEST DUP1 CALLDATALOAD SWAP1 PUSH1 0x20 ADD SWAP2 DUP5 PUSH1 0x1 DUP4 MUL DUP5 ADD GT PUSH5 0x100000000 DUP4 GT OR ISZERO PUSH2 0x1B6 JUMPI PUSH1 0x0 DUP1 REVERT JUMPDEST SWAP2 SWAP1 DUP1 DUP1 PUSH1 0x1F ADD PUSH1 0x20 DUP1 SWAP2 DIV MUL PUSH1 0x20 ADD PUSH1 0x40 MLOAD SWAP1 DUP2 ADD PUSH1 0x40 MSTORE DUP1 SWAP4 SWAP3 SWAP2 SWAP1 DUP2 DUP2 MSTORE PUSH1 0x20 ADD DUP4 DUP4 DUP1 DUP3 DUP5 CALLDATACOPY PUSH1 0x0 DUP2 DUP5 ADD MSTORE PUSH1 0x1F NOT PUSH1 0x1F DUP3 ADD AND SWAP1 POP DUP1 DUP4 ADD SWAP3 POP POP POP POP POP POP POP SWAP2 SWAP3 SWAP2 SWAP3 SWAP1 DUP1 CALLDATALOAD SWAP1 PUSH1 0x20 ADD SWAP1 SWAP3 SWAP2 SWAP1 DUP1 CALLDATALOAD SWAP1 PUSH1 0x20 ADD SWAP1 SWAP3 SWAP2 SWAP1 POP POP POP PUSH2 0xB8B JUMP JUMPDEST STOP JUMPDEST PUSH2 0x405 PUSH1 0x4 DUP1 CALLDATASIZE SUB PUSH1 0x60 DUP2 LT ISZERO PUSH2 0x234 JUMPI PUSH1 0x0 DUP1 REVERT JUMPDEST DUP2 ADD SWAP1 DUP1 DUP1 CALLDATALOAD SWAP1 PUSH1 0x20 ADD SWAP1 PUSH5 0x100000000 DUP2 GT ISZERO PUSH2 0x251 JUMPI PUSH1 0x0 DUP1 REVERT JUMPDEST DUP3 ADD DUP4 PUSH1 0x20 DUP3 ADD GT ISZERO PUSH2 0x263 JUMPI PUSH1 0x0 DUP1 REVERT JUMPDEST DUP1 CALLDATALOAD SWAP1 PUSH1 0x20 ADD SWAP2 DUP5 PUSH1 0x1 DUP4 MUL DUP5 ADD GT PUSH5 0x100000000 DUP4 GT OR ISZERO PUSH2 0x285 JUMPI PUSH1 0x0 DUP1 REVERT JUMPDEST SWAP2 SWAP1 DUP1 DUP1 PUSH1 0x1F ADD PUSH1 0x20 DUP1 SWAP2 DIV MUL PUSH1 0x20 ADD PUSH1 0x40 MLOAD SWAP1 DUP2 ADD PUSH1 0x40 MSTORE DUP1 SWAP4 SWAP3 SWAP2 SWAP1 DUP2 DUP2 MSTORE PUSH1 0x20 ADD DUP4 DUP4 DUP1 DUP3 DUP5 CALLDATACOPY PUSH1 0x0 DUP2 DUP5 ADD MSTORE PUSH1 0x1F NOT PUSH1 0x1F DUP3 ADD AND SWAP1 POP DUP1 DUP4 ADD SWAP3 POP POP POP POP POP POP POP SWAP2 SWAP3 SWAP2 SWAP3 SWAP1 DUP1 CALLDATALOAD SWAP1 PUSH1 0x20 ADD SWAP1 PUSH5 0x100000000 DUP2 GT ISZERO PUSH2 0x2E8 JUMPI PUSH1 0x0 DUP1 REVERT JUMPDEST DUP3 ADD DUP4 PUSH1 0x20 DUP3 ADD GT ISZERO PUSH2 0x2FA JUMPI PUSH1 0x0 DUP1 REVERT JUMPDEST DUP1 CALLDATALOAD SWAP1 PUSH1 0x20 ADD SWAP2 DUP5 PUSH1 0x1 DUP4 MUL DUP5 ADD GT PUSH5 0x100000000 DUP4 GT OR ISZERO PUSH2 0x31C JUMPI PUSH1 0x0 DUP1 REVERT JUMPDEST SWAP2 SWAP1 DUP1 DUP1 PUSH1 0x1F ADD PUSH1 0x20 DUP1 SWAP2 DIV MUL PUSH1 0x20 ADD PUSH1 0x40 MLOAD SWAP1 DUP2 ADD PUSH1 0x40 MSTORE DUP1 SWAP4 SWAP3 SWAP2 SWAP1 DUP2 DUP2 MSTORE PUSH1 0x20 ADD DUP4 DUP4 DUP1 DUP3 DUP5 CALLDATACOPY PUSH1 0x0 DUP2 DUP5 ADD MSTORE PUSH1 0x1F NOT PUSH1 0x1F DUP3 ADD AND SWAP1 POP DUP1 DUP4 ADD SWAP3 POP POP POP POP POP POP POP SWAP2 SWAP3 SWAP2 SWAP3 SWAP1 DUP1 CALLDATALOAD SWAP1 PUSH1 0x20 ADD SWAP1 PUSH5 0x100000000 DUP2 GT ISZERO PUSH2 0x37F JUMPI PUSH1 0x0 DUP1 REVERT JUMPDEST DUP3 ADD DUP4 PUSH1 0x20 DUP3 ADD GT ISZERO PUSH2 0x391 JUMPI PUSH1 0x0 DUP1 REVERT JUMPDEST DUP1 CALLDATALOAD SWAP1 PUSH1 0x20 ADD SWAP2 DUP5 PUSH1 0x1 DUP4 MUL DUP5 ADD GT PUSH5 0x100000000 DUP4 GT OR ISZERO PUSH2 0x3B3 JUMPI PUSH1 0x0 DUP1 REVERT JUMPDEST SWAP2 SWAP1 DUP1 DUP1 PUSH1 0x1F ADD PUSH1 0x20 DUP1 SWAP2 DIV MUL PUSH1 0x20 ADD PUSH1 0x40 MLOAD SWAP1 DUP2 ADD PUSH1 0x40 MSTORE DUP1 SWAP4 SWAP3 SWAP2 SWAP1 DUP2 DUP2 MSTORE PUSH1 0x20 ADD DUP4 DUP4 DUP1 DUP3 DUP5 CALLDATACOPY PUSH1 0x0 DUP2 DUP5 ADD MSTORE PUSH1 0x1F NOT PUSH1 0x1F DUP3 ADD AND SWAP1 POP DUP1 DUP4 ADD SWAP3 POP POP POP POP POP POP POP SWAP2 SWAP3 SWAP2 SWAP3 SWAP1 POP POP POP PUSH2 0xC39 JUMP JUMPDEST STOP JUMPDEST PUSH2 0x433 PUSH1 0x4 DUP1 CALLDATASIZE SUB PUSH1 0x20 DUP2 LT ISZERO PUSH2 0x41D JUMPI PUSH1 0x0 DUP1 REVERT JUMPDEST DUP2 ADD SWAP1 DUP1 DUP1 CALLDATALOAD SWAP1 PUSH1 0x20 ADD SWAP1 SWAP3 SWAP2 SWAP1 POP POP POP PUSH2 0xEC8 JUMP JUMPDEST STOP JUMPDEST PUSH2 0x461 PUSH1 0x4 DUP1 CALLDATASIZE SUB PUSH1 0x20 DUP2 LT ISZERO PUSH2 0x44B JUMPI PUSH1 0x0 DUP1 REVERT JUMPDEST DUP2 ADD SWAP1 DUP1 DUP1 CALLDATALOAD SWAP1 PUSH1 0x20 ADD SWAP1 SWAP3 SWAP2 SWAP1 POP POP POP PUSH2 0xF18 JUMP JUMPDEST PUSH1 0x40 MLOAD DUP1 DUP6 DUP2 MSTORE PUSH1 0x20 ADD DUP1 PUSH1 0x20 ADD DUP1 PUSH1 0x20 ADD DUP1 PUSH1 0x20 ADD DUP5 DUP2 SUB DUP5 MSTORE DUP8 DUP2 DUP2 MLOAD DUP2 MSTORE PUSH1 0x20 ADD SWAP2 POP DUP1 MLOAD SWAP1 PUSH1 0x20 ADD SWAP1 DUP1 DUP4 DUP4 PUSH1 0x0 JUMPDEST DUP4 DUP2 LT ISZERO PUSH2 0x4AF JUMPI DUP1 DUP3 ADD MLOAD DUP2 DUP5 ADD MSTORE PUSH1 0x20 DUP2 ADD SWAP1 POP PUSH2 0x494 JUMP JUMPDEST POP POP POP POP SWAP1 POP SWAP1 DUP2 ADD SWAP1 PUSH1 0x1F AND DUP1 ISZERO PUSH2 0x4DC JUMPI DUP1 DUP3 SUB DUP1 MLOAD PUSH1 0x1 DUP4 PUSH1 0x20 SUB PUSH2 0x100 EXP SUB NOT AND DUP2 MSTORE PUSH1 0x20 ADD SWAP2 POP JUMPDEST POP DUP5 DUP2 SUB DUP4 MSTORE DUP7 DUP2 DUP2 MLOAD DUP2 MSTORE PUSH1 0x20 ADD SWAP2 POP DUP1 MLOAD SWAP1 PUSH1 0x20 ADD SWAP1 DUP1 DUP4 DUP4 PUSH1 0x0 JUMPDEST DUP4 DUP2 LT ISZERO PUSH2 0x515 JUMPI DUP1 DUP3 ADD MLOAD DUP2 DUP5 ADD MSTORE PUSH1 0x20 DUP2 ADD SWAP1 POP PUSH2 0x4FA JUMP JUMPDEST POP POP POP POP SWAP1 POP SWAP1 DUP2 ADD SWAP1 PUSH1 0x1F AND DUP1 ISZERO PUSH2 0x542 JUMPI DUP1 DUP3 SUB DUP1 MLOAD PUSH1 0x1 DUP4 PUSH1 0x20 SUB PUSH2 0x100 EXP SUB NOT AND DUP2 MSTORE PUSH1 0x20 ADD SWAP2 POP JUMPDEST POP DUP5 DUP2 SUB DUP3 MSTORE DUP6 DUP2 DUP2 MLOAD DUP2 MSTORE PUSH1 0x20 ADD SWAP2 POP DUP1 MLOAD SWAP1 PUSH1 0x20 ADD SWAP1 DUP1 DUP4 DUP4 PUSH1 0x0 JUMPDEST DUP4 DUP2 LT ISZERO PUSH2 0x57B JUMPI DUP1 DUP3 ADD MLOAD DUP2 DUP5 ADD MSTORE PUSH1 0x20 DUP2 ADD SWAP1 POP PUSH2 0x560 JUMP JUMPDEST POP POP POP POP SWAP1 POP SWAP1 DUP2 ADD SWAP1 PUSH1 0x1F AND DUP1 ISZERO PUSH2 0x5A8 JUMPI DUP1 DUP3 SUB DUP1 MLOAD PUSH1 0x1 DUP4 PUSH1 0x20 SUB PUSH2 0x100 EXP SUB NOT AND DUP2 MSTORE PUSH1 0x20 ADD SWAP2 POP JUMPDEST POP SWAP8 POP POP POP POP POP POP POP POP PUSH1 0x40 MLOAD DUP1 SWAP2 SUB SWAP1 RETURN JUMPDEST PUSH2 0x684 PUSH1 0x4 DUP1 CALLDATASIZE SUB PUSH1 0x40 DUP2 LT ISZERO PUSH2 0x5D1 JUMPI PUSH1 0x0 DUP1 REVERT JUMPDEST DUP2 ADD SWAP1 DUP1 DUP1 CALLDATALOAD SWAP1 PUSH1 0x20 ADD SWAP1 PUSH5 0x100000000 DUP2 GT ISZERO PUSH2 0x5EE JUMPI PUSH1 0x0 DUP1 REVERT JUMPDEST DUP3 ADD DUP4 PUSH1 0x20 DUP3 ADD GT ISZERO PUSH2 0x600 JUMPI PUSH1 0x0 DUP1 REVERT JUMPDEST DUP1 CALLDATALOAD SWAP1 PUSH1 0x20 ADD SWAP2 DUP5 PUSH1 0x1 DUP4 MUL DUP5 ADD GT PUSH5 0x100000000 DUP4 GT OR ISZERO PUSH2 0x622 JUMPI PUSH1 0x0 DUP1 REVERT JUMPDEST SWAP2 SWAP1 DUP1 DUP1 PUSH1 0x1F ADD PUSH1 0x20 DUP1 SWAP2 DIV MUL PUSH1 0x20 ADD PUSH1 0x40 MLOAD SWAP1 DUP2 ADD PUSH1 0x40 MSTORE DUP1 SWAP4 SWAP3 SWAP2 SWAP1 DUP2 DUP2 MSTORE PUSH1 0x20 ADD DUP4 DUP4 DUP1 DUP3 DUP5 CALLDATACOPY PUSH1 0x0 DUP2 DUP5 ADD MSTORE PUSH1 0x1F NOT PUSH1 0x1F DUP3 ADD AND SWAP1 POP DUP1 DUP4 ADD SWAP3 POP POP POP POP POP POP POP SWAP2 SWAP3 SWAP2 SWAP3 SWAP1 DUP1 CALLDATALOAD PUSH4 0xFFFFFFFF AND SWAP1 PUSH1 0x20 ADD SWAP1 SWAP3 SWAP2 SWAP1 POP POP POP PUSH2 0x1214 JUMP JUMPDEST STOP JUMPDEST PUSH2 0x6C8 PUSH1 0x4 DUP1 CALLDATASIZE SUB PUSH1 0x20 DUP2 LT ISZERO PUSH2 0x69C JUMPI PUSH1 0x0 DUP1 REVERT JUMPDEST DUP2 ADD SWAP1 DUP1 DUP1 CALLDATALOAD PUSH20 0xFFFFFFFFFFFFFFFFFFFFFFFFFFFFFFFFFFFFFFFF AND SWAP1 PUSH1 0x20 ADD SWAP1 SWAP3 SWAP2 SWAP1 POP POP POP PUSH2 0x148E JUMP JUMPDEST PUSH1 0x40 MLOAD DUP1 DUP1 PUSH1 0x20 ADD DUP3 DUP2 SUB DUP3 MSTORE DUP4 DUP2 DUP2 MLOAD DUP2 MSTORE PUSH1 0x20 ADD SWAP2 POP DUP1 MLOAD SWAP1 PUSH1 0x20 ADD SWAP1 DUP1 DUP4 DUP4 PUSH1 0x0 JUMPDEST DUP4 DUP2 LT ISZERO PUSH2 0x708 JUMPI DUP1 DUP3 ADD MLOAD DUP2 DUP5 ADD MSTORE PUSH1 0x20 DUP2 ADD SWAP1 POP PUSH2 0x6ED JUMP JUMPDEST POP POP POP POP SWAP1 POP SWAP1 DUP2 ADD SWAP1 PUSH1 0x1F AND DUP1 ISZERO PUSH2 0x735 JUMPI DUP1 DUP3 SUB DUP1 MLOAD PUSH1 0x1 DUP4 PUSH1 0x20 SUB PUSH2 0x100 EXP SUB NOT AND DUP2 MSTORE PUSH1 0x20 ADD SWAP2 POP JUMPDEST POP SWAP3 POP POP POP PUSH1 0x40 MLOAD DUP1 SWAP2 SUB SWAP1 RETURN JUMPDEST PUSH2 0x78F PUSH1 0x4 DUP1 CALLDATASIZE SUB PUSH1 0x40 DUP2 LT ISZERO PUSH2 0x759 JUMPI PUSH1 0x0 DUP1 REVERT JUMPDEST DUP2 ADD SWAP1 DUP1 DUP1 CALLDATALOAD SWAP1 PUSH1 0x20 ADD SWAP1 SWAP3 SWAP2 SWAP1 DUP1 CALLDATALOAD PUSH20 0xFFFFFFFFFFFFFFFFFFFFFFFFFFFFFFFFFFFFFFFF AND SWAP1 PUSH1 0x20 ADD SWAP1 SWAP3 SWAP2 SWAP1 POP POP POP PUSH2 0x15C6 JUMP JUMPDEST STOP JUMPDEST PUSH2 0x84A PUSH1 0x4 DUP1 CALLDATASIZE SUB PUSH1 0x20 DUP2 LT ISZERO PUSH2 0x7A7 JUMPI PUSH1 0x0 DUP1 REVERT JUMPDEST DUP2 ADD SWAP1 DUP1 DUP1 CALLDATALOAD SWAP1 PUSH1 0x20 ADD SWAP1 PUSH5 0x100000000 DUP2 GT ISZERO PUSH2 0x7C4 JUMPI PUSH1 0x0 DUP1 REVERT JUMPDEST DUP3 ADD DUP4 PUSH1 0x20 DUP3 ADD GT ISZERO PUSH2 0x7D6 JUMPI PUSH1 0x0 DUP1 REVERT JUMPDEST DUP1 CALLDATALOAD SWAP1 PUSH1 0x20 ADD SWAP2 DUP5 PUSH1 0x1 DUP4 MUL DUP5 ADD GT PUSH5 0x100000000 DUP4 GT OR ISZERO PUSH2 0x7F8 JUMPI PUSH1 0x0 DUP1 REVERT JUMPDEST SWAP2 SWAP1 DUP1 DUP1 PUSH1 0x1F ADD PUSH1 0x20 DUP1 SWAP2 DIV MUL PUSH1 0x20 ADD PUSH1 0x40 MLOAD SWAP1 DUP2 ADD PUSH1 0x40 MSTORE DUP1 SWAP4 SWAP3 SWAP2 SWAP1 DUP2 DUP2 MSTORE PUSH1 0x20 ADD DUP4 DUP4 DUP1 DUP3 DUP5 CALLDATACOPY PUSH1 0x0 DUP2 DUP5 ADD MSTORE PUSH1 0x1F NOT PUSH1 0x1F DUP3 ADD AND SWAP1 POP DUP1 DUP4 ADD SWAP3 POP POP POP POP POP POP POP SWAP2 SWAP3 SWAP2 SWAP3 SWAP1 POP POP POP PUSH2 0x164E JUMP JUMPDEST STOP JUMPDEST PUSH2 0x878 PUSH1 0x4 DUP1 CALLDATASIZE SUB PUSH1 0x20 DUP2 LT ISZERO PUSH2 0x862 JUMPI PUSH1 0x0 DUP1 REVERT JUMPDEST DUP2 ADD SWAP1 DUP1 DUP1 CALLDATALOAD SWAP1 PUSH1 0x20 ADD SWAP1 SWAP3 SWAP2 SWAP1 POP POP POP PUSH2 0x16E6 JUMP JUMPDEST PUSH1 0x40 MLOAD DUP1 DUP1 PUSH1 0x20 ADD DUP1 PUSH1 0x20 ADD DUP6 DUP2 MSTORE PUSH1 0x20 ADD DUP5 DUP2 MSTORE PUSH1 0x20 ADD DUP4 DUP2 SUB DUP4 MSTORE DUP8 DUP2 DUP2 MLOAD DUP2 MSTORE PUSH1 0x20 ADD SWAP2 POP DUP1 MLOAD SWAP1 PUSH1 0x20 ADD SWAP1 DUP1 DUP4 DUP4 PUSH1 0x0 JUMPDEST DUP4 DUP2 LT ISZERO PUSH2 0x8C8 JUMPI DUP1 DUP3 ADD MLOAD DUP2 DUP5 ADD MSTORE PUSH1 0x20 DUP2 ADD SWAP1 POP PUSH2 0x8AD JUMP JUMPDEST POP POP POP POP SWAP1 POP SWAP1 DUP2 ADD SWAP1 PUSH1 0x1F AND DUP1 ISZERO PUSH2 0x8F5 JUMPI DUP1 DUP3 SUB DUP1 MLOAD PUSH1 0x1 DUP4 PUSH1 0x20 SUB PUSH2 0x100 EXP SUB NOT AND DUP2 MSTORE PUSH1 0x20 ADD SWAP2 POP JUMPDEST POP DUP4 DUP2 SUB DUP3 MSTORE DUP7 DUP2 DUP2 MLOAD DUP2 MSTORE PUSH1 0x20 ADD SWAP2 POP DUP1 MLOAD SWAP1 PUSH1 0x20 ADD SWAP1 DUP1 DUP4 DUP4 PUSH1 0x0 JUMPDEST DUP4 DUP2 LT ISZERO PUSH2 0x92E JUMPI DUP1 DUP3 ADD MLOAD DUP2 DUP5 ADD MSTORE PUSH1 0x20 DUP2 ADD SWAP1 POP PUSH2 0x913 JUMP JUMPDEST POP POP POP POP SWAP1 POP SWAP1 DUP2 ADD SWAP1 PUSH1 0x1F AND DUP1 ISZERO PUSH2 0x95B JUMPI DUP1 DUP3 SUB DUP1 MLOAD PUSH1 0x1 DUP4 PUSH1 0x20 SUB PUSH2 0x100 EXP SUB NOT AND DUP2 MSTORE PUSH1 0x20 ADD SWAP2 POP JUMPDEST POP SWAP7 POP POP POP POP POP POP POP PUSH1 0x40 MLOAD DUP1 SWAP2 SUB SWAP1 RETURN JUMPDEST PUSH2 0x975 PUSH2 0x189A JUMP JUMPDEST PUSH1 0x40 MLOAD DUP1 DUP6 DUP2 MSTORE PUSH1 0x20 ADD DUP5 DUP2 MSTORE PUSH1 0x20 ADD DUP1 PUSH1 0x20 ADD DUP1 PUSH1 0x20 ADD DUP4 DUP2 SUB DUP4 MSTORE DUP6 DUP2 DUP2 MLOAD DUP2 MSTORE PUSH1 0x20 ADD SWAP2 POP DUP1 MLOAD SWAP1 PUSH1 0x20 ADD SWAP1 DUP1 DUP4 DUP4 PUSH1 0x0 JUMPDEST DUP4 DUP2 LT ISZERO PUSH2 0x9C5 JUMPI DUP1 DUP3 ADD MLOAD DUP2 DUP5 ADD MSTORE PUSH1 0x20 DUP2 ADD SWAP1 POP PUSH2 0x9AA JUMP JUMPDEST POP POP POP POP SWAP1 POP SWAP1 DUP2 ADD SWAP1 PUSH1 0x1F AND DUP1 ISZERO PUSH2 0x9F2 JUMPI DUP1 DUP3 SUB DUP1 MLOAD PUSH1 0x1 DUP4 PUSH1 0x20 SUB PUSH2 0x100 EXP SUB NOT AND DUP2 MSTORE PUSH1 0x20 ADD SWAP2 POP JUMPDEST POP DUP4 DUP2 SUB DUP3 MSTORE DUP5 DUP2 DUP2 MLOAD DUP2 MSTORE PUSH1 0x20 ADD SWAP2 POP DUP1 MLOAD SWAP1 PUSH1 0x20 ADD SWAP1 DUP1 DUP4 DUP4 PUSH1 0x0 JUMPDEST DUP4 DUP2 LT ISZERO PUSH2 0xA2B JUMPI DUP1 DUP3 ADD MLOAD DUP2 DUP5 ADD MSTORE PUSH1 0x20 DUP2 ADD SWAP1 POP PUSH2 0xA10 JUMP JUMPDEST POP POP POP POP SWAP1 POP SWAP1 DUP2 ADD SWAP1 PUSH1 0x1F AND DUP1 ISZERO PUSH2 0xA58 JUMPI DUP1 DUP3 SUB DUP1 MLOAD PUSH1 0x1 DUP4 PUSH1 0x20 SUB PUSH2 0x100 EXP SUB NOT AND DUP2 MSTORE PUSH1 0x20 ADD SWAP2 POP JUMPDEST POP SWAP7 POP POP POP POP POP POP POP PUSH1 0x40 MLOAD DUP1 SWAP2 SUB SWAP1 RETURN JUMPDEST PUSH2 0xA96 PUSH1 0x4 DUP1 CALLDATASIZE SUB PUSH1 0x20 DUP2 LT ISZERO PUSH2 0xA80 JUMPI PUSH1 0x0 DUP1 REVERT JUMPDEST DUP2 ADD SWAP1 DUP1 DUP1 CALLDATALOAD SWAP1 PUSH1 0x20 ADD SWAP1 SWAP3 SWAP2 SWAP1 POP POP POP PUSH2 0x1C17 JUMP JUMPDEST PUSH1 0x40 MLOAD DUP1 DUP6 DUP2 MSTORE PUSH1 0x20 ADD DUP5 DUP2 MSTORE PUSH1 0x20 ADD DUP1 PUSH1 0x20 ADD DUP1 PUSH1 0x20 ADD DUP4 DUP2 SUB DUP4 MSTORE DUP6 DUP2 DUP2 MLOAD DUP2 MSTORE PUSH1 0x20 ADD SWAP2 POP DUP1 MLOAD SWAP1 PUSH1 0x20 ADD SWAP1 DUP1 DUP4 DUP4 PUSH1 0x0 JUMPDEST DUP4 DUP2 LT ISZERO PUSH2 0xAE6 JUMPI DUP1 DUP3 ADD MLOAD DUP2 DUP5 ADD MSTORE PUSH1 0x20 DUP2 ADD SWAP1 POP PUSH2 0xACB JUMP JUMPDEST POP POP POP POP SWAP1 POP SWAP1 DUP2 ADD SWAP1 PUSH1 0x1F AND DUP1 ISZERO PUSH2 0xB13 JUMPI DUP1 DUP3 SUB DUP1 MLOAD PUSH1 0x1 DUP4 PUSH1 0x20 SUB PUSH2 0x100 EXP SUB NOT AND DUP2 MSTORE PUSH1 0x20 ADD SWAP2 POP JUMPDEST POP DUP4 DUP2 SUB DUP3 MSTORE DUP5 DUP2 DUP2 MLOAD DUP2 MSTORE PUSH1 0x20 ADD SWAP2 POP DUP1 MLOAD SWAP1 PUSH1 0x20 ADD SWAP1 DUP1 DUP4 DUP4 PUSH1 0x0 JUMPDEST DUP4 DUP2 LT ISZERO PUSH2 0xB4C JUMPI DUP1 DUP3 ADD MLOAD DUP2 DUP5 ADD MSTORE PUSH1 0x20 DUP2 ADD SWAP1 POP PUSH2 0xB31 JUMP JUMPDEST POP POP POP POP SWAP1 POP SWAP1 DUP2 ADD SWAP1 PUSH1 0x1F AND DUP1 ISZERO PUSH2 0xB79 JUMPI DUP1 DUP3 SUB DUP1 MLOAD PUSH1 0x1 DUP4 PUSH1 0x20 SUB PUSH2 0x100 EXP SUB NOT AND DUP2 MSTORE PUSH1 0x20 ADD SWAP2 POP JUMPDEST POP SWAP7 POP POP POP POP POP POP POP PUSH1 0x40 MLOAD DUP1 SWAP2 SUB SWAP1 RETURN JUMPDEST DUP5 PUSH1 0x7 PUSH1 0x0 DUP8 DUP2 MSTORE PUSH1 0x20 ADD SWAP1 DUP2 MSTORE PUSH1 0x20 ADD PUSH1 0x0 KECCAK256 PUSH1 0x0 ADD DUP2 SWAP1 SSTORE POP DUP4 PUSH1 0x7 PUSH1 0x0 DUP8 DUP2 MSTORE PUSH1 0x20 ADD SWAP1 DUP2 MSTORE PUSH1 0x20 ADD PUSH1 0x0 KECCAK256 PUSH1 0x1 ADD SWAP1 DUP1 MLOAD SWAP1 PUSH1 0x20 ADD SWAP1 PUSH2 0xBD0 SWAP3 SWAP2 SWAP1 PUSH2 0x23AB JUMP JUMPDEST POP DUP3 PUSH1 0x7 PUSH1 0x0 DUP8 DUP2 MSTORE PUSH1 0x20 ADD SWAP1 DUP2 MSTORE PUSH1 0x20 ADD PUSH1 0x0 KECCAK256 PUSH1 0x2 ADD SWAP1 DUP1 MLOAD SWAP1 PUSH1 0x20 ADD SWAP1 PUSH2 0xBFB SWAP3 SWAP2 SWAP1 PUSH2 0x23AB JUMP JUMPDEST POP DUP2 PUSH1 0x7 PUSH1 0x0 DUP8 DUP2 MSTORE PUSH1 0x20 ADD SWAP1 DUP2 MSTORE PUSH1 0x20 ADD PUSH1 0x0 KECCAK256 PUSH1 0x3 ADD DUP2 SWAP1 SSTORE POP DUP1 PUSH1 0x7 PUSH1 0x0 DUP8 DUP2 MSTORE PUSH1 0x20 ADD SWAP1 DUP2 MSTORE PUSH1 0x20 ADD PUSH1 0x0 KECCAK256 PUSH1 0x4 ADD DUP2 SWAP1 SSTORE POP POP POP POP POP POP JUMP JUMPDEST PUSH1 0x0 DUP1 SLOAD SWAP1 PUSH2 0x100 EXP SWAP1 DIV PUSH20 0xFFFFFFFFFFFFFFFFFFFFFFFFFFFFFFFFFFFFFFFF AND PUSH20 0xFFFFFFFFFFFFFFFFFFFFFFFFFFFFFFFFFFFFFFFF AND CALLER PUSH20 0xFFFFFFFFFFFFFFFFFFFFFFFFFFFFFFFFFFFFFFFF AND EQ PUSH2 0xC91 JUMPI PUSH1 0x0 DUP1 REVERT JUMPDEST PUSH1 0x3 CALLER SWAP1 DUP1 PUSH1 0x1 DUP2 SLOAD ADD DUP1 DUP3 SSTORE DUP1 SWAP2 POP POP PUSH1 0x1 SWAP1 SUB SWAP1 PUSH1 0x0 MSTORE PUSH1 0x20 PUSH1 0x0 KECCAK256 ADD PUSH1 0x0 SWAP1 SWAP2 SWAP1 SWAP2 SWAP1 SWAP2 PUSH2 0x100 EXP DUP2 SLOAD DUP2 PUSH20 0xFFFFFFFFFFFFFFFFFFFFFFFFFFFFFFFFFFFFFFFF MUL NOT AND SWAP1 DUP4 PUSH20 0xFFFFFFFFFFFFFFFFFFFFFFFFFFFFFFFFFFFFFFFF AND MUL OR SWAP1 SSTORE POP PUSH1 0x40 MLOAD DUP1 PUSH1 0xA0 ADD PUSH1 0x40 MSTORE DUP1 PUSH1 0x2 SLOAD DUP2 MSTORE PUSH1 0x20 ADD DUP5 DUP2 MSTORE PUSH1 0x20 ADD DUP4 DUP2 MSTORE PUSH1 0x20 ADD DUP3 DUP2 MSTORE PUSH1 0x20 ADD CALLER PUSH20 0xFFFFFFFFFFFFFFFFFFFFFFFFFFFFFFFFFFFFFFFF AND DUP2 MSTORE POP PUSH1 0x4 PUSH1 0x0 CALLER PUSH20 0xFFFFFFFFFFFFFFFFFFFFFFFFFFFFFFFFFFFFFFFF AND PUSH20 0xFFFFFFFFFFFFFFFFFFFFFFFFFFFFFFFFFFFFFFFF AND DUP2 MSTORE PUSH1 0x20 ADD SWAP1 DUP2 MSTORE PUSH1 0x20 ADD PUSH1 0x0 KECCAK256 PUSH1 0x0 DUP3 ADD MLOAD DUP2 PUSH1 0x0 ADD SSTORE PUSH1 0x20 DUP3 ADD MLOAD DUP2 PUSH1 0x1 ADD SWAP1 DUP1 MLOAD SWAP1 PUSH1 0x20 ADD SWAP1 PUSH2 0xD98 SWAP3 SWAP2 SWAP1 PUSH2 0x23AB JUMP JUMPDEST POP PUSH1 0x40 DUP3 ADD MLOAD DUP2 PUSH1 0x2 ADD SWAP1 DUP1 MLOAD SWAP1 PUSH1 0x20 ADD SWAP1 PUSH2 0xDB5 SWAP3 SWAP2 SWAP1 PUSH2 0x23AB JUMP JUMPDEST POP PUSH1 0x60 DUP3 ADD MLOAD DUP2 PUSH1 0x3 ADD SWAP1 DUP1 MLOAD SWAP1 PUSH1 0x20 ADD SWAP1 PUSH2 0xDD2 SWAP3 SWAP2 SWAP1 PUSH2 0x23AB JUMP JUMPDEST POP PUSH1 0x80 DUP3 ADD MLOAD DUP2 PUSH1 0x4 ADD PUSH1 0x0 PUSH2 0x100 EXP DUP2 SLOAD DUP2 PUSH20 0xFFFFFFFFFFFFFFFFFFFFFFFFFFFFFFFFFFFFFFFF MUL NOT AND SWAP1 DUP4 PUSH20 0xFFFFFFFFFFFFFFFFFFFFFFFFFFFFFFFFFFFFFFFF AND MUL OR SWAP1 SSTORE POP SWAP1 POP POP PUSH1 0x1 PUSH1 0x2 SLOAD ADD PUSH1 0x2 DUP2 SWAP1 SSTORE POP DUP3 PUSH1 0x40 MLOAD DUP1 DUP3 DUP1 MLOAD SWAP1 PUSH1 0x20 ADD SWAP1 DUP1 DUP4 DUP4 JUMPDEST PUSH1 0x20 DUP4 LT PUSH2 0xE5D JUMPI DUP1 MLOAD DUP3 MSTORE PUSH1 0x20 DUP3 ADD SWAP2 POP PUSH1 0x20 DUP2 ADD SWAP1 POP PUSH1 0x20 DUP4 SUB SWAP3 POP PUSH2 0xE3A JUMP JUMPDEST PUSH1 0x1 DUP4 PUSH1 0x20 SUB PUSH2 0x100 EXP SUB DUP1 NOT DUP3 MLOAD AND DUP2 DUP5 MLOAD AND DUP1 DUP3 OR DUP6 MSTORE POP POP POP POP POP POP SWAP1 POP ADD SWAP2 POP POP PUSH1 0x40 MLOAD DUP1 SWAP2 SUB SWAP1 KECCAK256 PUSH32 0xE30BA994F0DD73CFB5C03048C44EFD518688AC1675527480FD0AFFF45D9BEE2A PUSH1 0x2 SLOAD PUSH1 0x40 MLOAD DUP1 DUP3 DUP2 MSTORE PUSH1 0x20 ADD SWAP2 POP POP PUSH1 0x40 MLOAD DUP1 SWAP2 SUB SWAP1 LOG2 POP POP POP JUMP JUMPDEST PUSH1 0x0 PUSH1 0x6 PUSH1 0x0 CALLER PUSH20 0xFFFFFFFFFFFFFFFFFFFFFFFFFFFFFFFFFFFFFFFF AND PUSH20 0xFFFFFFFFFFFFFFFFFFFFFFFFFFFFFFFFFFFFFFFF AND DUP2 MSTORE PUSH1 0x20 ADD SWAP1 DUP2 MSTORE PUSH1 0x20 ADD PUSH1 0x0 KECCAK256 SWAP1 POP DUP2 DUP2 PUSH1 0x2 ADD DUP2 SWAP1 SSTORE POP POP POP JUMP JUMPDEST PUSH1 0x0 PUSH1 0x60 DUP1 PUSH1 0x60 PUSH2 0xF27 PUSH2 0x242B JUMP JUMPDEST PUSH1 0x4 PUSH1 0x0 PUSH1 0x3 DUP9 DUP2 SLOAD DUP2 LT PUSH2 0xF38 JUMPI INVALID JUMPDEST SWAP1 PUSH1 0x0 MSTORE PUSH1 0x20 PUSH1 0x0 KECCAK256 ADD PUSH1 0x0 SWAP1 SLOAD SWAP1 PUSH2 0x100 EXP SWAP1 DIV PUSH20 0xFFFFFFFFFFFFFFFFFFFFFFFFFFFFFFFFFFFFFFFF AND PUSH20 0xFFFFFFFFFFFFFFFFFFFFFFFFFFFFFFFFFFFFFFFF AND PUSH20 0xFFFFFFFFFFFFFFFFFFFFFFFFFFFFFFFFFFFFFFFF AND DUP2 MSTORE PUSH1 0x20 ADD SWAP1 DUP2 MSTORE PUSH1 0x20 ADD PUSH1 0x0 KECCAK256 PUSH1 0x40 MLOAD DUP1 PUSH1 0xA0 ADD PUSH1 0x40 MSTORE SWAP1 DUP2 PUSH1 0x0 DUP3 ADD SLOAD DUP2 MSTORE PUSH1 0x20 ADD PUSH1 0x1 DUP3 ADD DUP1 SLOAD PUSH1 0x1 DUP2 PUSH1 0x1 AND ISZERO PUSH2 0x100 MUL SUB AND PUSH1 0x2 SWAP1 DIV DUP1 PUSH1 0x1F ADD PUSH1 0x20 DUP1 SWAP2 DIV MUL PUSH1 0x20 ADD PUSH1 0x40 MLOAD SWAP1 DUP2 ADD PUSH1 0x40 MSTORE DUP1 SWAP3 SWAP2 SWAP1 DUP2 DUP2 MSTORE PUSH1 0x20 ADD DUP3 DUP1 SLOAD PUSH1 0x1 DUP2 PUSH1 0x1 AND ISZERO PUSH2 0x100 MUL SUB AND PUSH1 0x2 SWAP1 DIV DUP1 ISZERO PUSH2 0x104B JUMPI DUP1 PUSH1 0x1F LT PUSH2 0x1020 JUMPI PUSH2 0x100 DUP1 DUP4 SLOAD DIV MUL DUP4 MSTORE SWAP2 PUSH1 0x20 ADD SWAP2 PUSH2 0x104B JUMP JUMPDEST DUP3 ADD SWAP2 SWAP1 PUSH1 0x0 MSTORE PUSH1 0x20 PUSH1 0x0 KECCAK256 SWAP1 JUMPDEST DUP2 SLOAD DUP2 MSTORE SWAP1 PUSH1 0x1 ADD SWAP1 PUSH1 0x20 ADD DUP1 DUP4 GT PUSH2 0x102E JUMPI DUP3 SWAP1 SUB PUSH1 0x1F AND DUP3 ADD SWAP2 JUMPDEST POP POP POP POP POP DUP2 MSTORE PUSH1 0x20 ADD PUSH1 0x2 DUP3 ADD DUP1 SLOAD PUSH1 0x1 DUP2 PUSH1 0x1 AND ISZERO PUSH2 0x100 MUL SUB AND PUSH1 0x2 SWAP1 DIV DUP1 PUSH1 0x1F ADD PUSH1 0x20 DUP1 SWAP2 DIV MUL PUSH1 0x20 ADD PUSH1 0x40 MLOAD SWAP1 DUP2 ADD PUSH1 0x40 MSTORE DUP1 SWAP3 SWAP2 SWAP1 DUP2 DUP2 MSTORE PUSH1 0x20 ADD DUP3 DUP1 SLOAD PUSH1 0x1 DUP2 PUSH1 0x1 AND ISZERO PUSH2 0x100 MUL SUB AND PUSH1 0x2 SWAP1 DIV DUP1 ISZERO PUSH2 0x10ED JUMPI DUP1 PUSH1 0x1F LT PUSH2 0x10C2 JUMPI PUSH2 0x100 DUP1 DUP4 SLOAD DIV MUL DUP4 MSTORE SWAP2 PUSH1 0x20 ADD SWAP2 PUSH2 0x10ED JUMP JUMPDEST DUP3 ADD SWAP2 SWAP1 PUSH1 0x0 MSTORE PUSH1 0x20 PUSH1 0x0 KECCAK256 SWAP1 JUMPDEST DUP2 SLOAD DUP2 MSTORE SWAP1 PUSH1 0x1 ADD SWAP1 PUSH1 0x20 ADD DUP1 DUP4 GT PUSH2 0x10D0 JUMPI DUP3 SWAP1 SUB PUSH1 0x1F AND DUP3 ADD SWAP2 JUMPDEST POP POP POP POP POP DUP2 MSTORE PUSH1 0x20 ADD PUSH1 0x3 DUP3 ADD DUP1 SLOAD PUSH1 0x1 DUP2 PUSH1 0x1 AND ISZERO PUSH2 0x100 MUL SUB AND PUSH1 0x2 SWAP1 DIV DUP1 PUSH1 0x1F ADD PUSH1 0x20 DUP1 SWAP2 DIV MUL PUSH1 0x20 ADD PUSH1 0x40 MLOAD SWAP1 DUP2 ADD PUSH1 0x40 MSTORE DUP1 SWAP3 SWAP2 SWAP1 DUP2 DUP2 MSTORE PUSH1 0x20 ADD DUP3 DUP1 SLOAD PUSH1 0x1 DUP2 PUSH1 0x1 AND ISZERO PUSH2 0x100 MUL SUB AND PUSH1 0x2 SWAP1 DIV DUP1 ISZERO PUSH2 0x118F JUMPI DUP1 PUSH1 0x1F LT PUSH2 0x1164 JUMPI PUSH2 0x100 DUP1 DUP4 SLOAD DIV MUL DUP4 MSTORE SWAP2 PUSH1 0x20 ADD SWAP2 PUSH2 0x118F JUMP JUMPDEST DUP3 ADD SWAP2 SWAP1 PUSH1 0x0 MSTORE PUSH1 0x20 PUSH1 0x0 KECCAK256 SWAP1 JUMPDEST DUP2 SLOAD DUP2 MSTORE SWAP1 PUSH1 0x1 ADD SWAP1 PUSH1 0x20 ADD DUP1 DUP4 GT PUSH2 0x1172 JUMPI DUP3 SWAP1 SUB PUSH1 0x1F AND DUP3 ADD SWAP2 JUMPDEST POP POP POP POP POP DUP2 MSTORE PUSH1 0x20 ADD PUSH1 0x4 DUP3 ADD PUSH1 0x0 SWAP1 SLOAD SWAP1 PUSH2 0x100 EXP SWAP1 DIV PUSH20 0xFFFFFFFFFFFFFFFFFFFFFFFFFFFFFFFFFFFFFFFF AND PUSH20 0xFFFFFFFFFFFFFFFFFFFFFFFFFFFFFFFFFFFFFFFF AND PUSH20 0xFFFFFFFFFFFFFFFFFFFFFFFFFFFFFFFFFFFFFFFF AND DUP2 MSTORE POP POP SWAP1 POP DUP1 PUSH1 0x0 ADD MLOAD DUP2 PUSH1 0x20 ADD MLOAD DUP3 PUSH1 0x40 ADD MLOAD DUP4 PUSH1 0x60 ADD MLOAD SWAP5 POP SWAP5 POP SWAP5 POP SWAP5 POP POP SWAP2 SWAP4 POP SWAP2 SWAP4 JUMP JUMPDEST PUSH1 0x5 CALLER SWAP1 DUP1 PUSH1 0x1 DUP2 SLOAD ADD DUP1 DUP3 SSTORE DUP1 SWAP2 POP POP PUSH1 0x1 SWAP1 SUB SWAP1 PUSH1 0x0 MSTORE PUSH1 0x20 PUSH1 0x0 KECCAK256 ADD PUSH1 0x0 SWAP1 SWAP2 SWAP1 SWAP2 SWAP1 SWAP2 PUSH2 0x100 EXP DUP2 SLOAD DUP2 PUSH20 0xFFFFFFFFFFFFFFFFFFFFFFFFFFFFFFFFFFFFFFFF MUL NOT AND SWAP1 DUP4 PUSH20 0xFFFFFFFFFFFFFFFFFFFFFFFFFFFFFFFFFFFFFFFF AND MUL OR SWAP1 SSTORE POP PUSH1 0x1 SLOAD PUSH1 0x6 PUSH1 0x0 CALLER PUSH20 0xFFFFFFFFFFFFFFFFFFFFFFFFFFFFFFFFFFFFFFFF AND PUSH20 0xFFFFFFFFFFFFFFFFFFFFFFFFFFFFFFFFFFFFFFFF AND DUP2 MSTORE PUSH1 0x20 ADD SWAP1 DUP2 MSTORE PUSH1 0x20 ADD PUSH1 0x0 KECCAK256 PUSH1 0x0 ADD DUP2 SWAP1 SSTORE POP DUP2 PUSH1 0x6 PUSH1 0x0 CALLER PUSH20 0xFFFFFFFFFFFFFFFFFFFFFFFFFFFFFFFFFFFFFFFF AND PUSH20 0xFFFFFFFFFFFFFFFFFFFFFFFFFFFFFFFFFFFFFFFF AND DUP2 MSTORE PUSH1 0x20 ADD SWAP1 DUP2 MSTORE PUSH1 0x20 ADD PUSH1 0x0 KECCAK256 PUSH1 0x1 ADD SWAP1 DUP1 MLOAD SWAP1 PUSH1 0x20 ADD SWAP1 PUSH2 0x1316 SWAP3 SWAP2 SWAP1 PUSH2 0x23AB JUMP JUMPDEST POP DUP1 PUSH4 0xFFFFFFFF AND PUSH1 0x6 PUSH1 0x0 CALLER PUSH20 0xFFFFFFFFFFFFFFFFFFFFFFFFFFFFFFFFFFFFFFFF AND PUSH20 0xFFFFFFFFFFFFFFFFFFFFFFFFFFFFFFFFFFFFFFFF AND DUP2 MSTORE PUSH1 0x20 ADD SWAP1 DUP2 MSTORE PUSH1 0x20 ADD PUSH1 0x0 KECCAK256 PUSH1 0x2 ADD DUP2 SWAP1 SSTORE POP CALLER PUSH1 0x6 PUSH1 0x0 CALLER PUSH20 0xFFFFFFFFFFFFFFFFFFFFFFFFFFFFFFFFFFFFFFFF AND PUSH20 0xFFFFFFFFFFFFFFFFFFFFFFFFFFFFFFFFFFFFFFFF AND DUP2 MSTORE PUSH1 0x20 ADD SWAP1 DUP2 MSTORE PUSH1 0x20 ADD PUSH1 0x0 KECCAK256 PUSH1 0x3 ADD PUSH1 0x0 PUSH2 0x100 EXP DUP2 SLOAD DUP2 PUSH20 0xFFFFFFFFFFFFFFFFFFFFFFFFFFFFFFFFFFFFFFFF MUL NOT AND SWAP1 DUP4 PUSH20 0xFFFFFFFFFFFFFFFFFFFFFFFFFFFFFFFFFFFFFFFF AND MUL OR SWAP1 SSTORE POP PUSH1 0x1 DUP1 SLOAD ADD PUSH1 0x1 DUP2 SWAP1 SSTORE POP DUP2 PUSH1 0x40 MLOAD DUP1 DUP3 DUP1 MLOAD SWAP1 PUSH1 0x20 ADD SWAP1 DUP1 DUP4 DUP4 JUMPDEST PUSH1 0x20 DUP4 LT PUSH2 0x1424 JUMPI DUP1 MLOAD DUP3 MSTORE PUSH1 0x20 DUP3 ADD SWAP2 POP PUSH1 0x20 DUP2 ADD SWAP1 POP PUSH1 0x20 DUP4 SUB SWAP3 POP PUSH2 0x1401 JUMP JUMPDEST PUSH1 0x1 DUP4 PUSH1 0x20 SUB PUSH2 0x100 EXP SUB DUP1 NOT DUP3 MLOAD AND DUP2 DUP5 MLOAD AND DUP1 DUP3 OR DUP6 MSTORE POP POP POP POP POP POP SWAP1 POP ADD SWAP2 POP POP PUSH1 0x40 MLOAD DUP1 SWAP2 SUB SWAP1 KECCAK256 PUSH32 0xBB14E28F056F3CBE5E3EBFD324696BF39B0A42190A192A7C3957B23DFB7AB3CE PUSH1 0x1 SLOAD PUSH1 0x40 MLOAD DUP1 DUP3 DUP2 MSTORE PUSH1 0x20 ADD SWAP2 POP POP PUSH1 0x40 MLOAD DUP1 SWAP2 SUB SWAP1 LOG2 POP POP JUMP JUMPDEST PUSH1 0x60 DUP1 PUSH2 0x15BB PUSH1 0x6 PUSH1 0x0 DUP6 PUSH20 0xFFFFFFFFFFFFFFFFFFFFFFFFFFFFFFFFFFFFFFFF AND PUSH20 0xFFFFFFFFFFFFFFFFFFFFFFFFFFFFFFFFFFFFFFFF AND DUP2 MSTORE PUSH1 0x20 ADD SWAP1 DUP2 MSTORE PUSH1 0x20 ADD PUSH1 0x0 KECCAK256 PUSH1 0x5 ADD DUP1 SLOAD DUP1 PUSH1 0x20 MUL PUSH1 0x20 ADD PUSH1 0x40 MLOAD SWAP1 DUP2 ADD PUSH1 0x40 MSTORE DUP1 SWAP3 SWAP2 SWAP1 DUP2 DUP2 MSTORE PUSH1 0x20 ADD PUSH1 0x0 SWAP1 JUMPDEST DUP3 DUP3 LT ISZERO PUSH2 0x15B2 JUMPI DUP4 DUP3 SWAP1 PUSH1 0x0 MSTORE PUSH1 0x20 PUSH1 0x0 KECCAK256 ADD DUP1 SLOAD PUSH1 0x1 DUP2 PUSH1 0x1 AND ISZERO PUSH2 0x100 MUL SUB AND PUSH1 0x2 SWAP1 DIV DUP1 PUSH1 0x1F ADD PUSH1 0x20 DUP1 SWAP2 DIV MUL PUSH1 0x20 ADD PUSH1 0x40 MLOAD SWAP1 DUP2 ADD PUSH1 0x40 MSTORE DUP1 SWAP3 SWAP2 SWAP1 DUP2 DUP2 MSTORE PUSH1 0x20 ADD DUP3 DUP1 SLOAD PUSH1 0x1 DUP2 PUSH1 0x1 AND ISZERO PUSH2 0x100 MUL SUB AND PUSH1 0x2 SWAP1 DIV DUP1 ISZERO PUSH2 0x159E JUMPI DUP1 PUSH1 0x1F LT PUSH2 0x1573 JUMPI PUSH2 0x100 DUP1 DUP4 SLOAD DIV MUL DUP4 MSTORE SWAP2 PUSH1 0x20 ADD SWAP2 PUSH2 0x159E JUMP JUMPDEST DUP3 ADD SWAP2 SWAP1 PUSH1 0x0 MSTORE PUSH1 0x20 PUSH1 0x0 KECCAK256 SWAP1 JUMPDEST DUP2 SLOAD DUP2 MSTORE SWAP1 PUSH1 0x1 ADD SWAP1 PUSH1 0x20 ADD DUP1 DUP4 GT PUSH2 0x1581 JUMPI DUP3 SWAP1 SUB PUSH1 0x1F AND DUP3 ADD SWAP2 JUMPDEST POP POP POP POP POP DUP2 MSTORE PUSH1 0x20 ADD SWAP1 PUSH1 0x1 ADD SWAP1 PUSH2 0x14F6 JUMP JUMPDEST POP POP POP POP PUSH2 0x1FCC JUMP JUMPDEST SWAP1 POP DUP1 SWAP2 POP POP SWAP2 SWAP1 POP JUMP JUMPDEST PUSH1 0x6 PUSH1 0x0 DUP3 PUSH20 0xFFFFFFFFFFFFFFFFFFFFFFFFFFFFFFFFFFFFFFFF AND PUSH20 0xFFFFFFFFFFFFFFFFFFFFFFFFFFFFFFFFFFFFFFFF AND DUP2 MSTORE PUSH1 0x20 ADD SWAP1 DUP2 MSTORE PUSH1 0x20 ADD PUSH1 0x0 KECCAK256 PUSH1 0x5 ADD PUSH2 0x1611 DUP4 PUSH2 0x2113 JUMP JUMPDEST SWAP1 DUP1 PUSH1 0x1 DUP2 SLOAD ADD DUP1 DUP3 SSTORE DUP1 SWAP2 POP POP PUSH1 0x1 SWAP1 SUB SWAP1 PUSH1 0x0 MSTORE PUSH1 0x20 PUSH1 0x0 KECCAK256 ADD PUSH1 0x0 SWAP1 SWAP2 SWAP1 SWAP2 SWAP1 SWAP2 POP SWAP1 DUP1 MLOAD SWAP1 PUSH1 0x20 ADD SWAP1 PUSH2 0x1649 SWAP3 SWAP2 SWAP1 PUSH2 0x23AB JUMP JUMPDEST POP POP POP JUMP JUMPDEST PUSH1 0x6 PUSH1 0x0 CALLER PUSH20 0xFFFFFFFFFFFFFFFFFFFFFFFFFFFFFFFFFFFFFFFF AND PUSH20 0xFFFFFFFFFFFFFFFFFFFFFFFFFFFFFFFFFFFFFFFF AND DUP2 MSTORE PUSH1 0x20 ADD SWAP1 DUP2 MSTORE PUSH1 0x20 ADD PUSH1 0x0 KECCAK256 PUSH1 0x4 ADD PUSH1 0x40 MLOAD DUP1 PUSH1 0x20 ADD PUSH1 0x40 MSTORE DUP1 DUP4 DUP2 MSTORE POP SWAP1 DUP1 PUSH1 0x1 DUP2 SLOAD ADD DUP1 DUP3 SSTORE DUP1 SWAP2 POP POP PUSH1 0x1 SWAP1 SUB SWAP1 PUSH1 0x0 MSTORE PUSH1 0x20 PUSH1 0x0 KECCAK256 ADD PUSH1 0x0 SWAP1 SWAP2 SWAP1 SWAP2 SWAP1 SWAP2 POP PUSH1 0x0 DUP3 ADD MLOAD DUP2 PUSH1 0x0 ADD SWAP1 DUP1 MLOAD SWAP1 PUSH1 0x20 ADD SWAP1 PUSH2 0x16E0 SWAP3 SWAP2 SWAP1 PUSH2 0x23AB JUMP JUMPDEST POP POP POP POP JUMP JUMPDEST PUSH1 0x60 DUP1 PUSH1 0x0 DUP1 PUSH2 0x16F4 PUSH2 0x2470 JUMP JUMPDEST PUSH1 0x7 PUSH1 0x0 DUP8 DUP2 MSTORE PUSH1 0x20 ADD SWAP1 DUP2 MSTORE PUSH1 0x20 ADD PUSH1 0x0 KECCAK256 PUSH1 0x40 MLOAD DUP1 PUSH1 0xA0 ADD PUSH1 0x40 MSTORE SWAP1 DUP2 PUSH1 0x0 DUP3 ADD SLOAD DUP2 MSTORE PUSH1 0x20 ADD PUSH1 0x1 DUP3 ADD DUP1 SLOAD PUSH1 0x1 DUP2 PUSH1 0x1 AND ISZERO PUSH2 0x100 MUL SUB AND PUSH1 0x2 SWAP1 DIV DUP1 PUSH1 0x1F ADD PUSH1 0x20 DUP1 SWAP2 DIV MUL PUSH1 0x20 ADD PUSH1 0x40 MLOAD SWAP1 DUP2 ADD PUSH1 0x40 MSTORE DUP1 SWAP3 SWAP2 SWAP1 DUP2 DUP2 MSTORE PUSH1 0x20 ADD DUP3 DUP1 SLOAD PUSH1 0x1 DUP2 PUSH1 0x1 AND ISZERO PUSH2 0x100 MUL SUB AND PUSH1 0x2 SWAP1 DIV DUP1 ISZERO PUSH2 0x17B5 JUMPI DUP1 PUSH1 0x1F LT PUSH2 0x178A JUMPI PUSH2 0x100 DUP1 DUP4 SLOAD DIV MUL DUP4 MSTORE SWAP2 PUSH1 0x20 ADD SWAP2 PUSH2 0x17B5 JUMP JUMPDEST DUP3 ADD SWAP2 SWAP1 PUSH1 0x0 MSTORE PUSH1 0x20 PUSH1 0x0 KECCAK256 SWAP1 JUMPDEST DUP2 SLOAD DUP2 MSTORE SWAP1 PUSH1 0x1 ADD SWAP1 PUSH1 0x20 ADD DUP1 DUP4 GT PUSH2 0x1798 JUMPI DUP3 SWAP1 SUB PUSH1 0x1F AND DUP3 ADD SWAP2 JUMPDEST POP POP POP POP POP DUP2 MSTORE PUSH1 0x20 ADD PUSH1 0x2 DUP3 ADD DUP1 SLOAD PUSH1 0x1 DUP2 PUSH1 0x1 AND ISZERO PUSH2 0x100 MUL SUB AND PUSH1 0x2 SWAP1 DIV DUP1 PUSH1 0x1F ADD PUSH1 0x20 DUP1 SWAP2 DIV MUL PUSH1 0x20 ADD PUSH1 0x40 MLOAD SWAP1 DUP2 ADD PUSH1 0x40 MSTORE DUP1 SWAP3 SWAP2 SWAP1 DUP2 DUP2 MSTORE PUSH1 0x20 ADD DUP3 DUP1 SLOAD PUSH1 0x1 DUP2 PUSH1 0x1 AND ISZERO PUSH2 0x100 MUL SUB AND PUSH1 0x2 SWAP1 DIV DUP1 ISZERO PUSH2 0x1857 JUMPI DUP1 PUSH1 0x1F LT PUSH2 0x182C JUMPI PUSH2 0x100 DUP1 DUP4 SLOAD DIV MUL DUP4 MSTORE SWAP2 PUSH1 0x20 ADD SWAP2 PUSH2 0x1857 JUMP JUMPDEST DUP3 ADD SWAP2 SWAP1 PUSH1 0x0 MSTORE PUSH1 0x20 PUSH1 0x0 KECCAK256 SWAP1 JUMPDEST DUP2 SLOAD DUP2 MSTORE SWAP1 PUSH1 0x1 ADD SWAP1 PUSH1 0x20 ADD DUP1 DUP4 GT PUSH2 0x183A JUMPI DUP3 SWAP1 SUB PUSH1 0x1F AND DUP3 ADD SWAP2 JUMPDEST POP POP POP POP POP DUP2 MSTORE PUSH1 0x20 ADD PUSH1 0x3 DUP3 ADD SLOAD DUP2 MSTORE PUSH1 0x20 ADD PUSH1 0x4 DUP3 ADD SLOAD DUP2 MSTORE POP POP SWAP1 POP DUP1 PUSH1 0x20 ADD MLOAD DUP2 PUSH1 0x40 ADD MLOAD DUP3 PUSH1 0x60 ADD MLOAD DUP4 PUSH1 0x80 ADD MLOAD SWAP5 POP SWAP5 POP SWAP5 POP SWAP5 POP POP SWAP2 SWAP4 POP SWAP2 SWAP4 JUMP JUMPDEST PUSH1 0x0 DUP1 PUSH1 0x60 DUP1 PUSH2 0x18A8 PUSH2 0x249F JUMP JUMPDEST PUSH1 0x6 PUSH1 0x0 CALLER PUSH20 0xFFFFFFFFFFFFFFFFFFFFFFFFFFFFFFFFFFFFFFFF AND PUSH20 0xFFFFFFFFFFFFFFFFFFFFFFFFFFFFFFFFFFFFFFFF AND DUP2 MSTORE PUSH1 0x20 ADD SWAP1 DUP2 MSTORE PUSH1 0x20 ADD PUSH1 0x0 KECCAK256 PUSH1 0x40 MLOAD DUP1 PUSH1 0xC0 ADD PUSH1 0x40 MSTORE SWAP1 DUP2 PUSH1 0x0 DUP3 ADD SLOAD DUP2 MSTORE PUSH1 0x20 ADD PUSH1 0x1 DUP3 ADD DUP1 SLOAD PUSH1 0x1 DUP2 PUSH1 0x1 AND ISZERO PUSH2 0x100 MUL SUB AND PUSH1 0x2 SWAP1 DIV DUP1 PUSH1 0x1F ADD PUSH1 0x20 DUP1 SWAP2 DIV MUL PUSH1 0x20 ADD PUSH1 0x40 MLOAD SWAP1 DUP2 ADD PUSH1 0x40 MSTORE DUP1 SWAP3 SWAP2 SWAP1 DUP2 DUP2 MSTORE PUSH1 0x20 ADD DUP3 DUP1 SLOAD PUSH1 0x1 DUP2 PUSH1 0x1 AND ISZERO PUSH2 0x100 MUL SUB AND PUSH1 0x2 SWAP1 DIV DUP1 ISZERO PUSH2 0x1995 JUMPI DUP1 PUSH1 0x1F LT PUSH2 0x196A JUMPI PUSH2 0x100 DUP1 DUP4 SLOAD DIV MUL DUP4 MSTORE SWAP2 PUSH1 0x20 ADD SWAP2 PUSH2 0x1995 JUMP JUMPDEST DUP3 ADD SWAP2 SWAP1 PUSH1 0x0 MSTORE PUSH1 0x20 PUSH1 0x0 KECCAK256 SWAP1 JUMPDEST DUP2 SLOAD DUP2 MSTORE SWAP1 PUSH1 0x1 ADD SWAP1 PUSH1 0x20 ADD DUP1 DUP4 GT PUSH2 0x1978 JUMPI DUP3 SWAP1 SUB PUSH1 0x1F AND DUP3 ADD SWAP2 JUMPDEST POP POP POP POP POP DUP2 MSTORE PUSH1 0x20 ADD PUSH1 0x2 DUP3 ADD SLOAD DUP2 MSTORE PUSH1 0x20 ADD PUSH1 0x3 DUP3 ADD PUSH1 0x0 SWAP1 SLOAD SWAP1 PUSH2 0x100 EXP SWAP1 DIV PUSH20 0xFFFFFFFFFFFFFFFFFFFFFFFFFFFFFFFFFFFFFFFF AND PUSH20 0xFFFFFFFFFFFFFFFFFFFFFFFFFFFFFFFFFFFFFFFF AND PUSH20 0xFFFFFFFFFFFFFFFFFFFFFFFFFFFFFFFFFFFFFFFF AND DUP2 MSTORE PUSH1 0x20 ADD PUSH1 0x4 DUP3 ADD DUP1 SLOAD DUP1 PUSH1 0x20 MUL PUSH1 0x20 ADD PUSH1 0x40 MLOAD SWAP1 DUP2 ADD PUSH1 0x40 MSTORE DUP1 SWAP3 SWAP2 SWAP1 DUP2 DUP2 MSTORE PUSH1 0x20 ADD PUSH1 0x0 SWAP1 JUMPDEST DUP3 DUP3 LT ISZERO PUSH2 0x1AF3 JUMPI DUP4 DUP3 SWAP1 PUSH1 0x0 MSTORE PUSH1 0x20 PUSH1 0x0 KECCAK256 ADD PUSH1 0x40 MLOAD DUP1 PUSH1 0x20 ADD PUSH1 0x40 MSTORE SWAP1 DUP2 PUSH1 0x0 DUP3 ADD DUP1 SLOAD PUSH1 0x1 DUP2 PUSH1 0x1 AND ISZERO PUSH2 0x100 MUL SUB AND PUSH1 0x2 SWAP1 DIV DUP1 PUSH1 0x1F ADD PUSH1 0x20 DUP1 SWAP2 DIV MUL PUSH1 0x20 ADD PUSH1 0x40 MLOAD SWAP1 DUP2 ADD PUSH1 0x40 MSTORE DUP1 SWAP3 SWAP2 SWAP1 DUP2 DUP2 MSTORE PUSH1 0x20 ADD DUP3 DUP1 SLOAD PUSH1 0x1 DUP2 PUSH1 0x1 AND ISZERO PUSH2 0x100 MUL SUB AND PUSH1 0x2 SWAP1 DIV DUP1 ISZERO PUSH2 0x1ADB JUMPI DUP1 PUSH1 0x1F LT PUSH2 0x1AB0 JUMPI PUSH2 0x100 DUP1 DUP4 SLOAD DIV MUL DUP4 MSTORE SWAP2 PUSH1 0x20 ADD SWAP2 PUSH2 0x1ADB JUMP JUMPDEST DUP3 ADD SWAP2 SWAP1 PUSH1 0x0 MSTORE PUSH1 0x20 PUSH1 0x0 KECCAK256 SWAP1 JUMPDEST DUP2 SLOAD DUP2 MSTORE SWAP1 PUSH1 0x1 ADD SWAP1 PUSH1 0x20 ADD DUP1 DUP4 GT PUSH2 0x1ABE JUMPI DUP3 SWAP1 SUB PUSH1 0x1F AND DUP3 ADD SWAP2 JUMPDEST POP POP POP POP POP DUP2 MSTORE POP POP DUP2 MSTORE PUSH1 0x20 ADD SWAP1 PUSH1 0x1 ADD SWAP1 PUSH2 0x1A23 JUMP JUMPDEST POP POP POP POP DUP2 MSTORE PUSH1 0x20 ADD PUSH1 0x5 DUP3 ADD DUP1 SLOAD DUP1 PUSH1 0x20 MUL PUSH1 0x20 ADD PUSH1 0x40 MLOAD SWAP1 DUP2 ADD PUSH1 0x40 MSTORE DUP1 SWAP3 SWAP2 SWAP1 DUP2 DUP2 MSTORE PUSH1 0x20 ADD PUSH1 0x0 SWAP1 JUMPDEST DUP3 DUP3 LT ISZERO PUSH2 0x1BDC JUMPI DUP4 DUP3 SWAP1 PUSH1 0x0 MSTORE PUSH1 0x20 PUSH1 0x0 KECCAK256 ADD DUP1 SLOAD PUSH1 0x1 DUP2 PUSH1 0x1 AND ISZERO PUSH2 0x100 MUL SUB AND PUSH1 0x2 SWAP1 DIV DUP1 PUSH1 0x1F ADD PUSH1 0x20 DUP1 SWAP2 DIV MUL PUSH1 0x20 ADD PUSH1 0x40 MLOAD SWAP1 DUP2 ADD PUSH1 0x40 MSTORE DUP1 SWAP3 SWAP2 SWAP1 DUP2 DUP2 MSTORE PUSH1 0x20 ADD DUP3 DUP1 SLOAD PUSH1 0x1 DUP2 PUSH1 0x1 AND ISZERO PUSH2 0x100 MUL SUB AND PUSH1 0x2 SWAP1 DIV DUP1 ISZERO PUSH2 0x1BC8 JUMPI DUP1 PUSH1 0x1F LT PUSH2 0x1B9D JUMPI PUSH2 0x100 DUP1 DUP4 SLOAD DIV MUL DUP4 MSTORE SWAP2 PUSH1 0x20 ADD SWAP2 PUSH2 0x1BC8 JUMP JUMPDEST DUP3 ADD SWAP2 SWAP1 PUSH1 0x0 MSTORE PUSH1 0x20 PUSH1 0x0 KECCAK256 SWAP1 JUMPDEST DUP2 SLOAD DUP2 MSTORE SWAP1 PUSH1 0x1 ADD SWAP1 PUSH1 0x20 ADD DUP1 DUP4 GT PUSH2 0x1BAB JUMPI DUP3 SWAP1 SUB PUSH1 0x1F AND DUP3 ADD SWAP2 JUMPDEST POP POP POP POP POP DUP2 MSTORE PUSH1 0x20 ADD SWAP1 PUSH1 0x1 ADD SWAP1 PUSH2 0x1B20 JUMP JUMPDEST POP POP POP POP DUP2 MSTORE POP POP SWAP1 POP PUSH1 0x60 PUSH2 0x1BF5 DUP3 PUSH1 0x80 ADD MLOAD PUSH2 0x2257 JUMP JUMPDEST SWAP1 POP DUP2 PUSH1 0x0 ADD MLOAD DUP3 PUSH1 0x40 ADD MLOAD DUP4 PUSH1 0x20 ADD MLOAD DUP4 SWAP6 POP SWAP6 POP SWAP6 POP SWAP6 POP POP POP SWAP1 SWAP2 SWAP3 SWAP4 JUMP JUMPDEST PUSH1 0x0 DUP1 PUSH1 0x60 DUP1 PUSH2 0x1C25 PUSH2 0x249F JUMP JUMPDEST PUSH1 0x6 PUSH1 0x0 PUSH1 0x5 DUP9 DUP2 SLOAD DUP2 LT PUSH2 0x1C36 JUMPI INVALID JUMPDEST SWAP1 PUSH1 0x0 MSTORE PUSH1 0x20 PUSH1 0x0 KECCAK256 ADD PUSH1 0x0 SWAP1 SLOAD SWAP1 PUSH2 0x100 EXP SWAP1 DIV PUSH20 0xFFFFFFFFFFFFFFFFFFFFFFFFFFFFFFFFFFFFFFFF AND PUSH20 0xFFFFFFFFFFFFFFFFFFFFFFFFFFFFFFFFFFFFFFFF AND PUSH20 0xFFFFFFFFFFFFFFFFFFFFFFFFFFFFFFFFFFFFFFFF AND DUP2 MSTORE PUSH1 0x20 ADD SWAP1 DUP2 MSTORE PUSH1 0x20 ADD PUSH1 0x0 KECCAK256 PUSH1 0x40 MLOAD DUP1 PUSH1 0xC0 ADD PUSH1 0x40 MSTORE SWAP1 DUP2 PUSH1 0x0 DUP3 ADD SLOAD DUP2 MSTORE PUSH1 0x20 ADD PUSH1 0x1 DUP3 ADD DUP1 SLOAD PUSH1 0x1 DUP2 PUSH1 0x1 AND ISZERO PUSH2 0x100 MUL SUB AND PUSH1 0x2 SWAP1 DIV DUP1 PUSH1 0x1F ADD PUSH1 0x20 DUP1 SWAP2 DIV MUL PUSH1 0x20 ADD PUSH1 0x40 MLOAD SWAP1 DUP2 ADD PUSH1 0x40 MSTORE DUP1 SWAP3 SWAP2 SWAP1 DUP2 DUP2 MSTORE PUSH1 0x20 ADD DUP3 DUP1 SLOAD PUSH1 0x1 DUP2 PUSH1 0x1 AND ISZERO PUSH2 0x100 MUL SUB AND PUSH1 0x2 SWAP1 DIV DUP1 ISZERO PUSH2 0x1D49 JUMPI DUP1 PUSH1 0x1F LT PUSH2 0x1D1E JUMPI PUSH2 0x100 DUP1 DUP4 SLOAD DIV MUL DUP4 MSTORE SWAP2 PUSH1 0x20 ADD SWAP2 PUSH2 0x1D49 JUMP JUMPDEST DUP3 ADD SWAP2 SWAP1 PUSH1 0x0 MSTORE PUSH1 0x20 PUSH1 0x0 KECCAK256 SWAP1 JUMPDEST DUP2 SLOAD DUP2 MSTORE SWAP1 PUSH1 0x1 ADD SWAP1 PUSH1 0x20 ADD DUP1 DUP4 GT PUSH2 0x1D2C JUMPI DUP3 SWAP1 SUB PUSH1 0x1F AND DUP3 ADD SWAP2 JUMPDEST POP POP POP POP POP DUP2 MSTORE PUSH1 0x20 ADD PUSH1 0x2 DUP3 ADD SLOAD DUP2 MSTORE PUSH1 0x20 ADD PUSH1 0x3 DUP3 ADD PUSH1 0x0 SWAP1 SLOAD SWAP1 PUSH2 0x100 EXP SWAP1 DIV PUSH20 0xFFFFFFFFFFFFFFFFFFFFFFFFFFFFFFFFFFFFFFFF AND PUSH20 0xFFFFFFFFFFFFFFFFFFFFFFFFFFFFFFFFFFFFFFFF AND PUSH20 0xFFFFFFFFFFFFFFFFFFFFFFFFFFFFFFFFFFFFFFFF AND DUP2 MSTORE PUSH1 0x20 ADD PUSH1 0x4 DUP3 ADD DUP1 SLOAD DUP1 PUSH1 0x20 MUL PUSH1 0x20 ADD PUSH1 0x40 MLOAD SWAP1 DUP2 ADD PUSH1 0x40 MSTORE DUP1 SWAP3 SWAP2 SWAP1 DUP2 DUP2 MSTORE PUSH1 0x20 ADD PUSH1 0x0 SWAP1 JUMPDEST DUP3 DUP3 LT ISZERO PUSH2 0x1EA7 JUMPI DUP4 DUP3 SWAP1 PUSH1 0x0 MSTORE PUSH1 0x20 PUSH1 0x0 KECCAK256 ADD PUSH1 0x40 MLOAD DUP1 PUSH1 0x20 ADD PUSH1 0x40 MSTORE SWAP1 DUP2 PUSH1 0x0 DUP3 ADD DUP1 SLOAD PUSH1 0x1 DUP2 PUSH1 0x1 AND ISZERO PUSH2 0x100 MUL SUB AND PUSH1 0x2 SWAP1 DIV DUP1 PUSH1 0x1F ADD PUSH1 0x20 DUP1 SWAP2 DIV MUL PUSH1 0x20 ADD PUSH1 0x40 MLOAD SWAP1 DUP2 ADD PUSH1 0x40 MSTORE DUP1 SWAP3 SWAP2 SWAP1 DUP2 DUP2 MSTORE PUSH1 0x20 ADD DUP3 DUP1 SLOAD PUSH1 0x1 DUP2 PUSH1 0x1 AND ISZERO PUSH2 0x100 MUL SUB AND PUSH1 0x2 SWAP1 DIV DUP1 ISZERO PUSH2 0x1E8F JUMPI DUP1 PUSH1 0x1F LT PUSH2 0x1E64 JUMPI PUSH2 0x100 DUP1 DUP4 SLOAD DIV MUL DUP4 MSTORE SWAP2 PUSH1 0x20 ADD SWAP2 PUSH2 0x1E8F JUMP JUMPDEST DUP3 ADD SWAP2 SWAP1 PUSH1 0x0 MSTORE PUSH1 0x20 PUSH1 0x0 KECCAK256 SWAP1 JUMPDEST DUP2 SLOAD DUP2 MSTORE SWAP1 PUSH1 0x1 ADD SWAP1 PUSH1 0x20 ADD DUP1 DUP4 GT PUSH2 0x1E72 JUMPI DUP3 SWAP1 SUB PUSH1 0x1F AND DUP3 ADD SWAP2 JUMPDEST POP POP POP POP POP DUP2 MSTORE POP POP DUP2 MSTORE PUSH1 0x20 ADD SWAP1 PUSH1 0x1 ADD SWAP1 PUSH2 0x1DD7 JUMP JUMPDEST POP POP POP POP DUP2 MSTORE PUSH1 0x20 ADD PUSH1 0x5 DUP3 ADD DUP1 SLOAD DUP1 PUSH1 0x20 MUL PUSH1 0x20 ADD PUSH1 0x40 MLOAD SWAP1 DUP2 ADD PUSH1 0x40 MSTORE DUP1 SWAP3 SWAP2 SWAP1 DUP2 DUP2 MSTORE PUSH1 0x20 ADD PUSH1 0x0 SWAP1 JUMPDEST DUP3 DUP3 LT ISZERO PUSH2 0x1F90 JUMPI DUP4 DUP3 SWAP1 PUSH1 0x0 MSTORE PUSH1 0x20 PUSH1 0x0 KECCAK256 ADD DUP1 SLOAD PUSH1 0x1 DUP2 PUSH1 0x1 AND ISZERO PUSH2 0x100 MUL SUB AND PUSH1 0x2 SWAP1 DIV DUP1 PUSH1 0x1F ADD PUSH1 0x20 DUP1 SWAP2 DIV MUL PUSH1 0x20 ADD PUSH1 0x40 MLOAD SWAP1 DUP2 ADD PUSH1 0x40 MSTORE DUP1 SWAP3 SWAP2 SWAP1 DUP2 DUP2 MSTORE PUSH1 0x20 ADD DUP3 DUP1 SLOAD PUSH1 0x1 DUP2 PUSH1 0x1 AND ISZERO PUSH2 0x100 MUL SUB AND PUSH1 0x2 SWAP1 DIV DUP1 ISZERO PUSH2 0x1F7C JUMPI DUP1 PUSH1 0x1F LT PUSH2 0x1F51 JUMPI PUSH2 0x100 DUP1 DUP4 SLOAD DIV MUL DUP4 MSTORE SWAP2 PUSH1 0x20 ADD SWAP2 PUSH2 0x1F7C JUMP JUMPDEST DUP3 ADD SWAP2 SWAP1 PUSH1 0x0 MSTORE PUSH1 0x20 PUSH1 0x0 KECCAK256 SWAP1 JUMPDEST DUP2 SLOAD DUP2 MSTORE SWAP1 PUSH1 0x1 ADD SWAP1 PUSH1 0x20 ADD DUP1 DUP4 GT PUSH2 0x1F5F JUMPI DUP3 SWAP1 SUB PUSH1 0x1F AND DUP3 ADD SWAP2 JUMPDEST POP POP POP POP POP DUP2 MSTORE PUSH1 0x20 ADD SWAP1 PUSH1 0x1 ADD SWAP1 PUSH2 0x1ED4 JUMP JUMPDEST POP POP POP POP DUP2 MSTORE POP POP SWAP1 POP PUSH1 0x60 PUSH2 0x1FA9 DUP3 PUSH1 0x80 ADD MLOAD PUSH2 0x2257 JUMP JUMPDEST SWAP1 POP DUP2 PUSH1 0x0 ADD MLOAD DUP3 PUSH1 0x40 ADD MLOAD DUP4 PUSH1 0x20 ADD MLOAD DUP4 SWAP6 POP SWAP6 POP SWAP6 POP SWAP6 POP POP POP SWAP2 SWAP4 POP SWAP2 SWAP4 JUMP JUMPDEST PUSH1 0x60 PUSH1 0x0 DUP3 MLOAD SWAP1 POP PUSH1 0x0 JUMPDEST DUP2 DUP2 LT ISZERO PUSH2 0x210C JUMPI PUSH1 0x0 DUP2 EQ ISZERO PUSH2 0x2003 JUMPI DUP4 DUP2 DUP2 MLOAD DUP2 LT PUSH2 0x1FF4 JUMPI INVALID JUMPDEST PUSH1 0x20 MUL PUSH1 0x20 ADD ADD MLOAD SWAP3 POP PUSH2 0x20FF JUMP JUMPDEST DUP3 DUP5 DUP3 DUP2 MLOAD DUP2 LT PUSH2 0x2010 JUMPI INVALID JUMPDEST PUSH1 0x20 MUL PUSH1 0x20 ADD ADD MLOAD PUSH1 0x40 MLOAD PUSH1 0x20 ADD DUP1 DUP4 DUP1 MLOAD SWAP1 PUSH1 0x20 ADD SWAP1 DUP1 DUP4 DUP4 JUMPDEST PUSH1 0x20 DUP4 LT PUSH2 0x204E JUMPI DUP1 MLOAD DUP3 MSTORE PUSH1 0x20 DUP3 ADD SWAP2 POP PUSH1 0x20 DUP2 ADD SWAP1 POP PUSH1 0x20 DUP4 SUB SWAP3 POP PUSH2 0x202B JUMP JUMPDEST PUSH1 0x1 DUP4 PUSH1 0x20 SUB PUSH2 0x100 EXP SUB DUP1 NOT DUP3 MLOAD AND DUP2 DUP5 MLOAD AND DUP1 DUP3 OR DUP6 MSTORE POP POP POP POP POP POP SWAP1 POP ADD DUP1 PUSH32 0x2C20000000000000000000000000000000000000000000000000000000000000 DUP2 MSTORE POP PUSH1 0x2 ADD DUP3 DUP1 MLOAD SWAP1 PUSH1 0x20 ADD SWAP1 DUP1 DUP4 DUP4 JUMPDEST PUSH1 0x20 DUP4 LT PUSH2 0x20C7 JUMPI DUP1 MLOAD DUP3 MSTORE PUSH1 0x20 DUP3 ADD SWAP2 POP PUSH1 0x20 DUP2 ADD SWAP1 POP PUSH1 0x20 DUP4 SUB SWAP3 POP PUSH2 0x20A4 JUMP JUMPDEST PUSH1 0x1 DUP4 PUSH1 0x20 SUB PUSH2 0x100 EXP SUB DUP1 NOT DUP3 MLOAD AND DUP2 DUP5 MLOAD AND DUP1 DUP3 OR DUP6 MSTORE POP POP POP POP POP POP SWAP1 POP ADD SWAP3 POP POP POP PUSH1 0x40 MLOAD PUSH1 0x20 DUP2 DUP4 SUB SUB DUP2 MSTORE SWAP1 PUSH1 0x40 MSTORE SWAP3 POP JUMPDEST DUP1 DUP1 PUSH1 0x1 ADD SWAP2 POP POP PUSH2 0x1FD7 JUMP JUMPDEST POP POP SWAP2 SWAP1 POP JUMP JUMPDEST PUSH1 0x60 PUSH1 0x0 DUP3 EQ ISZERO PUSH2 0x215B JUMPI PUSH1 0x40 MLOAD DUP1 PUSH1 0x40 ADD PUSH1 0x40 MSTORE DUP1 PUSH1 0x1 DUP2 MSTORE PUSH1 0x20 ADD PUSH32 0x3000000000000000000000000000000000000000000000000000000000000000 DUP2 MSTORE POP SWAP1 POP PUSH2 0x2252 JUMP JUMPDEST PUSH1 0x0 DUP3 SWAP1 POP PUSH1 0x0 JUMPDEST PUSH1 0x0 DUP3 EQ PUSH2 0x2185 JUMPI DUP1 DUP1 PUSH1 0x1 ADD SWAP2 POP POP PUSH1 0xA DUP3 DUP2 PUSH2 0x217D JUMPI INVALID JUMPDEST DIV SWAP2 POP PUSH2 0x2163 JUMP JUMPDEST PUSH1 0x60 DUP2 PUSH8 0xFFFFFFFFFFFFFFFF DUP2 GT DUP1 ISZERO PUSH2 0x219E JUMPI PUSH1 0x0 DUP1 REVERT JUMPDEST POP PUSH1 0x40 MLOAD SWAP1 DUP1 DUP3 MSTORE DUP1 PUSH1 0x1F ADD PUSH1 0x1F NOT AND PUSH1 0x20 ADD DUP3 ADD PUSH1 0x40 MSTORE DUP1 ISZERO PUSH2 0x21D1 JUMPI DUP2 PUSH1 0x20 ADD PUSH1 0x1 DUP3 MUL DUP1 CALLDATASIZE DUP4 CALLDATACOPY DUP1 DUP3 ADD SWAP2 POP POP SWAP1 POP JUMPDEST POP SWAP1 POP PUSH1 0x0 PUSH1 0x1 DUP4 SUB SWAP1 POP JUMPDEST PUSH1 0x0 DUP7 EQ PUSH2 0x224A JUMPI PUSH1 0xA DUP7 DUP2 PUSH2 0x21EF JUMPI INVALID JUMPDEST MOD PUSH1 0x30 ADD PUSH1 0xF8 SHL DUP3 DUP3 DUP1 PUSH1 0x1 SWAP1 SUB SWAP4 POP DUP2 MLOAD DUP2 LT PUSH2 0x2209 JUMPI INVALID JUMPDEST PUSH1 0x20 ADD ADD SWAP1 PUSH31 0xFFFFFFFFFFFFFFFFFFFFFFFFFFFFFFFFFFFFFFFFFFFFFFFFFFFFFFFFFFFFFF NOT AND SWAP1 DUP2 PUSH1 0x0 BYTE SWAP1 MSTORE8 POP PUSH1 0xA DUP7 DUP2 PUSH2 0x2242 JUMPI INVALID JUMPDEST DIV SWAP6 POP PUSH2 0x21DD JUMP JUMPDEST DUP2 SWAP5 POP POP POP POP POP JUMPDEST SWAP2 SWAP1 POP JUMP JUMPDEST PUSH1 0x60 DUP1 PUSH1 0x0 DUP4 MLOAD SWAP1 POP PUSH1 0x0 JUMPDEST DUP2 DUP2 LT ISZERO PUSH2 0x23A0 JUMPI PUSH1 0x0 DUP2 EQ ISZERO PUSH2 0x2293 JUMPI DUP5 DUP2 DUP2 MLOAD DUP2 LT PUSH2 0x2280 JUMPI INVALID JUMPDEST PUSH1 0x20 MUL PUSH1 0x20 ADD ADD MLOAD PUSH1 0x0 ADD MLOAD SWAP3 POP PUSH2 0x2393 JUMP JUMPDEST DUP3 DUP6 DUP3 DUP2 MLOAD DUP2 LT PUSH2 0x22A0 JUMPI INVALID JUMPDEST PUSH1 0x20 MUL PUSH1 0x20 ADD ADD MLOAD PUSH1 0x0 ADD MLOAD PUSH1 0x40 MLOAD PUSH1 0x20 ADD DUP1 DUP4 DUP1 MLOAD SWAP1 PUSH1 0x20 ADD SWAP1 DUP1 DUP4 DUP4 JUMPDEST PUSH1 0x20 DUP4 LT PUSH2 0x22E2 JUMPI DUP1 MLOAD DUP3 MSTORE PUSH1 0x20 DUP3 ADD SWAP2 POP PUSH1 0x20 DUP2 ADD SWAP1 POP PUSH1 0x20 DUP4 SUB SWAP3 POP PUSH2 0x22BF JUMP JUMPDEST PUSH1 0x1 DUP4 PUSH1 0x20 SUB PUSH2 0x100 EXP SUB DUP1 NOT DUP3 MLOAD AND DUP2 DUP5 MLOAD AND DUP1 DUP3 OR DUP6 MSTORE POP POP POP POP POP POP SWAP1 POP ADD DUP1 PUSH32 0x2C20000000000000000000000000000000000000000000000000000000000000 DUP2 MSTORE POP PUSH1 0x2 ADD DUP3 DUP1 MLOAD SWAP1 PUSH1 0x20 ADD SWAP1 DUP1 DUP4 DUP4 JUMPDEST PUSH1 0x20 DUP4 LT PUSH2 0x235B JUMPI DUP1 MLOAD DUP3 MSTORE PUSH1 0x20 DUP3 ADD SWAP2 POP PUSH1 0x20 DUP2 ADD SWAP1 POP PUSH1 0x20 DUP4 SUB SWAP3 POP PUSH2 0x2338 JUMP JUMPDEST PUSH1 0x1 DUP4 PUSH1 0x20 SUB PUSH2 0x100 EXP SUB DUP1 NOT DUP3 MLOAD AND DUP2 DUP5 MLOAD AND DUP1 DUP3 OR DUP6 MSTORE POP POP POP POP POP POP SWAP1 POP ADD SWAP3 POP POP POP PUSH1 0x40 MLOAD PUSH1 0x20 DUP2 DUP4 SUB SUB DUP2 MSTORE SWAP1 PUSH1 0x40 MSTORE SWAP3 POP JUMPDEST DUP1 DUP1 PUSH1 0x1 ADD SWAP2 POP POP PUSH2 0x2263 JUMP JUMPDEST POP DUP2 SWAP3 POP POP POP SWAP2 SWAP1 POP JUMP JUMPDEST DUP3 DUP1 SLOAD PUSH1 0x1 DUP2 PUSH1 0x1 AND ISZERO PUSH2 0x100 MUL SUB AND PUSH1 0x2 SWAP1 DIV SWAP1 PUSH1 0x0 MSTORE PUSH1 0x20 PUSH1 0x0 KECCAK256 SWAP1 PUSH1 0x1F ADD PUSH1 0x20 SWAP1 DIV DUP2 ADD SWAP3 DUP3 PUSH1 0x1F LT PUSH2 0x23EC JUMPI DUP1 MLOAD PUSH1 0xFF NOT AND DUP4 DUP1 ADD OR DUP6 SSTORE PUSH2 0x241A JUMP JUMPDEST DUP3 DUP1 ADD PUSH1 0x1 ADD DUP6 SSTORE DUP3 ISZERO PUSH2 0x241A JUMPI SWAP2 DUP3 ADD JUMPDEST DUP3 DUP2 GT ISZERO PUSH2 0x2419 JUMPI DUP3 MLOAD DUP3 SSTORE SWAP2 PUSH1 0x20 ADD SWAP2 SWAP1 PUSH1 0x1 ADD SWAP1 PUSH2 0x23FE JUMP JUMPDEST JUMPDEST POP SWAP1 POP PUSH2 0x2427 SWAP2 SWAP1 PUSH2 0x24EB JUMP JUMPDEST POP SWAP1 JUMP JUMPDEST PUSH1 0x40 MLOAD DUP1 PUSH1 0xA0 ADD PUSH1 0x40 MSTORE DUP1 PUSH1 0x0 DUP2 MSTORE PUSH1 0x20 ADD PUSH1 0x60 DUP2 MSTORE PUSH1 0x20 ADD PUSH1 0x60 DUP2 MSTORE PUSH1 0x20 ADD PUSH1 0x60 DUP2 MSTORE PUSH1 0x20 ADD PUSH1 0x0 PUSH20 0xFFFFFFFFFFFFFFFFFFFFFFFFFFFFFFFFFFFFFFFF AND DUP2 MSTORE POP SWAP1 JUMP JUMPDEST PUSH1 0x40 MLOAD DUP1 PUSH1 0xA0 ADD PUSH1 0x40 MSTORE DUP1 PUSH1 0x0 DUP2 MSTORE PUSH1 0x20 ADD PUSH1 0x60 DUP2 MSTORE PUSH1 0x20 ADD PUSH1 0x60 DUP2 MSTORE PUSH1 0x20 ADD PUSH1 0x0 DUP2 MSTORE PUSH1 0x20 ADD PUSH1 0x0 DUP2 MSTORE POP SWAP1 JUMP JUMPDEST PUSH1 0x40 MLOAD DUP1 PUSH1 0xC0 ADD PUSH1 0x40 MSTORE DUP1 PUSH1 0x0 DUP2 MSTORE PUSH1 0x20 ADD PUSH1 0x60 DUP2 MSTORE PUSH1 0x20 ADD PUSH1 0x0 DUP2 MSTORE PUSH1 0x20 ADD PUSH1 0x0 PUSH20 0xFFFFFFFFFFFFFFFFFFFFFFFFFFFFFFFFFFFFFFFF AND DUP2 MSTORE PUSH1 0x20 ADD PUSH1 0x60 DUP2 MSTORE PUSH1 0x20 ADD PUSH1 0x60 DUP2 MSTORE POP SWAP1 JUMP JUMPDEST JUMPDEST DUP1 DUP3 GT ISZERO PUSH2 0x2504 JUMPI PUSH1 0x0 DUP2 PUSH1 0x0 SWAP1 SSTORE POP PUSH1 0x1 ADD PUSH2 0x24EC JUMP JUMPDEST POP SWAP1 JUMP INVALID LOG2 PUSH5 0x6970667358 0x22 SLT KECCAK256 RETURNDATASIZE PUSH4 0x29293AAB 0xA9 0xDF 0x2E CALLER 0x4F 0x1F GASLIMIT LOG4 DUP3 MSIZE 0xD7 0xC5 DUP11 LOG4 0xC SGT PUSH24 0x89678A331D2A02865464736F6C634300060C003300000000 "
				},
				"gasEstimates": {
					"creation": {
						"codeDepositCost": "1906800",
						"executionCost": "22878",
						"totalCost": "1929678"
					},
					"external": {
						"addMedicine(uint256,string,string,uint256,uint256)": "infinite",
						"addNewDisease(string)": "infinite",
						"prescribeMedicine(uint256,address)": "infinite",
						"registerDoctor(string,string,string)": "infinite",
						"registerPatient(string,uint32)": "infinite",
						"updateAge(uint256)": "20395",
						"viewDoctorById(uint256)": "infinite",
						"viewMedicine(uint256)": "infinite",
						"viewPatientById(uint256)": "infinite",
						"viewPrescribedMedicines(address)": "infinite",
						"viewRecord()": "infinite"
					},
					"internal": {
						"diseasesToString(struct HospitalContract.Disease memory[] memory)": "infinite",
						"prescriptionsToString(string memory[] memory)": "infinite",
						"uint2str(uint256)": "infinite"
					}
				},
				"methodIdentifiers": {
					"addMedicine(uint256,string,string,uint256,uint256)": "3e27f719",
					"addNewDisease(string)": "ddd865e8",
					"prescribeMedicine(uint256,address)": "dcd0c2b2",
					"registerDoctor(string,string,string)": "50c7a912",
					"registerPatient(string,uint32)": "9acedf89",
					"updateAge(uint256)": "7d625c07",
					"viewDoctorById(uint256)": "8609acde",
					"viewMedicine(uint256)": "ddfe2e87",
					"viewPatientById(uint256)": "f775f6f6",
					"viewPrescribedMedicines(address)": "d36000ed",
					"viewRecord()": "f01319ed"
				}
			},
			"storageLayout": {
				"storage": [
					{
						"astId": 55,
						"contract": "capstone/HospitalContract.sol:HospitalContract",
						"label": "Owner",
						"offset": 0,
						"slot": "0",
						"type": "t_address"
					},
					{
						"astId": 57,
						"contract": "capstone/HospitalContract.sol:HospitalContract",
						"label": "patientId",
						"offset": 0,
						"slot": "1",
						"type": "t_uint256"
					},
					{
						"astId": 59,
						"contract": "capstone/HospitalContract.sol:HospitalContract",
						"label": "doctorId",
						"offset": 0,
						"slot": "2",
						"type": "t_uint256"
					},
					{
						"astId": 82,
						"contract": "capstone/HospitalContract.sol:HospitalContract",
						"label": "doctorList",
						"offset": 0,
						"slot": "3",
						"type": "t_array(t_address)dyn_storage"
					},
					{
						"astId": 86,
						"contract": "capstone/HospitalContract.sol:HospitalContract",
						"label": "registeredDoctors",
						"offset": 0,
						"slot": "4",
						"type": "t_mapping(t_address,t_struct(doctor)15_storage)"
					},
					{
						"astId": 89,
						"contract": "capstone/HospitalContract.sol:HospitalContract",
						"label": "patientList",
						"offset": 0,
						"slot": "5",
						"type": "t_array(t_address)dyn_storage"
					},
					{
						"astId": 93,
						"contract": "capstone/HospitalContract.sol:HospitalContract",
						"label": "registeredPatients",
						"offset": 0,
						"slot": "6",
						"type": "t_mapping(t_address,t_struct(patient)30_storage)"
					},
					{
						"astId": 97,
						"contract": "capstone/HospitalContract.sol:HospitalContract",
						"label": "medicines",
						"offset": 0,
						"slot": "7",
						"type": "t_mapping(t_uint256,t_struct(medicine)41_storage)"
					}
				],
				"types": {
					"t_address": {
						"encoding": "inplace",
						"label": "address",
						"numberOfBytes": "20"
					},
					"t_array(t_address)dyn_storage": {
						"base": "t_address",
						"encoding": "dynamic_array",
						"label": "address[]",
						"numberOfBytes": "32"
					},
					"t_array(t_string_storage)dyn_storage": {
						"base": "t_string_storage",
						"encoding": "dynamic_array",
						"label": "string[]",
						"numberOfBytes": "32"
					},
					"t_array(t_struct(Disease)4_storage)dyn_storage": {
						"base": "t_struct(Disease)4_storage",
						"encoding": "dynamic_array",
						"label": "struct HospitalContract.Disease[]",
						"numberOfBytes": "32"
					},
					"t_mapping(t_address,t_struct(doctor)15_storage)": {
						"encoding": "mapping",
						"key": "t_address",
						"label": "mapping(address => struct HospitalContract.doctor)",
						"numberOfBytes": "32",
						"value": "t_struct(doctor)15_storage"
					},
					"t_mapping(t_address,t_struct(patient)30_storage)": {
						"encoding": "mapping",
						"key": "t_address",
						"label": "mapping(address => struct HospitalContract.patient)",
						"numberOfBytes": "32",
						"value": "t_struct(patient)30_storage"
					},
					"t_mapping(t_uint256,t_struct(medicine)41_storage)": {
						"encoding": "mapping",
						"key": "t_uint256",
						"label": "mapping(uint256 => struct HospitalContract.medicine)",
						"numberOfBytes": "32",
						"value": "t_struct(medicine)41_storage"
					},
					"t_string_storage": {
						"encoding": "bytes",
						"label": "string",
						"numberOfBytes": "32"
					},
					"t_struct(Disease)4_storage": {
						"encoding": "inplace",
						"label": "struct HospitalContract.Disease",
						"members": [
							{
								"astId": 3,
								"contract": "capstone/HospitalContract.sol:HospitalContract",
								"label": "name",
								"offset": 0,
								"slot": "0",
								"type": "t_string_storage"
							}
						],
						"numberOfBytes": "32"
					},
					"t_struct(doctor)15_storage": {
						"encoding": "inplace",
						"label": "struct HospitalContract.doctor",
						"members": [
							{
								"astId": 6,
								"contract": "capstone/HospitalContract.sol:HospitalContract",
								"label": "id",
								"offset": 0,
								"slot": "0",
								"type": "t_uint256"
							},
							{
								"astId": 8,
								"contract": "capstone/HospitalContract.sol:HospitalContract",
								"label": "name",
								"offset": 0,
								"slot": "1",
								"type": "t_string_storage"
							},
							{
								"astId": 10,
								"contract": "capstone/HospitalContract.sol:HospitalContract",
								"label": "qualification",
								"offset": 0,
								"slot": "2",
								"type": "t_string_storage"
							},
							{
								"astId": 12,
								"contract": "capstone/HospitalContract.sol:HospitalContract",
								"label": "workPlace",
								"offset": 0,
								"slot": "3",
								"type": "t_string_storage"
							},
							{
								"astId": 14,
								"contract": "capstone/HospitalContract.sol:HospitalContract",
								"label": "addr",
								"offset": 0,
								"slot": "4",
								"type": "t_address"
							}
						],
						"numberOfBytes": "160"
					},
					"t_struct(medicine)41_storage": {
						"encoding": "inplace",
						"label": "struct HospitalContract.medicine",
						"members": [
							{
								"astId": 32,
								"contract": "capstone/HospitalContract.sol:HospitalContract",
								"label": "id",
								"offset": 0,
								"slot": "0",
								"type": "t_uint256"
							},
							{
								"astId": 34,
								"contract": "capstone/HospitalContract.sol:HospitalContract",
								"label": "name",
								"offset": 0,
								"slot": "1",
								"type": "t_string_storage"
							},
							{
								"astId": 36,
								"contract": "capstone/HospitalContract.sol:HospitalContract",
								"label": "expiryDate",
								"offset": 0,
								"slot": "2",
								"type": "t_string_storage"
							},
							{
								"astId": 38,
								"contract": "capstone/HospitalContract.sol:HospitalContract",
								"label": "dose",
								"offset": 0,
								"slot": "3",
								"type": "t_uint256"
							},
							{
								"astId": 40,
								"contract": "capstone/HospitalContract.sol:HospitalContract",
								"label": "price",
								"offset": 0,
								"slot": "4",
								"type": "t_uint256"
							}
						],
						"numberOfBytes": "160"
					},
					"t_struct(patient)30_storage": {
						"encoding": "inplace",
						"label": "struct HospitalContract.patient",
						"members": [
							{
								"astId": 17,
								"contract": "capstone/HospitalContract.sol:HospitalContract",
								"label": "id",
								"offset": 0,
								"slot": "0",
								"type": "t_uint256"
							},
							{
								"astId": 19,
								"contract": "capstone/HospitalContract.sol:HospitalContract",
								"label": "name",
								"offset": 0,
								"slot": "1",
								"type": "t_string_storage"
							},
							{
								"astId": 21,
								"contract": "capstone/HospitalContract.sol:HospitalContract",
								"label": "age",
								"offset": 0,
								"slot": "2",
								"type": "t_uint256"
							},
							{
								"astId": 23,
								"contract": "capstone/HospitalContract.sol:HospitalContract",
								"label": "addr",
								"offset": 0,
								"slot": "3",
								"type": "t_address"
							},
							{
								"astId": 26,
								"contract": "capstone/HospitalContract.sol:HospitalContract",
								"label": "diseases",
								"offset": 0,
								"slot": "4",
								"type": "t_array(t_struct(Disease)4_storage)dyn_storage"
							},
							{
								"astId": 29,
								"contract": "capstone/HospitalContract.sol:HospitalContract",
								"label": "prescribedMedicines",
								"offset": 0,
								"slot": "5",
								"type": "t_array(t_string_storage)dyn_storage"
							}
						],
						"numberOfBytes": "192"
					},
					"t_uint256": {
						"encoding": "inplace",
						"label": "uint256",
						"numberOfBytes": "32"
					}
				}
			},
			"userdoc": {
				"kind": "user",
				"methods": {},
				"version": 1
			}
		}
	}
}